:020000040800F2
:10000000A8160020A9010008DB3A000835320008D4
:10001000D93A0008390F000891410008000000009B
:10002000000000000000000000000000ED3B0008A0
:10003000C912000800000000DD3A0008013C000879
:10004000C3010008C3010008C3010008C301000880
:10005000C3010008C3010008C3010008C301000870
:10006000C3010008C3010008C3010008C301000860
:10007000C3010008C3010008C3010008C301000850
:10008000C3010008C3010008C3010008000000000C
:10009000000000000000000000000000C301000894
:1000A000C3010008DD3C0008C3010008C3010008CB
:1000B000C3010008C3010008E93C0008C3010008AF
:1000C000C3010008C3010008C3010008C301000800
:1000D000C301000885410008C301000800000000BA
:1000E000C3010008C3010008C301000800000000AC
:1000F000000000000000000000000000C301000834
:1001000000000000C3010008C3010008C30100088B
:1001100000000000000000000000000000000000DF
:10012000C3010008C3010008C3010008C30100089F
:10013000C3010008000000000000000000000000F3
:10014000000000000000000000000000C3010008E3
:10015000C3010008C3010008C3010008C30100086F
:10016000C3010008C30100080000000000000000F7
:10017000000000000000000000000000000000007F
:1001800000000000C30100080000000000000000A3
:10019000C3010008DFF80CD000F07CFC00480047E9
:1001A00061530008A816002006488047064800470B
:1001B000FEE7FEE7FEE7FEE7FEE7FEE7FEE7FEE717
:1001C000FEE7FEE7C13C0008950100082DE9F05F5D
:1001D0000546002092469B468846064681464024B6
:1001E0001BE0284641464746224600F060FB534646
:1001F0005A46C01A914110D311461846224600F0C3
:1002000047FB2D1A67EB01084F46224601200021CB
:1002100000F03EFB17EB00094E41201EA4F1010443
:10022000DFDC484631462A464346BDE8F09F40EAB7
:1002300001039B0703D009E008C9121F08C0042A64
:10024000FAD203E011F8013B00F8013B521EF9D24B
:100250007047D2B201E000F8012B491EFBD2704773
:100260000022F6E710B513460A4604461946FFF782
:10027000F0FF204610BD421C10F8011B0029FBD1E5
:10028000801A70470FB400B58DB010A909900B907B
:1002900000914FF0FF300A9000200C900548069026
:1002A000054807906A4609A80F9900F037FB0DB082
:1002B0005DF814FB39090008570900082DE9FF5FB4
:1002C0001D464FF0FF3BD5E9014691465F464FF092
:1002D0000008A9697F1C01988847296A82468847D7
:1002E0000028F6D1BAF1FF3F0CD024F4C064002EF0
:1002F00019DD600614D5BAF12B0F09D0BAF12D0F14
:100300000ED103E0584604B0BDE8F09F44F4806489
:10031000A9697F1C01988847761E8246002E02DD5F
:10032000BAF1300F03D0B9F1000F26D032E0A9693D
:10033000761E44F400747F1C019888478246002E84
:1003400005DDBAF1780F06D0BAF1580F03D0B9F134
:10035000000F10D01EE0B9F1000F02D0B9F1100F5C
:1003600018D1A969761E24F400747F1C019888476F
:100370008246102002E0082000E00A20814609E0C1
:1003800008FB0908A969761E44F400747F1C0198D3
:1003900088478246002E05DD4946504600F0A9FAFE
:1003A0000028EDDAE96901988847A00502D46FF0CA
:1003B0000100A8E7E00725D1600613D5600502D546
:1003C000C8F1000000E0404629680A1D2A6009685B
:1003D000220501D5087015E0220701D5088011E03B
:1003E00008600FE02868011D29600068210502D51A
:1003F00080F8008006E0210702D5A0F8008001E027
:10040000C0F8008038467EE72DE9FF5FD2E901A7FA
:100410004FF00008916999461446DDF838B0464619
:1004200001988847054659EA0B0005D009E0A16903
:10043000761C019888470546216A28468847002887
:10044000F5D1681C03D05FEACA7005D015E04FF003
:10045000FF3004B0BDE8F09F2068011D2160D0F896
:1004600000800AE05FEACA7001D108F8015BA16967
:10047000761C7F1E019888470546002F1ADD681CF0
:1004800018D0B9F1000F0DD0E81705EBD06042117C
:1004900020F01F0059F822102A1A01209040014232
:1004A000E0D107E0BBF1000FDCD1216A2846884784
:1004B0000028D7D0E16901988847BBF1000F07D128
:1004C000002E05DD5FEACA7002D1002188F8001015
:1004D000A068B84203DDBBF1000F03D017B16FF085
:1004E0000100B6E73046B4E72DE9FE4F804681EAC9
:1004F0000300C00F0C46009021F0004123F000459E
:10050000B8EB0200A94105D24046214690461C4660
:100510000B46024623F00040104347D0270DC7F397
:100520000A00C3F30A510290401A019040286BDA86
:10053000C3F3130040F4801B0098924620B10023BF
:10054000D2EB030A63EB0B0B01985946C0F1400252
:10055000504600F09DF906460D4650465946019A10
:1005600000F0B5F910EB08006141002487EA115250
:1005700084EAE7731A4340D0009A62B3019A012AD1
:100580004FEA075215DC001B61EB02014FF00042FD
:1005900002EA0752CDE90042001C41F580113246C3
:1005A0002B4600F0F8F903B0BDE8F08F4046214635
:1005B000F9E7001B61EB0201001C41F580130018F4
:1005C0005B412018A2F5001747EB030140EAD57004
:1005D000B6196D4111E06D084FEA360645EAC0755F
:1005E0004FEA0752001B61EB0201001C41F580112C
:1005F00049084FEA30000019514132462B4603B0FA
:10060000BDE8F04F00F0B8B9009801224000002387
:10061000D0EB020263EBE073009821464FEAE074EE
:10062000B8EB000061EB0401E9E783F000435BE70E
:1006300081F0004158E72DE9FE4F81EA030404F000
:10064000004421F0004100944FF0000B23F00043E0
:1006500050EA01045ED052EA03045BD0C3F30A54AB
:10066000C1F30A552C44A4F2F3340194A0FB0254C4
:10067000C1F3130141F48011C3F3130343F4801356
:1006800001FB024400FB034E840A970A44EA8154AA
:1006900047EA8357A4FB076802958D0A05FB078587
:1006A0004FEA932C04FB0C542705029D4FEA065891
:1006B00047EA1637B5EB08056EEB070C870E920E6E
:1006C00047EA811742EA8312A7FB0201B6EB0B014E
:1006D00064EB00042B0D43EA0C335E1844EB1C5012
:1006E000DA465146E7FB0201C5F313044FEA0B3328
:1006F00043EA14534FEA0432019C43EA0603A4F18F
:100700000C040294009CCDE900B400F044F903B05D
:10071000BDE8F08F00200146F9E72DE9F04D81EAB0
:10072000030404F0004B21F0004514464FF0000A8A
:1007300023F0004150EA050220D054EA01021DD006
:10074000C5F30A570246C5F31303C1F31300C1F3FF
:100750000A5640F4801543F48013A7EB0608101BDB
:10076000D64608F2FD3873EB050002D308F1010804
:1007700001E092185B41B8F1000F03DA0020014656
:10078000BDE8F08D00204FF48011064684460EE04F
:10079000171B73EB050705D3121B63EB0503064319
:1007A0004CEA010C49084FEA300092185B4150EACC
:1007B0000107EDD152EA030012D082EA040083EA75
:1007C0000501084305D0101BAB4106D201220023CE
:1007D00006E000224FF0004302E06FF001025310E8
:1007E0001AEB06004CEB085110EB0A0041EB0B0131
:1007F000BDE8F04D00F0C0B80EB5C10F80EAE07062
:100800000844CA07002140F233438DE80E000A462F
:100810000B4600F0C0F803B000BD0EB540F2334106
:1008200002910021CDE900110A460B4600F0B3F811
:1008300003B000BD30B5041E71F1000404DB4FF0BD
:100840000044404264EB0101141E73F1000405DB17
:100850001C464FF00043524263EB04038B4208BF37
:10086000824230BD30B50B460146002020220124D3
:1008700009E021FA02F59D4205D303FA02F5491B6E
:1008800004FA02F52844151EA2F10102F1DC30BD84
:10089000202A04DB203A00FA02F100207047914040
:1008A000C2F1200320FA03F3194390407047202A35
:1008B00004DB203A21FA02F00021704721FA02F30A
:1008C000D040C2F120029140084319467047202AC7
:1008D00006DBCB17203A41FA02F043EAE07306E068
:1008E00041FA02F3D040C2F1200291400843194678
:1008F00070473A2800D2303820F02002412A01D334
:10090000A2F13700884201D34FF0FF30704700005A
:10091000026811441378016018467047D160044999
:1009200051610449116200211161114600F0CAB8F9
:1009300011090008B90A0008426842B1016811F8BB
:10094000013B23B1521EC0E9001218467047012135
:10095000C160881E704742685AB1C368016843B9D4
:1009600083688B4205D0491E521CC0E9001200204A
:1009700070474FF0FF30704710B5141E73F100043C
:1009800008DA401C41F1000192185B411A4301D181
:1009900020F0010010BD2DE9F04D92469B4611B1AB
:1009A000B1FA81F202E0B0FA80F220329046FFF70D
:1009B0006FFF04460F4640EA0A0041EA0B01534626
:1009C0005A46084313D0114653EA010019D0C8F122
:1009D00040025046FFF76BFF05460E46504659460B
:1009E0004246FFF755FF084305D0012004E02046AA
:1009F0003946BDE8F08D0020054346EAE0762C43F9
:100A000037430A986305E40AA0EB08000022FD0AB8
:100A100044EA47540A3002D500200146E9E70105BF
:100A200010196941DDE9084500196941BDE8F04D3B
:100A3000A2E7C1F30A52C1F3130140F2FF3341F4BC
:100A400080119A4202DA00200146704740F2334397
:100A50009A42A2F2334202DC5242FFF728BFFFF76C
:100A600017BF000030B5041E71F1000404DB4FF025
:100A70000044404264EB0101141E73F1000405DBE5
:100A80001C464FF00043524263EB0403994208BFF7
:100A9000904230BD064C074D06E0E06840F001038F
:100AA00094E8070098471034AC42F6D3FFF776FB82
:100AB000BC540008DC540008C0B24FF4F05100F000
:100AC00097B900002DE9F34F8BB04FF0000801F10A
:100AD0000C000C464FF0010B46460DF1080A019040
:100AE000626901210198904705002DD0252D2CD059
:100AF000216A8847C0B16269012101989047216A43
:100B000088470028F7D1411E62690198904700E0AC
:100B1000761CA1690B988847216A88470028F7D17D
:100B2000E1690B988847DBE7A1690B98884707467E
:100B3000A84201D1761CD3E7E1690B9888477F1C56
:100B400002D1B8F1000F6FD046E1002762693D463F
:100B50003946019890472A2804D1626901210198F9
:100B600090470125DFF8849262690121019890473E
:100B7000A0F130010A290AD24F45E5DC07EB8701D5
:100B800000EB4107303FDFD445F01005ECE7E90604
:100B900001D46FF000476C280AD04C2814D0682884
:100BA00015D06A280DD074281CD07A281AD01DE0E0
:100BB00062690121019890476C2802D045F0040534
:100BC00014E045F002050DE045F020050AE06269F9
:100BD000012101989047682802D045F0080505E0FA
:100BE00045F400656269012101989047C4E9015705
:100BF00065283DD019DC58287AD00CDC452837D040
:100C000004DC252826D0412831D131E046282FD0D8
:100C100047282CD12CE05B2877D0612828D0632886
:100C20007CD0642823D15AE0D0E06F2848D008DC7B
:100C300066281DD067281BD0692821D06E2816D1C0
:100C400027E0702845D0732868D0752847D07828C9
:100C50000DD14DE0A1690B988847054625283FF442
:100C600069AFE1690B9888476D1C3FF46AAFB3E048
:100C700023466A466FF001000B99AFF300809EE0B7
:100C800045F040006060A80723464FF0000236D4CC
:100C90003EE0E8077FF447AF2068011D216000684F
:100CA000290501D506701BE7290701D5068017E73E
:100CB000A90703D5F117C0E9006111E706600FE746
:100CC00045F040006060A80723464FF0080216D4A4
:100CD0001EE040F60E0125EA0100606016E045F0D6
:100CE00040006060A80723464FF00A0207D40FE0D7
:100CF00045F040006060A80708D5234610226FF039
:100D000001000B99AFF3008059E007E02346102261
:100D10006FF001000B99FFF7D1FA50E04FF0000996
:100D20004F464B46632802D05B2806D040E0E806D9
:100D300001D40120A06001273AE0626901210198F5
:100D400090475E2805D14FF0010962694946019834
:100D50009047216939B900210A46534643F82120BA
:100D6000491C0829FADBB0B3216969B9C11700EB46
:100D7000D16253110AEB830122F01F02821A012073
:100D80000B68904003430B60626901210198904712
:100D90005D28E8D1B9F1000F09D00020514651F883
:100DA0002020D24341F82020401C0828F7DB02AB6A
:100DB000224600976FF001000B99FFF725FB0028F2
:100DC0000CDA401C08D1BBF1000F05D04FF0FF300A
:100DD0000DB0BDE8F08FFFE74046F9E7E90701D124
:100DE00008F1010806444FF0000B79E6CCCCCC0C9E
:100DF0007F2801D9002208E0064A02EB5002C00712
:100E0000127800D1120902F00F0201209040084030
:100E1000704700007C54000870B58C1810F8015B16
:100E200015F0070301D110F8013B2A1106D110F883
:100E3000012B03E010F8016B01F8016B5B1EF9D187
:100E40002B0705D40023521E0DD401F8013BFAE70D
:100E500010F8013BCB1A921C03E013F8015B01F878
:100E6000015B521EF9D5A142D8D3002070BD00000D
:100E70001FB52F49012008710024009401940294A9
:100E800003940E222B496846FFF7D1F90022114640
:100E9000684604F035FA00940194029403942549BD
:100EA0000E220E316846FFF7C2F900220121684682
:100EB00004F026FA00940194029403941D490E2232
:100EC0001C316846FFF7B3F900220221684604F09E
:100ED00017FA009401940294039416490E222A31C1
:100EE0006846FFF7A4F900220321684604F008FAD7
:100EF00000940194029403940E490E2238316846FE
:100F0000FFF795F900220421684604F0F9F90094EE
:100F100001940294039407490E2246316846FFF774
:100F200086F900220521684604F0EAF91FBD000099
:100F30007A020020EB030020FEE7000070B50024D9
:100F400000F028F8124D04E0641CE4B2012004F023
:100F500009F91021284600F013FC08B1642CF3D3E2
:100F6000642C01D3012070BD002404E0641CE4B2B1
:100F7000012004F0F7F81021284600F001FC08B920
:100F8000642CF3D3642C01D3012070BD002070BD0C
:100F90000004024000B585B014216846FFF760F9EF
:100FA0001020009000200190012002900220039068
:100FB0006946024800F020FB05B000BD0004024075
:100FC00000B585B014216846FFF74AF9102000905B
:100FD00001200190002002900220039069460248FF
:100FE00000F00AFB05B000BD0004024010B500F09F
:100FF00091F8BDE81040FFF7A1BF000000B585B033
:10100000FFF7F4FF0C4904A800F05BF80020009003
:10101000019002900390084808A10278684603F006
:10102000B9F80A480078002804D100220521684652
:1010300004F066F905B000BD7802002048554D491E
:101040003A25686875207065720000007E020020F5
:1010500070B50024134D04E0641CE4B2012004F0D8
:1010600081F81021284600F08BFB08B1642CF3D3E3
:10107000002404E0641CE4B2012004F073F81021A1
:10108000284600F07DFB08B9642CF3D3282004F037
:1010900069F81021284600F073FB08B1012070BDEB
:1010A000002070BD0004024070B5002000244006FE
:1010B000050EFFF7CDFF2843641CE4B2082CF6D3DD
:1010C00070BD2DE9FC4106460F4600F023F8FFF7FE
:1010D00035FF10B10120BDE8FC8100246D46FFF70B
:1010E000E3FF2855641CE4B2052CF8D39DF80010EA
:1010F0009DF801009DF803300A189DF80200034492
:101100001A449DF804309A4201D1397030700020A1
:10111000E1E7000010B5FFF753FF094C0022102152
:10112000204600F03DFB142000F054FA012210216B
:10113000204600F035FBBDE810401E2004F012B838
:101140000004024010B55948594C02464178907845
:10115000D278632901D1682802D0442957D058E0B9
:10116000303AD3B251484279ABB152484FF4805132
:10117000012B13D0022B1DD04F48032B28D0042B5A
:1011800034D0052B09D18115302A3BD0BDE8104061
:10119000012200F005BB303AA27010BD302A04D005
:1011A000BDE81040012200F0FBBABDE8104000226B
:1011B00000F0F6BA4FF40051302A04D0BDE81040D8
:1011C000012200F0EDBABDE81040002200F0E8BABC
:1011D0004FF40061302A04D0BDE81040012200F035
:1011E000DFBABDE81040002200F0DABA302A04D09D
:1011F000BDE81040012200F0D3BABDE81040002243
:1012000000F0CEBABDE81040002200F0C9BA542860
:1012100002D0412904D005E0BDE8104002F090BCA6
:10122000502802D0412904D005E0BDE81040FFF766
:101230001FBE702802D0452904D005E0BDE810404B
:10124000FFF716BE412802D0452906D009E000204C
:101250002071BDE8104001F0ABBF522801D1532AE4
:1012600002D046290DD010E014A000F075F94FF41B
:10127000FA7000F0AFF900F085F8BDE8104001F019
:1012800097BF522801D1532A0BD0462985D1522825
:1012900083D1532A81D102F0E9F9BDE8104001F071
:1012A00087BFBDE8104000F05BBE0000E8030020EF
:1012B0007A020020000402400000024041542B52F8
:1012C0004553544F524500007047000010B588B098
:1012D000002403941149002201F1740001F02AFA5C
:1012E0000E48002203A9743001F002FA0B4803787B
:1012F000417880780494059406940794CDE9001011
:10130000074A08A104A802F045FF0122114604A8DB
:1013100003F0F6FF00F012F808B010BDB402002090
:101320008C0200202573202530326868753A2530FC
:10133000326868753A2530326868750010B5104912
:10134000A1F1140208781378C01A4FF4616310FBFE
:1013500003F3487854788978001B9278C0EB00102A
:1013600003EB8000891A084400B2782807DD00F0FA
:10137000DFF800F007F8BDE8104001F019BF10BD1C
:10138000B402002010B54FF4FA7000F023F92AA03F
:1013900000F0E2F8642000F01DF900F0C9F840F612
:1013A000C41000F017F925A003F0F6FE27A000F006
:1013B000D3F8052000F00EF927A000F0CDF80520A5
:1013C00000F008F927A000F0C7F82DA003F0E4FE14
:1013D00042F6E06000F0FEF82DA000F0BDF86420B9
:1013E00000F0F8F82DA000F0B7F82FA003F0D4FE1D
:1013F000642000F0EFF830A000F0AEF8642000F0B8
:10140000E9F831A000F0A8F83AA003F0C5FE41F2D7
:10141000883000F0DFF83EA000F09EF83FA003F017
:10142000BBFE4FF47A7000F0D5F8404900204870B8
:10143000BDE8104002F00DB92B2B2B004E45545740
:101440004F524B20494E49540000000041542B4359
:10145000574D4F44453D310041542B534C45455069
:101460003D32000041542B43574A41503D22383011
:1014700031222C2262616F33323830312200000079
:1014800057494649434F4E4E454354494E47000045
:1014900041542B43494653520000000041542B4312
:1014A00049504D55583D300057494649434F4E4EDF
:1014B0002D2D5B4F4B5D000041542B4349504D4F48
:1014C00044453D310000000041542B4349505354E2
:1014D0004152543D22544350222C223132392E3273
:1014E00030342E3232342E3535222C3130303130FA
:1014F00000000000436F6E6E656374696E67207450
:101500006F20446174612055706C6F616465720076
:1015100041542B43495053454E4400004D4F4445E0
:101520005345542D2D2D5B4F4B5D00007A0200205A
:1015300010B5084C00222021204600F031F905208A
:1015400000F048F820460122BDE81040202100F0BC
:1015500027B900000004024010B504462046FEF7FB
:101560008AFE82B264232146054801F0B7FD642358
:10157000BDE81040022203A1014801F0AFBD000008
:10158000880300200D0A000010B504462046FEF72F
:1015900072FE214682B2BDE810404FF47A730148D2
:1015A00001F09CBD8803002070472038C0B270470E
:1015B00090F83510022903D0802141650120704741
:1015C000052180F835100068016821F001010160F3
:1015D0000020704770B5044600F0EAF80546601C2C
:1015E00002D004480078044400F0E2F8401BA04216
:1015F000FAD370BD900200202DE9F84F0022DFF8E9
:1016000060A14FF003084FF00F090AF1040B012508
:1016100095400B682B40AB4272D14C68012C05D031
:10162000022C03D0112C01D0122C10D1866854004A
:1016300008FA04F7BE43CF68A74037438760446881
:10164000AC430D79C5F30015954025434560C4684A
:10165000570008FA07F5AC438E68BE402643C660C3
:101660004C68022C01D0122C12D1D40800EB840C4F
:10167000DCF820605407E40E09FA04FE26EA0E06A0
:10168000D1F810E00EFA04FE4EEA060ECCF820E087
:101690000468AC430D7905F00305BD4025430560A2
:1016A0004C68E40056D52F4C256845F480452560EC
:1016B000246804F4804400942B4C22F00305254454
:1016C000D5F808789407260F09FA06F4A743274CA3
:1016D000A04201D1002415E0254CA04201D10124F3
:1016E00010E0244CA04201D102240BE0224CA04285
:1016F00001D1032406E0214CA04202D1042401E0E0
:1017000028E00724B4403C43C5F80848DAF8004014
:101710009C434D68ED0300D51C43CAF80040DBF83C
:1017200000409C434D68AD0300D51C43CBF80040FE
:101730000B4D08352C689C434E68F60200D51C43BF
:101740002C60074D0C352C689C434E68B60200D5C2
:101750001C432C60521C102AFFF459AFBDE8F88FCF
:10176000003C01404438024000300140000002408B
:101770000004024000080240000C02400010024039
:101780000069084201D0012070470020704742697B
:1017900031EA020201D0816170470904816170471A
:1017A000002A01D0816170470904816170470000FF
:1017B000014880687047000090020020006C70476C
:1017C00070B50446002C04D094F83D00002510B1FB
:1017D00006E0012070BD84F83C50204600F0A6FAD7
:1017E000242084F83D002068016821F00101016097
:1017F0002068016841F4004101602068016821F41B
:101800000041016000F036FD4F4B6168994203D8FA
:101810004E49884203D304E04D49884201D2012059
:1018200070BD4C49B0FBF1F12268566826F03F06C6
:101830000E43566062689A4201D8491C07E04FF493
:10184000967251434FF47A72B1FBF2F1491C22684F
:10185000166A26F03F06314311626168994210D83A
:101860004900401EB0FBF1F2521CC2F30B02042AE5
:1018700001D2042022E0B0FBF1F0401CC0F30B00C9
:101880001CE0A268F2B301EBC10303EB0116431E97
:10189000B3FBF6F35B1C43F480431B0549D092B3C2
:1018A00001EBC10202EB0111401EB0FBF1F0401C44
:1018B000C0F30B0040F4804040F400402168CA6946
:1018C0004CF6FF739A431043C861D4E907100143F3
:1018D0002068026822F0C00211430160D4E90301CC
:1018E00001432068826848F2FF339A4311438160C4
:1018F000D4E9051001432068C26822F0FF021143B9
:10190000C16001E00EE016E02068016841F00101CD
:1019100001602564202084F83D00256384F83E5052
:10192000002070BD01EB4106431EB3FBF6F35B1CC8
:10193000B3E70120C2E701EB4101401EB0FBF1F02B
:10194000401CC0F30B00B7E7A086010080841E0096
:1019500000093D0040420F002DE9F84F04468A4639
:1019600017469946DDF82880FFF722FF054694F8D0
:101970003D00202802D00220BDE8F88F1923012263
:1019800095492046009501F076FD08B10220F3E765
:1019900094F83C00012807D0012084F83C0020681E
:1019A0000168C90702D005E00220E5E7016841F0BF
:1019B000010101602068016821F4006101602220BA
:1019C00084F83D00102084F83E00002626646762FB
:1019D000A4F82A90608D20858048E0622B4642461C
:1019E0005146204601F03EFC08B10120C4E7208D9D
:1019F00070B1012815D0022821D02068016841F477
:101A0000806101602068416980690090744FD8E06E
:101A10002068416981690091016841F400710160A9
:101A2000F4E72068016821F4806101602068416961
:101A300081690091016841F400710160E6E7206866
:101A4000016821F4806101602068016841F400614F
:101A500001602068416980690090D7E703287DD83C
:101A600001280BD002281FD04346002239462046C9
:101A7000009501F000FDE8B301207DE72A464146CC
:101A8000204601F089FD08B1012075E72068006952
:101A9000616A0870606A401C6062208D401E20856B
:101AA000608D401E60858CE043460022394620460A
:101AB000009501F0E0FC08B101205DE720680168B5
:101AC00041F40071016020680069616A0870606A11
:101AD000401C6062218D491E2185618D491E6185F2
:101AE000216809690170606A401C6062208D401E97
:101AF000208500E003E0608D401E608561E0206885
:101B0000016821F48061016020680069616A0870E1
:101B1000606A401C6062208D401E2085608D401EE2
:101B200060854346002239462046009501F0A3FC1B
:101B300008B1012020E72068016841F400710160CC
:101B400020680069616A0870606A401C6062218DCB
:101B5000491E2185618D491E618500E00CE02168E8
:101B600009690170606A401C6062208D401E2085FA
:101B7000608D401E608524E02A464146204601F0E3
:101B80000BFD08B10120F7E620680069616A087062
:101B9000606A401C6062218D491E2185618D491E4D
:101BA000618521684A69D24352070AD409690170E4
:101BB000606A401C6062208D401E2085608D401E42
:101BC0006085208D00287FF449AF20203C34607070
:101BD000A67026700020CFE6020010000000FFFF74
:101BE000040001002DE9F84F04468A46154699463F
:101BF000DDF82880FFF7DCFD064694F83D0020283C
:101C000002D00220BDE8F88F192301224549204661
:101C1000009601F030FC08B10220F3E794F83C0094
:101C2000012807D0012084F83C0020680168C9071A
:101C300002D005E00220E5E7016841F00101016002
:101C40002068016821F400610160212084F83D00D2
:101C5000102084F83E00002727646562A4F82A90CB
:101C6000608D20853048E06233464246514620462A
:101C700001F082FB08B10120C4E720684169806956
:101C800000903EE032464146204601F0BBFC48B1A0
:101C9000206C042804D12068016841F400710160BF
:101CA0000120AFE7606A216800780861656A6D1CF1
:101CB0006562608D401E6085208D401E80B220854B
:101CC00022685169C94349070BD450B12878106183
:101CD000606A401C6062608D401E6085208D401EE1
:101CE000208532464146204601F09EFB48B1206CDB
:101CF000042804D12068016841F4007101600120CA
:101D000080E7208D0028BDD11F3454F81F0C0168D6
:101D100041F4007101602020A077E7776777002009
:101D200070E70000020010000000FFFF10B586B051
:101D30000446142101A8FEF793FA1349206888424B
:101D400020D11248016841F002010160006800F0F2
:101D500002000090C0200190122002900120039008
:101D6000032004900420059001A90948FFF744FCD2
:101D700006481030016841F400110160006800F469
:101D80000010009006B010BD0054004030380240F2
:101D90000004024070B50446002C11D021684CF6B6
:101DA000CC400860216845F255500860D4E9001025
:101DB00048602168A0688860FFF7FAFC054608E0E3
:101DC000012070BDFFF7F4FC401B302801D903202F
:101DD00070BD2068C0680028F4D121684AF6AA20A6
:101DE0000860002070BD00684AF6AA21016000204A
:101DF0007047000002488168027811448160704792
:101E00009002002010B50B48016841F40071016098
:101E1000016841F480610160016841F480710160F2
:101E2000032000F08BF8012000F006F800F03EF8E7
:101E3000002010BD003C024010B588B001460022D1
:101E4000192000F05BF8192000F04AF8002413482C
:101E5000016841F001010160006800F0010001909B
:101E600002A903A800F0E2F900F014FA0C49B0FB53
:101E7000F1F1491E0C480B4A026040F2E732C260A1
:101E800041600461846000F02BFE10B1012008B0B5
:101E900010BD054800F070FEF9E70000443802402C
:101EA00040420F00000001406804002082B00B484F
:101EB000016841F480410160006800F480400190B5
:101EC0000648001F016841F080510160006800F081
:101ED00080500190052002B000F030B84438024034
:101EE000002809DB00F01F02012191404009800019
:101EF00000F1E020C0F8001170470000F0B40D467A
:101F00000D4B1B68C3F30223C3F10704042C00D953
:101F10000424191D072901D2002300E0DB1E01263D
:101F200006FA04F1491E294099409E40761E16404B
:101F30003143F0BC02F042B90CED00E000F00701C3
:101F4000054A10684FF6FF03184040EA0120034994
:101F500008431060704700000CED00E00000FA0537
:101F6000BFF34F8F05480168054A01F4E061114352
:101F70000160BFF34F8F00BFFDE700000CED00E0F4
:101F80000400FA052DE9F84304464FF001072068E4
:101F90004FF00006C10701D140072DD5DFF8289189
:101FA000C9F86860FFF704FC8046484D08E0FFF779
:101FB000FFFBA0EB0800022802D90320BDE8F8834C
:101FC00028680001F3D46068217A800140EA017139
:101FD0003E4884300160C9F86870FFF7E9FB80462D
:101FE00007E0FFF7E5FBA0EB0800022801D903207A
:101FF000E4E728680001F4D52078800753D53348FA
:102000004030016841F080510160006800F080506C
:1020100000902F4D286840F480702860FFF7C8FBBF
:10202000804607E0FFF7C4FBA0EB0800022801D9B7
:102030000320C3E72868C005F4D5244D703528680F
:1020400000F44070F0B1A18901F44071814219D0CF
:10205000286820F440701F490F600E6028602868CF
:10206000C0070FD0FFF7A4FB074641F2883606E011
:10207000FFF79EFBC01BB04201D903209EE72868F2
:102080008007F5D5E0681149C0F301220831032A21
:1020900011D0086820F4F81008602868A189C1F3FD
:1020A0000B01084328602078000702D50A49207CEC
:1020B0000860002082E70A68084B22F4F8121840F2
:1020C00002430A60E9E7000000004742003802408E
:1020D00000700040400E4742E0114742FFFCFF0FF6
:1020E0002DE9F04704460D46002C13D0DFF8289167
:1020F000D9F80000EFB200F00F00A8420CD289F826
:102100000070D9F8000000F00F00A84204D00120B0
:10211000BDE8F0870120FBE72068404E810712D51B
:10212000400703D5306840F4E05030602078000765
:1021300003D5306840F4604030603068A16820F01A
:10214000F000084330602078C00731D03349606820
:102150000839012808D002280BD0032809D00968C3
:1021600089070BD40120D3E70968890306D401202D
:10217000CEE70968890101D40120C9E7316821F05F
:10218000030101433160FFF713FB804641F2883AB7
:1021900007E0FFF70DFBA0EB0800504501D9032035
:1021A000B6E73068616800F00C00B0EB810FF0D149
:1021B000D9F8000000F00F00A84209D989F8007092
:1021C000D9F8000000F00F00A84201D001209FE7DD
:1021D0002078400705D53068E16820F4E0500843D6
:1021E00030602078000706D53068216920F460400F
:1021F00040EAC100306000F05DF83168084AC1F380
:102200000311515CC8400749086007480068FFF7A0
:1022100013FE00207CE70000003C0240083802402A
:10222000645400089C020020940200200F220260E7
:102230000B4A136803F003034360136803F0F003D1
:102240008360136803F4E053C360126802F46042D1
:10225000D20802610348006800F00F000860704770
:1022600008380240003C0240014800687047000006
:102270009C02002000B5FFF7F7FF04490968044AF3
:10228000C1F38221515CC84000BD00000838024003
:102290007454000800B5FFF7E7FF04490968044AD1
:1022A000C1F34231515CC84000BD00000838024013
:1022B0007454000810B51748006810F00C01164857
:1022C00016D0164B042912D0082911D1114C241F05
:1022D000216801F03F02216849020AD52068C0F355
:1022E0008810A0FB03010023FDF770FF09E01846EA
:1022F00010BD21680023C1F38811A1FB0001FDF787
:1023000065FF2168C1F30141491C4900B0FBF1F0B0
:1023100010BD0000083802400024F40040787D0120
:102320002DE9F84F0446002C12D02078DFF8AC835A
:10233000EB4DC00757D0D8F80000C0F3810001284A
:102340000ED0D8F80000C0F38100022803D00EE0C0
:102350000120BDE8F88FE148001F0068400206D563
:10236000286880033FD5606870BB0120F1E7606892
:10237000B0F5803F10D0B0F5A02F12D0286820F41F
:1023800080302860286820F4802028606068E0B1F0
:10239000FFF70EFA064614E0286840F48030286003
:1023A000F4E7286840F480202860286840F48030F2
:1023B0002860EBE7FFF7FCF9801B642801D90320B4
:1023C000C7E728688003F5D50DE0FFF7F1F9064669
:1023D00006E0FFF7EDF9801B642801D90320B8E778
:1023E00028688003F5D42078BE4F80074FF000099D
:1023F00049D5D8F8000010F00C0F0AD0D8F800002A
:10240000C0F38100022814D1B448001F00684002C4
:102410000FD42868800704D5E068012801D0012086
:1024200097E72868216920F0F80040EAC100286099
:1024300029E0E068B8B101203860FFF7B9F9064635
:1024400006E0FFF7B5F9801B022801D9032080E7D9
:1024500028688007F5D52868216920F0F80040EA4F
:10246000C10028600FE0C7F80090FFF7A1F9064609
:1024700006E0FFF79DF9801B022801D9032068E7D9
:1024800028688007F5D42078000729D5DFF84CA20A
:10249000954861690AF16C0A89B101210160FFF771
:1024A00087F9064606E0FFF783F9801B022801D969
:1024B00003204EE7DAF800008007F4D510E0C0F8FA
:1024C0000090FFF775F9064606E0FFF771F9801BEB
:1024D000022801D903203CE7DAF800008007F4D491
:1024E0002078400778D500267C4838300068C00046
:1024F0000AD47A483830016841F0805101600068A0
:1025000000F0805000900126DFF8E0B1DBF8000019
:10251000C00515D4DBF8000040F48070CBF8000053
:10252000FFF746F9824607E0FFF742F9A0EB0A0001
:10253000022801D903200CE7DBF80000C005F3D521
:10254000DFF898B1A0680BF1680B012813D00528BB
:1025500018D0DBF8000020F00100CBF80000DBF819
:10256000000020F00400CBF80000A06830B3FFF7B3
:102570001FF982461DE0DBF8000040F00100CBF8B7
:102580000000F2E7DBF8000040F00400CBF80000A8
:10259000DBF8000040F00100CBF80000E5E7FFF7B2
:1025A00007F9A0EB0A0141F28830814201D90320EA
:1025B000CFE6DBF800008007F1D512E0FFF7F8F86E
:1025C00082460AE0FFF7F4F8A0EB0A0141F28830F6
:1025D000814202D90320BCE60BE0DBF80000800753
:1025E000F0D4012E05D13D483830016821F08051EA
:1025F0000160A069B8B3D8F80010C1F381010229C5
:1026000048D0022805D0C7F86090FFF7D1F80446FB
:102610003CE0C7F86090FFF7CBF8064606E0FFF70E
:10262000C7F8801B022801D9032092E628688001A0
:10263000F5D4D4E907010843616AA26A4FF0FF3379
:10264000890103EB520241EA0241084394F82C103D
:1026500040EA01612148001F016001203866FFF750
:10266000A7F8044607E037E0FFF7A2F8001B0228AE
:1026700001D903206DE628688001F5D52CE0FFF72D
:1026800097F8001B022801D9032062E62868800120
:10269000F5D421E001281DD0D8F80000E26900F44B
:1026A0008001914214D1226A00F03F0191420FD182
:1026B00047F6C071626A0140914209D1A26A00F4F2
:1026C0004031914204D1E16A00F07060884203D049
:1026D00001203EE601203CE600203AE608380240B0
:1026E0000038024000004742800E47420070004020
:1026F00010B50B46006841680D480140080CD870C1
:10270000C1F304245C7001F03F049C70C1F34231BA
:102710001970002A0AD101F0E2F9D870587801F056
:10272000DEF95870987801F0DAF99870002010BD41
:102730003FFFFF0010B50B460168896A59600168C8
:102740000969C1F30E019960006801680E480140F3
:10275000C1F305401870C1F306245C7001F07F04DA
:102760009C7001F48001090CD970002A0AD101F093
:10277000B6F91870587801F0B2F95870987801F0ED
:10278000AEF99870002010BD7F7F7F0070B50446C1
:10279000002C02D0607F10B106E0012070BD002047
:1027A0002077204600F04EF8022060772168CA208A
:1027B0004862216853204862204601F0A4F9FF25B1
:1027C000042620B1206845626677012070BD20682C
:1027D00081681B4A114081602068816862681143EA
:1027E000D4E904231A43114381602168E068086139
:1027F00020680169228941EA024101612068C168BB
:1028000021F08001C16020688068800608D42046DD
:1028100000F00CF920B1206845626677012070BD98
:102820002068016C21F4802101642068016CA26998
:10283000114301642068456201206077002070BD6B
:10284000BFFF8FFF00680349884202D1024901207F
:1028500008607047002800403C0E47422DE9F047D1
:1028600004460B46207F012807D04FF0010884F86A
:102870001C80022060771AB109E00220BDE8F087D1
:102880005878C10603D500F0EF000A305870F2B155
:102890009878D97840EA014558781978000240EADA
:1028A000413005432168CA204862216853204862AC
:1028B000204601F028F90026FF274FF00409B8B19F
:1028C0002068476284F81D9026770120D6E7D878E3
:1028D00001F00EF90204587801F00AF942EA0022E8
:1028E000987801F005F90243187842EA4035D9E7B3
:1028F0000F480540206845602068C16821F08001CC
:10290000C1602068806880060AD4204600F08EF8F6
:1029100030B12068476284F81D9026770120ADE72A
:102920002068476284F81D8026770020A6E7000013
:102930003FFFFF002DE9F04704460D46207F0128A8
:102940002DD04FF0010984F81C90022060770026FA
:102950003AB320688068400600D4EE70A8782978E1
:1029600040EA01476878E978000240EA01400743FD
:102970002168CA204862216853204862204601F03D
:10298000C2F84FF0FF084FF0040A00B32068C0F807
:10299000248084F81DA026770120BDE8F08702205E
:1029A000FBE720688068400600D4EE70287801F0CC
:1029B0009FF80204687801F09BF842EA0022A878A8
:1029C00001F096F80243E87842EA0047D0E716485B
:1029D0000740206807602068816821F480218160B9
:1029E000D5E90310014320688268114381602068A3
:1029F000C16821F08001C1602068806880060BD426
:102A0000204600F013F838B12068C0F8248084F81C
:102A10001DA026770120C0E72068C0F8248084F834
:102A20001D9026770020B8E77F7F7F0070B50546B0
:102A30002868C16821F0A001C160FEF7B9FE044614
:102A40004FF47A7606E0FEF7B3FE001BB04201D9E0
:102A5000032070BD2868C0688006F4D5002070BDD2
:102A60007047704770B590F83C20012A2BD00126A2
:102A700080F83C60022280F83D2002685368956827
:102A800023F070040B6823435360104B02689A4292
:102A90000ED0B2F1804F0BD00D4B9A4208D00D4BA7
:102AA0009A4205D00C4B9A4202D00C4B9A4204D168
:102AB00025F080034968194391603C30467000213D
:102AC0000170002070BD022070BD000000000140B8
:102AD0000004004000080040000C0040004001409D
:102AE00010B50446002C03D094F83D0010B107E067
:102AF000012010BD002084F83C00204600F00CF8B6
:102B0000022084F83D00211D206801F0F3F8012027
:102B100084F83D00002010BD08B500680B498842CC
:102B200012D10B48016841F004010160006800F017
:102B300004000090012211461E20FFF7DFF9BDE8D6
:102B400008401E20FFF7CCB908BD00000008004077
:102B500040380240022180F83D1001688A6802F086
:102B60000702062A03D00A6842F001020A60012126
:102B700080F83D10002070470168CA6842F00102E9
:102B8000CA600068816801F00701062903D0016866
:102B900041F00101016000207047022180F83D10E2
:102BA00001680A6A41F211131A4207D10A6A9B109E
:102BB0001A4203D10A6822F001020A60012180F85A
:102BC0003D100020704770B5044694F83C00012881
:102BD00017D0012584F83C50022084F83D0020687D
:102BE000826822F0770222F47F42826008685028CF
:102BF00031D00DDC20284DD005DCB0B310284ED1EB
:102C000048E0022070BD302844D0402847D137E04A
:102C100060282BD0702806D0B0F5805F3FD0B0F58B
:102C2000005F3CD10BE0CB68D1E90121206801F0C5
:102C3000ADF82068816841F0770181602FE0CB68B2
:102C4000D1E90121206801F0A1F82068816841F4F0
:102C50008041816023E0CA684968206801F0A8F8D3
:102C60005021206801F09CF819E013E0CA68496817
:102C7000206801F0AEF86021206801F091F80EE0C4
:102C8000CA684968206801F093F84021206801F083
:102C900087F804E022680146104601F081F83C34D0
:102CA00065700020207070BD704770B504462068C4
:102CB00001694FF00005C943890716D4C168C943AB
:102CC000890712D4E91E01610120207720688069FC
:102CD000800703D02046FFF7E7FF05E0204600F01D
:102CE0009BF8204600F099F8257720680169C943D0
:102CF000490718D4C168C943490714D46FF00401C7
:102D00000161022020772068806910F4407F03D0A1
:102D10002046FFF7C9FF05E0204600F07DF8204679
:102D200000F07BF8257720680169C943090717D4AB
:102D3000C168C943090713D46FF008010161042079
:102D400020772068C069800703D02046FFF7ACFFDA
:102D500005E0204600F060F8204600F05EF8257798
:102D600020680169C943C90618D4C168C943C906A6
:102D700014D46FF010010161082020772068C06929
:102D800010F4407F03D02046FFF78EFF05E0204679
:102D900000F042F8204600F040F8257720680169ED
:102DA000C943C90708D1C168C943C90704D1891EED
:102DB0000161204600F032F820680169C943090624
:102DC00009D4C168C943090605D46FF080010161C7
:102DD0002046FFF745FE20680169C943490609D42A
:102DE000C168C943490605D46FF04001016120461E
:102DF00000F01EF820680169C94389060BD4C16838
:102E0000C943890607D46FF0200101612046BDE85F
:102E10007040FFF726BE70BD7047704700680349D9
:102E2000884201D1FEF7E6BF704700000000014074
:102E30007047704770B5044622681068D1685269BF
:102E400000F00F03002B08D1850606D58D0604D5AA
:102E50002046BDE8704000F0F1BF002B61D002F0C9
:102E6000010301F490751D435BD0C50705D0CD0566
:102E700003D5E56B45F00105E563450705D5D507A5
:102E800003D0E56B45F00205E563850705D5D2075C
:102E900003D0E26B42F00402E263020707D501F0BF
:102EA00020021A4303D0E26B42F00802E263E26BB5
:102EB000002A2BD0800604D5880602D5204600F0D3
:102EC000BDFF20684069C0F38010E16B01F008018C
:102ED000014320D0204600F096FF20684169490652
:102EE00015D5416921F040014161606B58B1164927
:102EF0000165606BFEF75CFB002807D0606B016D1D
:102F0000BDE8704008472046FFF793FF70BD20469C
:102F1000FFF78FFF70BD2046FFF78BFF0020E063B7
:102F200070BD020606D50A0604D52046BDE87040ED
:102F300001F0C2B84006F3D54806F1D52046BDE8F9
:102F4000704000F06EBF0000F73D000870B5044609
:102F5000002C04D094F83900002510B106E00120BF
:102F600070BD84F83850204600F022F8242084F800
:102F700039002068C16821F40051C160204600F08A
:102F8000ABFF2068016921F490410161206841692B
:102F900021F02A0141612068C16841F40051C160FB
:102FA000E563202084F8390084F83A00002070BDE1
:102FB00010B586B00446142101A8FDF751F918494F
:102FC0002068884229D11748016841F0100101604A
:102FD000006800F01000009012481438016841F0B9
:102FE00001010160006800F0010000904FF4C06032
:102FF00001900220029001200390032004900720FA
:10300000059001A90848FEF7F7FA002202212520C1
:10301000FEF774FF2520FEF763FF06B010BD000029
:1030200000100140443802400000024090F83A305D
:10303000202B01D002207047F9B1F2B190F838305E
:10304000012B1CD081628285C2850021C1632222AE
:1030500080F83A2080F838100168CA6842F480721B
:10306000CA6001684A6942F001024A610068C168A9
:1030700041F02001C160002070470120704702200C
:103080007047000030B413490068096888421ED1B7
:10309000114B104C1946D8780A786034511CC9B2CB
:1030A000242805D0232806D02578242D06D007E033
:1030B0001970A05404E00120587001E01970A05468
:1030C0000549012230BCC91C0248FFF7AFBF30BC24
:1030D00070470000880300207A0200202DE9F843A1
:1030E00004460D4690461E4694F83900202802D02A
:1030F0000220BDE8F883D5B1B8F1000F17D094F8DD
:103100003800012815D0012084F838004FF000095C
:10311000C4F83C90212084F83900FEF749FB0746AB
:10312000A4F82480A4F8268084F838902DE00120AB
:10313000DFE70220DDE7E08C401EE084A068B0F508
:10314000805F09D03B46002280212046009600F097
:10315000E6FFB0B10320CCE73B46002280212046A9
:10316000009600F0DCFF08B10320C2E72888216840
:10317000C0F308004860206908B16D1C05E0AD1C73
:1031800003E0216815F8010B4860E08C0028D2D1DB
:103190003B46002240212046009600F0C0FF08B1C7
:1031A0000320A6E7202084F839000020A1E770471B
:1031B00010B500F04EFA012200210FA002F0A0F895
:1031C000012211460FA002F09BF80022022111A05B
:1031D00002F096F80022032110A002F091F80022DC
:1031E000042110A002F08CF80022BDE81040052157
:1031F0000EA002F085B80000496E74656C6C6953CE
:103200007700000057656B2048483A6D6D3A73733C
:103210000000000054454D503A000000514E483A1D
:1032200000000000494C4C553A00000048554D49FB
:103230003A000000FEE701684A69D24352050FD404
:103240006FF480624A61002140F8301F20224273EF
:103250008173026942F00402026101730120704728
:10326000002070472DE9F84F04468B4692461D46D4
:10327000E06A21680A6842F480620A60082808D07F
:10328000012806D010F5803F03D0206B112806D00E
:103290000AE02068016841F48071016004E0206860
:1032A000016841F4807101604FF00118534600221B
:1032B00041462046009500F0DEF84FF4007738B123
:1032C00020680068C00500D527640320BDE8F88F9A
:1032D0002069DFF8A090B0F5804F10D021680BF482
:1032E0004076F02040EAD61008612B46524609F19C
:1032F0000601204600F0FCF840B10120E6E7216815
:103300000BF0FF0040F00100086128E021680BF09D
:10331000FF0008612B4652464946204600F0E8F877
:1033200008B10120D2E720684169816900910168F4
:1033300041F48071016053460022414620460095C9
:1033400000F099F830B120680068C00500D5276406
:103350000320BBE72168F12040EAD61008612B4624
:1033600052464946204600F0C3F808B10120ADE7B7
:103370000020ABE702000100F8B504460D461746F1
:103380001E46E06A082808D0012806D010F5803FC4
:1033900003D0206B122806D00AE02068016841F4AF
:1033A0008071016004E02068016841F4807101606F
:1033B0003B4600224FF001112046009600F05BF8DA
:1033C00040B120680068C00502D54FF40070206449
:1033D0000320F8BD2069B0F5804F0FD005F4407090
:1033E000F02141EAD0102168086133463A460D4980
:1033F000204600F07DF830B10120F8BD216805F0CD
:10340000FE00086102E02168E8B208610549334620
:103410003A46891F204600F06BF808B10120F8BD3C
:103420000020F8BD0800010070B504460D461646A0
:103430000DE02046FFF7FFFE08B1012070BD681CBB
:1034400005D0FEF7B5F9801BA84207D835B1206832
:103450004069C0434007ECD4002070BD002044F810
:10346000300F20216173A073216941F02001216197
:103470002073012070BD2DE9F0470446DDF820904F
:103480000E4690461D46C6F3074708E0681C06D066
:10349000FEF78EF9A0EB0900A8420FD875B1012FF5
:1034A00019D02068806926EA00000004000C1DD0B5
:1034B00000204045EAD00020BDE8F087002044F815
:1034C000300F20216173A073216941F02001216137
:1034D00020730120F0E72068406926EA000000041C
:1034E000000C01D00020E4E70120E2E70120E0E742
:1034F0002DE9F04704460E46154698464FF0000960
:103500004FF0200AC6F3074725E020684069C04312
:10351000400517D42068016841F4007101602168FA
:103520006FF480604861C4F8309084F83DA084F85E
:103530003E90206C40F00400206484F83C90012010
:10354000BDE8F087681C06D0FEF732F9A0EB080052
:10355000A8420BD855B1012F16D02068806926EA01
:1035600000000004000CD0D10020E9E7C4F830903E
:1035700084F83DA084F83E90206C40F02000206448
:1035800084F83C900120DBE72068406926EA0000CF
:103590000004000CE8D0B8E72DE9F04104460D46E0
:1035A000164600274FF0200819E04069C043C006C6
:1035B0000FD421686FF010004861276384F83D80C4
:1035C00084F83E70206C206484F83C700120BDE8D3
:1035D000F081FEF7EDF8801BA84207D835B12068CE
:1035E0004169C9434906E0D40020F0E744F8307F40
:1035F00084F80D80A773206940F0200020612773B4
:103600000120E4E770B504460D4616460DE020465D
:10361000FFF711FE08B1012070BD681C05D0FEF750
:10362000C7F8801BA84207D835B120684069C0435D
:103630000006ECD4002070BD002044F8300F20219B
:103640006173A073216941F0200121612073012081
:1036500070BD70B500244FF4FB750021012000F00F
:1036600055F8641CA4B2AC42F7D970BD10B51A4C21
:10367000012211462046FEF793F80022022120463F
:10368000FEF78EF80A20FDF7A5FF01220221204651
:10369000FEF786F82121002000F038F8C82100202C
:1036A00000F034F80621002000F030F8132100204B
:1036B00000F02CF82021002000F028F8FFF7C9FFC7
:1036C0000C21002000F022F820460022BDE8104026
:1036D0000121FEF765B800000004024010B50A4A57
:1036E00050701170C0F15300C1F105018030C0B2BB
:1036F0004031CCB20146002000F008F82146BDE878
:103700001040002000F002B8000000202DE9F04138
:1037100004460D46234F012211463846FEF740F875
:10372000002201213846FEF73BF82CB1012204218A
:103730003846FEF735F804E0002204213846FEF74B
:103740002FF80024184E002220213046FEF728F8DA
:10375000280605D5012280213046FEF721F804E035
:10376000002280213046FEF71BF80122202130463E
:10377000FEF716F86806050E641CE4B2082CE2D3C6
:10378000002220213046FEF70BF80022802130462F
:10379000FEF706F83846BDE8F04101221146FDF774
:1037A000FFBF000000040240000002402DE9F0438A
:1037B00087B0142102A8FCF753FD00244348016898
:1037C00041F004010160016801F004010191016808
:1037D00041F080010160016801F080010191016800
:1037E00041F001010160016801F0010101910168EE
:1037F00041F002010160006800F002000190344EC7
:103800004FF40055002229463046FDF7C9FFDFF886
:10381000C48000224FF4CD514046FDF7C1FFDFF8D0
:10382000B890002241F217014846FDF7B9FF012286
:1038300042F220214846FDF7B3FF0295012503958A
:103840000494059402A93046FDF7D6FEA02002900C
:10385000039504940326059602A94046FDF7CCFE85
:1038600040F20720029003950494059602A9484669
:10387000FDF7C2FE43F220000290039504940594E4
:1038800002A94846FDF7B8FEB0030290022703974D
:10389000049405960520069002A94846FDF7ACFE63
:1038A0004FF4C850029003950494059402A9404631
:1038B000FDF7A2FE1020029003950494059702A93B
:1038C0004846FDF799FE07B0BDE8F0833038024066
:1038D00000080240000002400004024010B50D48FC
:1038E0000B49016042F21071416000218160C160AA
:1038F0004FF48042026141618161C1610162FDF763
:103900005FFF002803D0BDE81040FDF74DBE10BD9D
:1039100000540040C802002010B509480749016062
:10392000032141604FF4FA618160FEF733FA002809
:1039300003D0BDE81040FDF737BE10BD0030004099
:103940001C03002010B586B0142101A8FCF788FCE8
:10395000002400941D481C49016044607F2181605F
:10396000FF21C160046144618461FEF70FFF08B16B
:10397000FDF71AFE0D208DF804002F208DF80500AC
:1039800037208DF8060004940594002201A90F4801
:10399000FEF7D0FF08B1FDF707FE03208DF8000009
:1039A00001208DF8010014208DF8020015208DF8FB
:1039B0000300002269460548FEF750FF002801D0A9
:1039C000FDF7F2FD06B010BD0028004028030020DE
:1039D00010B586B0002402940394049405940094D6
:1039E0000194144812490160532141601021816003
:1039F0000121C16004618461FFF772F808B1FDF72D
:103A0000D3FD4FF48050029002A90A48FFF7DBF87B
:103A100008B1FDF7C9FD0094019469460548FFF718
:103A200021F8002801D0FDF7BFFD06B010BD000051
:103A3000000800404803002010B50C480A49016006
:103A40004FF4E131416000218160C16001610C22CD
:103A500042618161C161FFF779FA002803D0BDE8B6
:103A60001040FDF7A1BD10BD0010014088030020EB
:103A700000B587B020210D48FCF7F2FB0C4810A1DF
:103A800090ED000B0B488DED040B90ED000B0A48F8
:103A90008DED020B00780090084890ED000B034874
:103AA00053EC102B00F076FB07B000BDC8030020DC
:103AB00070020020600200207802002058020020DE
:103AC00024252E32663A256868753A252E32663AE4
:103AD000252E316623000000FEE77047704701097C
:103AE00001EB8101490000F00F000844C0B27047AB
:103AF000002102E0491C0A38C0B20A28FAD209079C
:103B000040EA1160704770B505462868C1684906EB
:103B100013D44FF0FF31C160FDF74AFE04464FF465
:103B20007A7606E0FDF744FE001BB04201D903207F
:103B300070BD2868C0684006F4D5002070BD000044
:103B400010B58AB000240394049405940694154893
:103B5000FCF791FB1349C21EC91C03A8FCF767FBC5
:103B600007A808A9CDE9001009AB0F4A0FA103A8C7
:103B7000FCF788FB12489DF8241001709DF8201076
:103B800041709DF81C108170C460046101460022E0
:103B90008830FEF7CFFE002801D0FDF705FD0AB002
:103BA00010BD0000E80300208C02002025732025B2
:103BB0006868753A256868753A2568687500000078
:103BC000A002002030B500220021074BC4095D5C33
:103BD00004FB0522D2B24006000E491CC9B20829D6
:103BE000F4D3104630BD00000300002070470000F1
:103BF0000249087001460020FFF770BD0000002058
:103C00007047000030B597B030210BA8FCF728FBB7
:103C1000142106A8FCF724FB142101A8FCF720FBC3
:103C200000252548016841F080510160006800F0DE
:103C3000805000902148016821F4404141F4004146
:103C40000160006800F4404000900D200B904FF49C
:103C500080300C9001200D9010900224119480056A
:103C60001290192013904FF4A8701490042015900E
:103C7000072016900BA8FEF753FB08B1FDF794FC44
:103C80000F200690079408954FF4805009900A95EC
:103C9000022106A8FEF724FA08B1FDF785FC01947D
:103CA0004FF48070049001A8FEF76CF9002801D051
:103CB000FDF77AFC17B030BD40380240007000407C
:103CC0000548016841F47001016003494FF000604C
:103CD000803908607047000088ED00E00148FEF779
:103CE000E4BF0000680400200148FEF7DEBF0000CA
:103CF00048030020F0B502681D4C1E4D1E4E1F4F9C
:103D00004FF0804CA04207D0604505D0A84203D0B8
:103D1000B04201D0B84203D122F070034A681A437E
:103D2000A04210D060450ED0A8420CD0B0420AD0BC
:103D3000B84208D0124B984205D0124B984202D09C
:103D4000114B984203D122F44073CA681A434B695D
:103D500022F080021A4302608A68C2620A688262A4
:103D6000A04201D10969016301214161F0BD000058
:103D7000000001400004004000080040000C00402A
:103D800000400140004401400048014010B58468F3
:103D900024F47F4442EA03220A432243826010BD96
:103DA000826822F070020A4342F007018160704786
:103DB00010B5036A046A24F001040462846924F0E3
:103DC000F00444EA021423F00A020A438461026206
:103DD00010BD10B5036A23F0100303628469036AFF
:103DE00024F4704444EA023223F0A00343EA0111B0
:103DF0008261016210BD10B5806B0021C185C18454
:103E0000FFF717F810BD0168CA6822F49072CA6003
:103E100001684A6922F001024A61202180F83A10C3
:103E2000704710B50168CA6822F04002CA602021BC
:103E300080F83910FFF7BBF9002010BD10B590F8DD
:103E40003A10222901D0022010BD8168B1F5805FAF
:103E500011D0016919B30168496801F07F03816AD3
:103E60004A1C82620B70C18D491E0904090CC18570
:103E70001CD0002010BD816A02693AB10268526804
:103E8000D2B20A80816A491C8162ECE702685268FA
:103E9000C2F308020A80816A891C8162E3E7016833
:103EA0004A68816A4B1C83620A70DCE70168CA6851
:103EB00022F02002CA600168CA6822F48072CA60D7
:103EC00001684A6922F001024A61202180F83A1013
:103ED000FFF7D8F8002010BD2DE9F0410446206816
:103EE0000169E26821F4405111430161A168206930
:103EF000E26901436069104301432068C26849F2E6
:103F00000C639A430A43C26020684169A26921F4A4
:103F1000407111434161E0696549664A192764258A
:103F200032264FF00008B0F5004F32D020689042A2
:103F300001D088427ED1FEF7ADF901466068830F5B
:103F40008200A1FB0701FCF741F90146B0FBF5F047
:103F50006FF01802504301EB800006EB0010B0FB3D
:103F6000F5F000F0F002B1FBF5F002EB0012B1FB4E
:103F7000F5F06FF01803584301EB800006EB0010DA
:103F8000B0FBF5F0216800F00F0010448860BDE838
:103F9000F0812068904201D088422CD1FEF77AF956
:103FA000014660680218A1FB070148EB0803FCF713
:103FB0000DF90146B0FBF5F00201B1FBF5F06FF031
:103FC0001803584301EB800006EBC000B0FBF5F08E
:103FD00000F0F80002EB4002B1FBF5F0584301EBB2
:103FE000800006EBC000B0FBF5F0216800F0070090
:103FF00010448860CBE7FEF73DF90146606802187F
:10400000A1FB070148EB0803FCF7E0F80146B0FB11
:10401000F5F00201B1FBF5F06FF01803584301EB26
:10402000800006EBC000B0FBF5F000F0F80002EBFA
:10403000400200E00EE0B1FBF5F0584301EB8000D8
:1040400006EBC000B0FBF5F0216800F0070010445B
:1040500088609CE7FEF70EF901466068830F8200D6
:10406000A1FB0701FCF7B2F80146B0FBF5F06FF0D9
:104070001802504301EB800006EB0010B0FBF5F096
:1040800000F0F002B1FBF5F002EB0012B1FBF5F02D
:104090006FF01803584301EB800006EB0010B0FBF3
:1040A000F5F0216800F00F00104488606FE7000011
:1040B000001401400010014090F83910212901D06E
:1040C000022070478168B1F5805F0CD0016A4A1CFC
:1040D0000262026809785160C18C491E0904090C0A
:1040E000C18410D019E0016A02680988C1F308018F
:1040F0005160016919B1016A491C0162ECE7016A6A
:10410000891C0162E8E70168CA6822F08002CA607F
:104110000068C16841F04001C160002070472DE98E
:10412000F04104460E4617469846069D1DE0681C61
:104130001BD02DB1FDF73CFBA0EB0800A84214D921
:104140002068C16821F4D071C1602068416921F004
:1041500001014161202084F8390084F83A000020F0
:1041600084F838000320BDE8F0812068006836EA52
:10417000000004D00020B842D9D00020F3E701208D
:10418000F9E700000148FEF755BE00008803002053
:10419000FEE700000FB4084B10B504A902AA03986B
:1041A00000F0DEF8044602A9002000F070FC204672
:1041B00010BC5DF814FB00008F4A00080907090EC7
:1041C000002804DB00F1E02080F80014704700F0C4
:1041D0000F0000F1E02080F8141D704702E008C8CD
:1041E000121F08C1002AFAD170477047002001E071
:1041F00001C1121F002AFBD1704700002DE9FF5FAB
:10420000DDE90220010DDDF838B0024318D044F694
:104210001050A1F2FF3141430D140F98012820D016
:10422000A5EB0B00401C5FEA000A4FF00004474E6C
:10423000DFF81C91A046504616D5CAF1000728E0C9
:104240000F98012443A2012808D0002100980F9B59
:10425000C0E90021C0E90243BDE8FF9F6FEA0B01FE
:10426000F4E7CBF10000DEE7074612E0F80707D0DD
:104270002246334640464946FCF7DDF980468946EA
:104280002246334610461946FCF7D5F904460E4639
:104290007F10002FEAD1DDE90201BAF1000F42469A
:1042A0004B4602DAFCF7C7F901E0FCF736FA0446A0
:1042B0000E460022284BFCF7D5FB03D84FF0FF3009
:1042C000014607E00022254B20463146FCF70CF959
:1042D000FCF7AFFB102409E0002C0ADB0A220023C4
:1042E000FBF774FF019B30321A55641E50EA01023D
:1042F000F2D1641C019AC4F1110314440F9A012AEB
:1043000003D0012208430DD10AE0084304D0002065
:104310004FF0110B0F9080E7A3EB0B056D1E0DE026
:104320005B4504DD4FF0000205F1010504E003DA0E
:104330004FF00002A5F10105002AECD000980F997A
:10434000C0E90231C0E9004586E7000000002440D2
:104350000000F03F300000000000F0430000E03FAC
:104360002DE9FF4F95B09B468946064600250FE292
:10437000252877D100242746F84A0121059400E03A
:10438000044316F8013F203B01FA03F01042F7D135
:1043900030782A2811D06FF02F033078A0F1300246
:1043A000092A16D8059A44F0020402EB820203EBB4
:1043B00042021044761C0590EFE759F8042B059251
:1043C000002A03DA504244F40054059044F00204F9
:1043D000761C30782E2816D116F8010F44F004040C
:1043E0002A280DD06FF02F023078A0F13003092B6E
:1043F00009D807EB870302EB4303C718761CF3E7E2
:1044000059F8047B761C30786C280FD006DC4C28D9
:1044100017D068280DD06A2814D104E0742810D071
:104420007A280FD10DE044F400140AE044F480141B
:1044300001E044F440147278824202D104F5801401
:10444000761C761C307866280BD013DC582877D081
:1044500009DC002875D04528F6D04628F4D0472836
:104460001AD19DE118E0632835D0642879D06528F9
:1044700012D195E1702873D008DC6728F1D0692843
:104480006FD06E280DD06F2806D1B5E073282CD0E0
:10449000752875D0782874D05A46179990476D1CA6
:1044A00075E1C4F30250022809D003280DD0D9F8D1
:1044B000001004280DD00D6009F1040967E1D9F856
:1044C0000010EA17C1E90052F6E7D9F800100D8094
:1044D000F2E70D70F0E719F8041B8DF800100020CA
:1044E0008DF80100EA46012003E059F804AB4FF0D3
:1044F000FF3061074FF0000102D40DE008F1010127
:104500008846B9420FDA8045F8DB1AF8081000290E
:10451000F4D108E008F1010188468142FADB1AF87B
:1045200008100029F6D105985B46A0EB0807214644
:104530003846179A00F094FA284400EB080507E083
:104540004DE029E10DE01AF8010B5A461799904702
:10455000B8F10108F7D25B4621463846179A13E1B5
:1045600042E00A220092C4F302524FF0000A022AEB
:1045700008D059F804CB032A4FEAEC710AD00DE0B9
:1045800029E02AE009F1070121F00702F2E802C15F
:10459000914609E00FFA8CFC4FEAEC71042A03D132
:1045A0004FFA8CFC4FEAEC71002907DA0A46002129
:1045B000DCF1000C61EB02012D2202E0220504D5A2
:1045C0002B228DF80420012203E0E20701D02022F3
:1045D000F7E7904659E00A2102E010220DE0102191
:1045E0004FF0000A00910BE010224FF0000A44F057
:1045F00004040827009203E008224FF0000A00920A
:10460000C4F30252022A05D059F804CB0021032A30
:1046100008D009E009F1070121F00702F2E802C120
:10462000914605E01FFA8CFC042A01D10CF0FF0C26
:104630004FF00008220728D5702806D0009B83F091
:10464000100353EA0A0305D00EE040228DF804203F
:10465000012208E05CEA010206D030228DF8042035
:104660008DF8050002229046009B83F0080353EA70
:104670000A030AD15CEA010201D1620705D53022A2
:104680008DF804204FF001087F1E582804D034A074
:1046900003900EA802900DE036A0F9E7534660465D
:1046A000009AFBF793FD84460398825C0298401EB3
:1046B000029002705CEA0100F0D1029806A9081A83
:1046C00000F1200A600702D524F4803400E00127BD
:1046D000574502DDA7EB0A0000E0002000EB0A01CD
:1046E000009005984144401A0590E00306D45B46CB
:1046F0002146179A059800F0B3F90544002706E013
:1047000001A85A46C05D179990476D1C7F1C47450C
:10471000F6DBE0030CD55B462146179A059800F0BE
:104720009FF9054404E030205A46179990476D1CC4
:104730000099481E00900029F5DC08E002980299D3
:104740005A460078491C0291179990476D1CBAF19E
:104750000001AAF1010AF1DC65E10000092801006D
:1047600030313233343536373839616263646566E7
:1047700000000000303132333435363738394142A9
:10478000434445460000000000F058F90544761CFB
:10479000307800287FF4ECAD19B02846BDE8F08FE2
:1047A000620700D4062709F1070222F0070CFCE893
:1047B0000223E14603F000485FEA080C02D00FF242
:1047C000702C0DE05FEA045C02D50FF2682C07E064
:1047D0005FEAC47C02D00FF2602C01E0AFF2700CF3
:1047E0004FF0FF3823F00043CDF850C065280CD0BF
:1047F00006DC452809D046281DD047283DD13DE09C
:10480000662818D067287ED138E00021112F01DBFF
:10481000112000E0781CCDE9000106A90EA8FFF7E1
:10482000EDFCDDE90F010E9A03910021009207F1E2
:10483000010A04914DE04FF000400097CDE90110CE
:1048400006A90EA8FFF7DAFCDDE90F0203920E9B22
:1048500011990022DDF80CA00093049211B9791C83
:1048600000EB010AB7EB0A0004D4C0F1FF3007F1F6
:10487000010A0490AAEB0700019044E0012F00DA3E
:1048800001270021112F01DD112000E03846CDE97C
:10489000000106A90EA8FFF7B1FCDDE90F010E9A91
:1048A0000391002104910092BA4621070CD4039988
:1048B000514500DA8A46BAF1010F05DD009AAAF1E6
:1048C0000101515C302908D0B84202DA10F1040F1E
:1048D00006DA0121CDE9011015E0AAF10101E9E7AD
:1048E000002805DC049901440491AAEB000102E0D0
:1048F000411C514500DD8A460499401A401C019034
:104900004FF000400290200704D40198504501DB8D
:10491000CDF8048000208DF84F0002980DF14F076C
:10492000B0F1004F25D02B200E9002984FF00208D6
:1049300000280CDA404202902D200E9007E00A2158
:104940000298FBF78FFF3031029007F8011DB8F194
:104950000001A8F10108F2DC02980028EFD1791ECD
:104960000E980870307800F0200040F0450007F8FD
:10497000020D12A8C01B00F107081498007800B1BE
:10498000012000EB0A01019801EBE0710598414418
:10499000401A401E0590E00306D45B462146179A54
:1049A000059800F05DF805441498007818B15A464F
:1049B000179990476D1CE00324D55B462146179A52
:1049C000059800F04DF805441CE00498002807DB2A
:1049D000DDE90301884203DD0098405C179901E09E
:1049E000179930205A469047049805F10105401C5C
:1049F00004900198401E019004D12E205A46179928
:104A000090476D1CBAF10001AAF1010ADDDC05E056
:104A100017F8010B5A46179990476D1CB8F1000121
:104A2000A8F10108F4DC5B462146179A0598ABE62D
:104A30002D0000002B000000200000002DE9F041B7
:104A4000044600251E461746880404D405E039466E
:104A50002020B0476D1C641EF9D52846BDE8F081C2
:104A60002DE9F041044600251E469046C80301D5B5
:104A7000302700E02027880404D505E04146384669
:104A8000B0476D1C641EF9D52846BDE8F0810A6860
:104A9000531C0B601070704730B587B02320069010
:104AA000002405940A25012306AAB8211948009577
:104AB000FDF798F8022305AAB82116480095FCF7DF
:104AC0004BFF9DF815009DF8141040EA0120FBF7FC
:104AD000A4FE9FED111B53EC112BFBF71EFE41ECC6
:104AE000100B0F4880ED000B019402940394049482
:104AF00053EC102B0BA101A8FFF74CFB0D480078DD
:104B0000002804D10022042101A800F0F9FB07B01D
:104B100030BD0000C8020020333333333333F33F5A
:104B200070020020494C4C553A252E3166206C7895
:104B3000000000007E02002011B583B0FF2002902B
:104B40000A24012303AAEC210A480094FDF74AF83D
:104B5000012302AAEC2107480094FCF7FDFE28B1CE
:104B60000448FCF72BFEC0B204B010BD9DF808004D
:104B7000FAE70000C80200201CB58DF804008DF88B
:104B800005100A200090022301AAEC210148FDF73C
:104B900029F81CBDC802002070B52DED0A8B84B029
:104BA0009B4C9FED9CBB9FED9DCBF720FFF7C4FF77
:104BB0000546F820FFF7C0FF0646F920FFF7BCFFC7
:104BC000290341EA061141EA10159FED960B53ECBB
:104BD000102B94ED0C0B51EC100BFBF72CFD9FED03
:104BE000931B53EC112BFBF720FD41EC180BB4F990
:104BF0001200FBF701FE41EC190B53EC182B51ECA2
:104C0000180BFBF718FD53EC192BFBF714FD53ECB5
:104C10001B2BFBF710FD41EC190BB4F91000FBF74F
:104C2000EBFD53EC182BFBF706FD9FED821B53ECBD
:104C3000112BFBF700FD53EC192BFBF755FC41EC56
:104C40001A0BB4F90E00FBF7D7FD9FED7C1B53EC5C
:104C5000112BFBF7F0FC41EC190B9FED7A0B51EC9B
:104C60001A0B53EC102BFBF7E6FC53EC192BFBF75C
:104C70003BFC41EC190BB4F90A00FBF7BDFD53EC0A
:104C8000182BFBF7D8FC41EC1A0BB4F90C00FBF71E
:104C9000B3FD53EC182BFBF7CEFC53EC182BFBF7B2
:104CA000CAFC9FED6A8B53EC182BFBF7C4FC53EC4A
:104CB0001A2BFBF719FC53EC182BFBF7BCFC41EC4F
:104CC0001A0B2089FBF7A9FD41EC180B53EC1B2BA9
:104CD00051EC1A0BFBF7AFFC9FED5E1B53EC112B55
:104CE000FBF702FC53EC182BFBF7A5FC41EC180B6F
:104CF00053EC1C2B51EC180BFBF79CFD05D184EDFC
:104D00000ACB04B0BDEC0A8B70BD2846FBF774FDDE
:104D10009FED521B53EC112BFBF78AFC41EC1A0B55
:104D20009FED500B51EC190B53EC102BFBF783FC50
:104D300053EC1A2BFBF77CFC9FED4C1B53EC112B17
:104D4000FBF779FC53EC182BFBF7E7FC41EC180B55
:104D5000B4F91800FBF750FD53EC182BFBF76BFC74
:104D600053EC182BFBF767FC9FED421B53EC112B08
:104D7000FBF761FC41EC190BB4F91600FBF73CFDA5
:104D800053EC182BFBF757FC53EC1B2BFBF753FC96
:104D900041EC1B0BB4F91400FBF72EFD41EC1A0B90
:104DA00053EC1B2B51EC190BFBF79EFB53EC1A2B0E
:104DB000FBF79AFB9FED311B53EC112BFBF73BFCF0
:104DC00053EC182BFBF790FB41EC100B84ED0A0B16
:104DD000002000900190029003909FED2A1B51EC5F
:104DE000100B53EC112BFBF798FC41EC100B27A197
:104DF00053EC102B6846FFF7CDF9284800780028BF
:104E00007FF47FAF00220321684600F079FA78E74B
:104E100038020020000000000000003F00000000F9
:104E200000000000000000000000E03F0000000063
:104E30000040EF40000000000000004000000000C3
:104E40000000F040000000000000D03F0000000023
:104E50000000C03E000000000000F03F0000000025
:104E600000003041000000000000303F0000000062
:104E7000006AB840000000000000003E0000000092
:104E80000000B03F0000000000005940514E482093
:104E90003A252E3266685061000000007E02002034
:104EA0002DE9F0412DED0A8B84B0FA20FFF744FE86
:104EB0000446FB20FFF740FE0546FC20FFF73CFEC2
:104EC000210341EA051141EA10164E4CB4F90400E1
:104ED000FBF792FC41EC180B6088FBF79EFC0F4639
:104EE00005469FED491B53EC112BFBF7A4FB41EC4E
:104EF000190B3046FBF780FC884606469FED441BA5
:104F000053EC112BFBF797FB53EC192BFBF78DFBA5
:104F100053EC182BFBF78FFB41EC180BB4F9060090
:104F2000FBF76AFC47EC105B9FED3BBB41EC190BB8
:104F300053EC1B2B51EC100BFBF77DFB48EC106B7B
:104F40009FED37CB41EC1A0B53EC1C2B51EC100BA3
:104F5000FBF771FB53EC1A2BFBF767FB47EC105B7D
:104F600041EC1A0B53EC1B2B51EC100BFBF763FBC2
:104F700048EC106B41EC1B0B53EC1C2B51EC100B51
:104F8000FBF759FB53EC1B2BFBF74FFB53EC1A2B96
:104F9000FBF751FB53EC192BFBF74DFB41EC100BCE
:104FA00051EC180B53EC102BFBF79EFA0B46024604
:104FB000C4E90C0143EC102B9FED1B1B51EC100BB3
:104FC00053EC112BFBF7A9FB41EC100B84ED080B04
:104FD0000020009001900290039053EC102B14A13C
:104FE0006846FFF7D7F816480078002804D1002259
:104FF0000221684600F084F904B0BDEC0A8BBDE8DC
:10500000F081000038020020000000000000503F46
:10501000000000000000103F000000000000203FE2
:10502000000000000000E03E000000000000B4406E
:1050300054454D503A252E3266202743200000006B
:105040007E02002070B5B621E020FFF795FD01201B
:10505000FCF7C0FAD020FFF76FFD414C2070FF2114
:10506000F420FFF789FD2021F520FFF785FD88203A
:10507000FFF762FD05468920FFF75EFD45EA002047
:1050800060808A20FFF758FD05468B20FFF754FD0E
:1050900045EA0020A0808C20FFF74EFD05468D20BC
:1050A000FFF74AFD45EA0020E0808E20FFF744FD2F
:1050B00005468F20FFF740FD45EA00202081902023
:1050C000FFF73AFD05469120FFF736FD45EA00203F
:1050D00060819220FFF730FD05469320FFF72CFDFD
:1050E00045EA0020A0819420FFF726FD0546952083
:1050F000FFF722FD45EA0020E0819620FFF71CFD26
:1051000005469720FFF718FD45EA002020829820E9
:10511000FFF712FD05469920FFF70EFD45EA002036
:1051200060829A20FFF708FD05469B20FFF704FDEB
:1051300045EA0020A0829C20FFF7FEFC05469D204A
:10514000FFF7FAFC45EA0020E0829E20FFF7F4FC1E
:1051500005469F20FFF7F0FC45EA0020208370BD44
:105160003802002010B5094980B20882C880084C76
:10517000401C20600748FDF7EDFC20680028FCD1AA
:10518000BDE810400348FDF708BD00007A0200208A
:1051900024080040480300202DE9F04389B0074669
:1051A00000243846FBF767F8C6B20025059506953A
:1051B00007950895DFF8DC800DF114090E2E3DD817
:1051C00020220E2105A8FBF744F804E0385D09F819
:1051D0000400641CE4B2B442F8D3002298F8021030
:1051E00005A800F08DF898F80200062805D0401CAC
:1051F00088F8020009B0BDE8F08388F80250F9E7AA
:1052000039190E2205A8FBF712F8002298F80210AF
:1052100021A000F075F8002298F8021005A800F00F
:105220006FF898F80210062918D0491C88F8021067
:1052300005950695079508950E34E4B2301B0E28A7
:10524000DEDC321B391905A8FAF7F1FF20220E2106
:1052500001A8FAF7FEFF002001A907E088F8025034
:10526000E6E719F800200A54401CC0B2B042F8D357
:10527000002298F8021005A800F042F898F8020001
:10528000062803D0401C88F80200B3E788F80250D3
:10529000B0E7000000000020202020202020202057
:1052A000202020202020000070B50446257804E04E
:1052B00014F8015B284600F003F8002DF8D170BD0A
:1052C00070B5FCF772F900240C4D00EB400005F1BD
:1052D0000B0101EB400629786878FEF7FFF9305D95
:1052E000FEF770FC01460120FEF710FA6878401CBA
:1052F0006870641CE4B2062CEDD370BD0000002081
:105300002DE9F04106460F4614463046FAF7B3FF42
:10531000C5B2012C03D0A4B1022C16D01BE0384634
:10532000FEF766FC0024C5F10E0000EBD07504E02A
:105330002020FFF7C5FF641CE4B2B4EB650FF7DB78
:1053400009E03846FEF754FC05E0C5F10D00C0B297
:105350003946FEF7C3F93046BDE8F041FFF7A4BF78
:10536000FCF750FDFEF74EFCFEF720FAFEF764FB5B
:10537000FEF7B4FAFEF7E6FAFEF72AFB01223649F9
:105380003648FDF753FE4FF44870FCF723F9FEF75B
:105390006DF9FBF7F7FFFFF755FEFDF709FFC82092
:1053A000FCF718F9FEF7B8FA2B4CDFF8B4800025AB
:1053B0004FF400574FF4E176E41E2089032806D30A
:1053C000FFF76EFDFFF7E8FBFFF766FB2581642022
:1053D000FCF700F96089082802D3FBF70FFE65810E
:1053E000A08905280CD3A07820B139464046FCF7A7
:1053F000CEF904E0012239464046FCF7D1F9A581F7
:10540000E089B04206D3FEF733FB14484030FCF786
:10541000BBF8E5816078012808D1FBF793FE657041
:1054200025700E4880216030FAF71AFF207908B9FC
:10543000FBF74CFF6089401C6081E089401CE081E3
:10544000A089401CA0812089401C208103486C3821
:10545000FCF7C9FCB1E700007D02002088030020B2
:1054600000080240000000000000000001020304E8
:10547000060708090000000001020304DDDDDDDD90
:10548000DCBBBBDDDDDDDDDDDDDDDDDD98888888D5
:10549000888888887777777777888888855555567C
:1054A00066666666666666666668888883333332D3
:1054B00022222222222222222228888DDC54000845
:1054C00000000020A0020000180E0008B8560008D6
:1054D000A002002008140000EC41000831900901EE
:1054E00002040810204080422F1A0702111B147F6B
:1054F000021116242A7F2A12166264081323263604
:1055000049552250430503341C22411C41221C2AC8
:1055100015083E08141A0806320823A0602A08015C
:10552000211A600B11162010080402263E5149452D
:105530003E1C427F40051561514946162141454BAD
:1055400031161814127F10162745454539163C4A66
:105550004949301C01710962163649494936260607
:105560004949291E4336362A56062B0814782A1430
:1055700001297E13140816020151090616324959F1
:10558000513E167C1211127C3A7F3C163E4141413D
:10559000221A7F053A1C1212411E7F0909090118BF
:1055A0001449497A1A7FA11A7F421A7F4E1E204061
:1055B000413F0112295B1B7F400111167F020C0243
:1055C0007F3E7F0408107F483A3E3C1A060C1C516F
:1055D000215E0C141929461A465412311601017F16
:1055E00001011A3F35123F1E1F2040201F0C1A38A0
:1055F0000C16631408146316070870080719EF23C4
:105600004543198B211B552A0219781A417D16042E
:105610000201020429712240290B1116205454540E
:1056200078167F484444382E3844444420061348B2
:105630007F1A3818121816087E0901021D18A4A432
:10564000A4E425080404781B447D3B1D4080847D30
:105650005F341028441B417F121C7C04181E3A7CC6
:10566000242948123816FC242424181A18053AFC58
:105670001812081A4854122016043F444020163CC1
:105680004040207C1A1CC01A1C0C1430403C2B4497
:10569000284F161CA0A0A07C3F4464544C44140125
:1056A000014952011203120812051AC20D3C576536
:0856B000641482101324F400BD
:040000050800019559
:00000001FF
