:020000040800F2
:10000000D81B0020A9010008734E000831450008E4
:10001000714E00087D0F00084155000800000000E7
:10002000000000000000000000000000854F0008F4
:100030000D13000800000000754E0008994F0008DD
:10004000C3010008C3010008C3010008C301000880
:10005000C3010008C3010008C3010008C301000870
:10006000C3010008C3010008C3010008C301000860
:10007000C3010008C3010008C3010008C301000850
:10008000C3010008C3010008C3010008000000000C
:10009000000000000000000000000000C301000894
:1000A000C301000875500008C3010008C30100081F
:1000B000C3010008815000088D500008C3010008EA
:1000C000C3010008C3010008C3010008C301000800
:1000D000C30100082955000835550008000000003C
:1000E000C3010008C3010008C301000800000000AC
:1000F000000000000000000000000000C301000834
:1001000000000000C3010008C3010008C30100088B
:1001100000000000000000000000000000000000DF
:10012000C3010008C3010008C3010008C30100089F
:10013000C3010008000000000000000000000000F3
:10014000000000000000000000000000C3010008E3
:10015000C3010008C3010008C3010008C30100086F
:10016000C3010008C30100080000000000000000F7
:10017000000000000000000000000000000000007F
:1001800000000000C30100080000000000000000A3
:10019000C3010008DFF80CD000F09EFC00480047C7
:1001A000FD660008D81B0020064880470648004727
:1001B000FEE7FEE7FEE7FEE7FEE7FEE7FEE7FEE717
:1001C000FEE7FEE759500008950100082DE9F05FB1
:1001D0000546002092469B468846064681464024B6
:1001E0001BE0284641464746224600F082FB534624
:1001F0005A46C01A914110D311461846224600F0C3
:1002000069FB2D1A67EB01084F46224601200021A9
:1002100000F060FB17EB00094E41201EA4F1010421
:10022000DFDC484631462A464346BDE8F09F40EAB7
:1002300001039B0703D009E008C9121F08C0042A64
:10024000FAD203E011F8013B00F8013B521EF9D24B
:100250007047D2B201E000F8012B491EFBD2704773
:100260000022F6E710B513460A4604461946FFF782
:10027000F0FF204610BD421C10F8011B0029FBD1E5
:10028000801A704770B50F4D00B92868002412E03D
:100290000A4602E09E4203D0521C1378002BF9D18B
:1002A000DAB2224305D02BB124B1002100F8011BA2
:1002B00004E00446401C0678002EE9D12860204660
:1002C00070BD0000040300200FB400B58DB010A96C
:1002D00009900B9000914FF0FF300A9000200C9095
:1002E00005480690054807906A4609A80F9900F04E
:1002F00037FB0DB05DF814FB7D0900089B09000871
:100300002DE9FF5F1D464FF0FF3BD5E901469146C1
:100310005F464FF00008A9697F1C01988847296A49
:10032000824688470028F6D1BAF1FF3F0CD024F46A
:10033000C064002E19DD600614D5BAF12B0F09D068
:10034000BAF12D0F0ED103E0584604B0BDE8F09F7E
:1003500044F48064A9697F1C01988847761E824610
:10036000002E02DDBAF1300F03D0B9F1000F26D014
:1003700032E0A969761E44F400747F1C0198884716
:100380008246002E05DDBAF1780F06D0BAF1580F7B
:1003900003D0B9F1000F10D01EE0B9F1000F02D068
:1003A000B9F1100F18D1A969761E24F400747F1CCE
:1003B000019888478246102002E0082000E00A20C9
:1003C000814609E008FB0908A969761E44F4007417
:1003D0007F1C019888478246002E05DD494650461D
:1003E00000F0A9FA0028EDDAE96901988847A0052C
:1003F00002D46FF00100A8E7E00725D1600613D50D
:10040000600502D5C8F1000000E0404629680A1DD9
:100410002A600968220501D5087015E0220701D578
:10042000088011E008600FE02868011D296000685D
:10043000210502D580F8008006E0210702D5A0F84A
:10044000008001E0C0F8008038467EE72DE9FF5FBC
:10045000D2E901A74FF00008916999461446DDF8EA
:1004600038B0464601988847054659EA0B0005D042
:1004700009E0A169761C019888470546216A28464B
:1004800088470028F5D1681C03D05FEACA7005D000
:1004900015E04FF0FF3004B0BDE8F09F2068011D6B
:1004A0002160D0F800800AE05FEACA7001D108F844
:1004B000015BA169761C7F1E019888470546002FC5
:1004C0001ADD681C18D0B9F1000F0DD0E81705EB44
:1004D000D060421120F01F0059F822102A1A012082
:1004E00090400142E0D107E0BBF1000FDCD1216A6E
:1004F000284688470028D7D0E16901988847BBF192
:10050000000F07D1002E05DD5FEACA7002D100217D
:1005100088F80010A068B84203DDBBF1000F03D0DB
:1005200017B16FF00100B6E73046B4E72DE9FE4F92
:10053000804681EA0300C00F0C46009021F0004184
:1005400023F00045B8EB0200A94105D24046214600
:1005500090461C460B46024623F00040104347D00D
:10056000270DC7F30A00C3F30A510290401A019005
:1005700040286BDAC3F3130040F4801B00989246C6
:1005800020B10023D2EB030A63EB0B0B0198594611
:10059000C0F14002504600F09DF906460D46504617
:1005A0005946019A00F0B5F910EB080061410024AA
:1005B00087EA115284EAE7731A4340D0009A62B383
:1005C000019A012A4FEA075215DC001B61EB020178
:1005D0004FF0004202EA0752CDE90042001C41F50B
:1005E000801132462B4600F0F8F903B0BDE8F08FD9
:1005F00040462146F9E7001B61EB0201001C41F572
:10060000801300185B412018A2F5001747EB030187
:1006100040EAD570B6196D4111E06D084FEA360613
:1006200045EAC0754FEA0752001B61EB0201001C4E
:1006300041F5801149084FEA300000195141324616
:100640002B4603B0BDE8F04F00F0B8B90098012286
:1006500040000023D0EB020263EBE07300982146D8
:100660004FEAE074B8EB000061EB0401E9E783F0C6
:1006700000435BE781F0004158E72DE9FE4F81EA36
:10068000030404F0004421F0004100944FF0000BFB
:1006900023F0004350EA01045ED052EA03045BD029
:1006A000C3F30A54C1F30A552C44A4F2F334019461
:1006B000A0FB0254C1F3130141F48011C3F31303EF
:1006C00043F4801301FB024400FB034E840A970AA3
:1006D00044EA815447EA8357A4FB076802958D0AD0
:1006E00005FB07854FEA932C04FB0C542705029D5C
:1006F0004FEA065847EA1637B5EB08056EEB070CCC
:10070000870E920E47EA811742EA8312A7FB020185
:10071000B6EB0B0164EB00042B0D43EA0C335E18BF
:1007200044EB1C50DA465146E7FB0201C5F31304C3
:100730004FEA0B3343EA14534FEA0432019C43EA75
:100740000603A4F10C040294009CCDE900B400F06F
:1007500044F903B0BDE8F08F00200146F9E72DE928
:10076000F04D81EA030404F0004B21F000451446EB
:100770004FF0000A23F0004150EA050220D054EA6D
:1007800001021DD0C5F30A570246C5F31303C1F396
:100790001300C1F30A5640F4801543F48013A7EB0D
:1007A0000608101BD64608F2FD3873EB050002D38D
:1007B00008F1010801E092185B41B8F1000F03DA7B
:1007C00000200146BDE8F08D00204FF48011064660
:1007D00084460EE0171B73EB050705D3121B63EB72
:1007E000050306434CEA010C49084FEA3000921811
:1007F0005B4150EA0107EDD152EA030012D082EAD0
:10080000040083EA0501084305D0101BAB4106D262
:100810000122002306E000224FF0004302E06FF0C7
:10082000010253101AEB06004CEB085110EB0A00C2
:1008300041EB0B01BDE8F04D00F0C0B80EB5C10FA3
:1008400080EAE0700844CA07002140F233438DE893
:100850000E000A460B4600F0C0F803B000BD0EB50E
:1008600040F2334102910021CDE900110A460B46C6
:1008700000F0B3F803B000BD30B5041E71F1000400
:1008800004DB4FF00044404264EB0101141E73F19D
:10089000000405DB1C464FF00043524263EB0403A7
:1008A0008B4208BF824230BD30B50B460146002066
:1008B0002022012409E021FA02F59D4205D303FA22
:1008C00002F5491B04FA02F52844151EA2F10102A3
:1008D000F1DC30BD202A04DB203A00FA02F10020CE
:1008E00070479140C2F1200320FA03F3194390406E
:1008F0007047202A04DB203A21FA02F000217047D9
:1009000021FA02F3D040C2F1200291400843194677
:100910007047202A06DBCB17203A41FA02F043EA5F
:10092000E07306E041FA02F3D040C2F120029140A8
:100930000843194670473A2800D2303820F0200288
:10094000412A01D3A2F13700884201D34FF0FF3092
:100950007047000002681144137801601846704720
:10096000D1600449516104491162002111611146AD
:1009700000F0CAB855090008FD0A0008426842B1F3
:10098000016811F8013B23B1521EC0E9001218465C
:1009900070470121C160881E704742685AB1C36820
:1009A000016843B983688B4205D0491E521CC0E9D7
:1009B0000012002070474FF0FF30704710B5141E32
:1009C00073F1000408DA401C41F1000192185B4108
:1009D0001A4301D120F0010010BD2DE9F04D9246DF
:1009E0009B4611B1B1FA81F202E0B0FA80F22032F6
:1009F0009046FFF76FFF04460F4640EA0A0041EABF
:100A00000B0153465A46084313D0114653EA0100DE
:100A100019D0C8F140025046FFF76BFF05460E465D
:100A2000504659464246FFF755FF084305D001207E
:100A300004E020463946BDE8F08D0020054346EA33
:100A4000E0762C4337430A986305E40AA0EB0800DC
:100A50000022FD0A44EA47540A3002D5002001462C
:100A6000E9E7010510196941DDE908450019694107
:100A7000BDE8F04DA2E7C1F30A52C1F3130140F201
:100A8000FF3341F480119A4202DA00200146704798
:100A900040F233439A42A2F2334202DC5242FFF761
:100AA00028BFFFF717BF000030B5041E71F1000426
:100AB00004DB4FF00044404264EB0101141E73F16B
:100AC000000405DB1C464FF00043524263EB040375
:100AD000994208BF904230BD064C074D06E0E068E1
:100AE00040F0010394E8070098471034AC42F6D375
:100AF000FFF754FBBC800008DC800008C0B24FF454
:100B0000F05100F097B900002DE9F34F8BB04FF092
:100B1000000801F10C000C464FF0010B46460DF1A8
:100B2000080A0190626901210198904705002DD0C3
:100B3000252D2CD0216A8847C0B162690121019816
:100B40009047216A88470028F7D1411E62690198C1
:100B5000904700E0761CA1690B988847216A884776
:100B60000028F7D1E1690B988847DBE7A1690B986A
:100B700088470746A84201D1761CD3E7E1690B9864
:100B800088477F1C02D1B8F1000F6FD046E10027E3
:100B900062693D463946019890472A2804D1626926
:100BA0000121019890470125DFF8849262690121B3
:100BB00001989047A0F130010A290AD24F45E5DC9F
:100BC00007EB870100EB4107303FDFD445F010050C
:100BD000ECE7E90601D46FF000476C280AD04C28F6
:100BE00014D0682815D06A280DD074281CD07A2813
:100BF0001AD01DE062690121019890476C2802D04B
:100C000045F0040514E045F002050DE045F020052F
:100C10000AE06269012101989047682802D045F0F6
:100C2000080505E045F400656269012101989047D7
:100C3000C4E9015765283DD019DC58287AD00CDC6E
:100C4000452837D004DC252826D0412831D131E091
:100C500046282FD047282CD12CE05B2877D061285C
:100C600028D063287CD0642823D15AE0D0E06F28B4
:100C700048D008DC66281DD067281BD0692821D001
:100C80006E2816D127E0702845D0732868D07528C3
:100C900047D078280DD14DE0A1690B9888470546CB
:100CA00025283FF469AFE1690B9888476D1C3FF434
:100CB0006AAFB3E023466A466FF001000B99AFF3C9
:100CC00000809EE045F040006060A80723464FF09A
:100CD000000236D43EE0E8077FF447AF2068011DEC
:100CE00021600068290501D506701BE7290701D599
:100CF000068017E7A90703D5F117C0E9006111E7DE
:100D000006600FE745F040006060A80723464FF0FB
:100D1000080216D41EE040F60E0125EA01006060CC
:100D200016E045F040006060A80723464FF00A0235
:100D300007D40FE045F040006060A80708D52346BF
:100D400010226FF001000B99AFF3008059E007E02B
:100D5000234610226FF001000B99FFF7D1FA50E003
:100D60004FF000094F464B46632802D05B2806D05F
:100D700040E0E80601D40120A06001273AE0626962
:100D80000121019890475E2805D14FF00109626961
:100D9000494601989047216939B900210A465346CE
:100DA00043F82120491C0829FADBB0B3216969B94D
:100DB000C11700EBD16253110AEB830122F01F022D
:100DC000821A01200B68904003430B606269012185
:100DD000019890475D28E8D1B9F1000F09D00020B3
:100DE000514651F82020D24341F82020401C0828C9
:100DF000F7DB02AB224600976FF001000B99FFF77B
:100E000025FB00280CDA401C08D1BBF1000F05D0EF
:100E10004FF0FF300DB0BDE8F08FFFE74046F9E737
:100E2000E90701D108F1010806444FF0000B79E60B
:100E3000CCCCCC0C7F2801D9002208E0064A02EB7A
:100E40005002C007127800D1120902F00F020120EF
:100E500090400840704700004468000870B58C1846
:100E600010F8015B15F0070301D110F8013B2A11BE
:100E700006D110F8012B03E010F8016B01F8016BAB
:100E80005B1EF9D12B0705D40023521E0DD401F8A7
:100E9000013BFAE710F8013BCB1A921C03E013F870
:100EA000015B01F8015B521EF9D5A142D8D30020A5
:100EB00070BD00001FB52F490120887100240094E7
:100EC0000194029403940E222B496846FFF7AFF970
:100ED00000221146684605F0E1FB0094019402945B
:100EE000039425490E220E316846FFF7A0F900222F
:100EF0000121684605F0D2FB00940194029403940A
:100F00001D490E221C316846FFF791F9002202218B
:100F1000684605F0C3FB00940194029403941649BB
:100F20000E222A316846FFF782F900220321684623
:100F300005F0B4FB00940194029403940E490E2230
:100F400038316846FFF773F900220421684605F03E
:100F5000A5FB009401940294039407490E224631A4
:100F60006846FFF764F900220521684605F096FB04
:100F70001FBD0000D0020020E7080020FEE70000AF
:100F800070B5002400F028F8124D04E0641CE4B2AF
:100F9000012005F0BFFA1021284601F0C3FC08B17A
:100FA000642CF3D3642C01D3012070BD002404E031
:100FB000641CE4B2012005F0ADFA1021284601F0CE
:100FC000B1FC08B9642CF3D3642C01D3012070BDAB
:100FD000002070BD0004024000B585B014216846B1
:100FE000FFF73EF9102000900020019001200290B0
:100FF000022003906946024801F0D0FB05B000BD15
:101000000004024000B585B014216846FFF728F9B6
:1010100010200090012001900020029002200390F7
:101020006946024801F0BAFB05B000BD0004024069
:1010300010B500F091F8BDE81040FFF7A1BF000027
:1010400000B585B0FFF7F4FF0C4904A800F05BF889
:1010500000200090019002900390084808A10278B7
:10106000684604F06FFA0A480078002804D100228C
:101070000521684605F012FB05B000BD780200208E
:1010800048554D493A256868752070657200000022
:10109000D602002070B50024134D04E0641CE4B2B5
:1010A000012005F037FA1021284601F03BFC08B179
:1010B000642CF3D3002404E0641CE4B2012005F0A6
:1010C00029FA1021284601F02DFC08B9642CF3D32D
:1010D000282005F01FFA1021284601F023FC08B152
:1010E000012070BD002070BD0004024070B50020DA
:1010F00000244006050EFFF7CDFF2843641CE4B230
:10110000082CF6D370BD2DE9FC4106460F4600F0D1
:1011100023F8FFF735FF10B10120BDE8FC81002462
:101120006D46FFF7E3FF2855641CE4B2052CF8D3A5
:101130009DF800109DF801009DF803300A189DF8F5
:10114000020003441A449DF804309A4201D13970D8
:1011500030700020E1E7000010B5FFF753FF094CA5
:1011600000221021204601F0EDFB142001F056FA78
:1011700001221021204601F0E5FBBDE810401E20B1
:1011800005F0C8B90004024010B55948594C024650
:1011900041789078D278632901D1682802D0442917
:1011A00057D058E0303AD3B251484279ABB15248A7
:1011B0004FF48051012B13D0022B1DD04F48032B2D
:1011C00028D0042B34D0052B09D18115302A3BD0EF
:1011D000BDE81040012201F0B5BB303AE27010BD0D
:1011E000302A04D0BDE81040012201F0ABBBBDE8BD
:1011F0001040002201F0A6BB4FF40051302A04D069
:10120000BDE81040012201F09DBBBDE81040002266
:1012100001F098BB4FF40061302A04D0BDE81040C3
:10122000012201F08FBBBDE81040002201F08ABB13
:10123000302A04D0BDE81040012201F083BBBDE894
:101240001040002201F07EBBBDE81040002201F0FA
:1012500079BB542802D0412904D005E0BDE81040F4
:1012600003F03ABE502802D0412904D005E0BDE881
:101270001040FFF71FBE702802D0452904D005E0BA
:10128000BDE81040FFF716BE412802D0452906D020
:1012900009E00020A071BDE8104003F0D1B8522849
:1012A00001D1532A02D046290DD010E014A000F03D
:1012B00047FF4FF4FA7001F0B1F900F0F9FABDE818
:1012C000104003F0BDB8522801D1532A0BD0462953
:1012D00085D1522883D1532A81D103F045FBBDE843
:1012E000104003F0ADB8BDE8104001F00BBF0000A6
:1012F000E4080020D0020020000402400000024068
:1013000041542B524553544F524500007047000042
:10131000FEB5002002901249002201F1740002F093
:10132000DBFA0F48002202A9743002F0B3FA0C482D
:101330000478457886780E2100F50D70FEF790FF51
:10134000CDE900562346074A07A10D4804F0FAF8F4
:10135000012211460A4805F0A1F900F013F8FEBD7C
:1013600030070020E4020020257320253032686811
:10137000753A2530326868753A25303268687500EC
:101380006409002010B51049104A08781378C01A73
:101390004FF4616310FB03F3487854788978001B9D
:1013A0009278C0EB001003EB8000891A084400B269
:1013B000782807DD00F056F900F07AFABDE8104011
:1013C00003F03EB810BD0000300700201C070020CD
:1013D00010B50EA000F0B4FE40F6C41000F09CFE64
:1013E00000F0DCFA0C490DA000F0B0FB48B10A494E
:1013F0000BA000F0ABFB20B10AA000F0F5FA012031
:1014000010BD11A000F0F0FA002010BD41542B4394
:10141000495053454E440000080300204F4B000044
:101420003E0000000D0A496E74656C6C69537720AC
:101430002D20B3C9B9A6BDF8C8EBCDB8B4ABC4A3D1
:10144000CABDA1A30D0A00000D0A496E74656C6C3B
:10145000695377202D20CEDEB7A8BDF8C8EBCDB8F4
:10146000B4ABC4A3CABDA1A3C7EBBCECB2E9B5F74A
:10147000CAD4D0C5CFA2A1A30D0A000030B591B047
:1014800004460D46402101A8FEF7EAFE2B462246FF
:101490000EA101A804F056F801A800F051FE42F692
:1014A000E06000F039FE00F079FA0E490EA000F07D
:1014B0004DFB28B10DA000F097FA012011B030BD0E
:1014C00013A000F091FA0020F8E7000041542B43EC
:1014D000575341503D222573222C222573222C3153
:1014E000312C3300080300204F4B00000D0A496ED9
:1014F00074656C6C695377202D20BFAAC6F4D6B8EA
:10150000B6A8C8C8B5E3B3C9B9A6A1A30D0A00001F
:101510000D0A496E74656C6C695377202D20CEDE00
:10152000B7A8BFAAC6F4D6B8B6A8C8C8B5E3A1A3E1
:10153000C7EBBCECB2E9B5F7CAD4D0C5CFA2A1A322
:101540000D0A000010B504A000F0FAFDBDE810403F
:10155000642001F063B800002B2B2B0030B591B054
:1015600004460D46402101A8FEF77AFE2B4622468E
:101570000EA101A803F0E6FF01A800F0E1FD42F68C
:10158000E06000F0C9FD00F009FA0D490DA000F07F
:10159000DDFA28B10EA000F027FA012011B030BD0D
:1015A00014A000F021FA0020F8E7000041542B437A
:1015B000574A41503D222573222C222573220000D8
:1015C000080300205749464920474F5420495000FE
:1015D0000D0A496E74656C6C695377202D20C1AC7F
:1015E000BDD3D6B8B6A8C8C8B5E3B3C9B9A6A1A338
:1015F0000D0A00000D0A496E74656C6C6953772002
:101600002D20CEDEB7A8C1ACBDD3D6B8B6A8C8C809
:10161000B5E3A1A3C7EBBCECB2E9B5F7CAD4D0C51A
:10162000CFA2A1A30D0A000010B507A000F088FD0D
:10163000642000F0F3FF07A000F082FDBDE8104039
:10164000642000F0EBBF000041542B4349504D553E
:10165000583D310041542B4349504D4F44453D3096
:101660000000000010B50A4C00222021204601F0A5
:1016700069F9052000F0D2FF01222021204601F067
:1016800061F9BDE810404FF4FA5000F0C7BF000008
:101690000004024010B504A000F052FDBDE8104067
:1016A000642000F0BBBF000041542B43574D4F4412
:1016B000453D320010B504A000F042FDBDE81040E9
:1016C000642000F0ABBF000041542B534C45455003
:1016D0003D32000010B504A000F032FDBDE810401E
:1016E000642000F09BBF000041542B43574D4F44F2
:1016F000453D31002DE9F04180460D462846FEF774
:10170000BAFD84B24FF40067BC4206D8224629468F
:101710004046BDE8F04100F019B8002311E003F5A0
:1017200000621646A24205D2E9183A46404600F049
:101730000DF805E0E01A82B2E918404600F006F81C
:10174000B3B2A342EBD3BDE8F08100002DE9F04332
:1017500085B08946904641F270742546002700976F
:101760000246434619A1684603F0ECFE1C4E777012
:10177000684600F0E5FC02E0012000F04FFF7078C1
:1017800010B96D1EADB2F7D27078D8B1B7704146BE
:10179000484600F0FDFC02E0012000F03FFFB07879
:1017A00010B9641EA4B2F7D2B078012806D00DA0FB
:1017B00000F01AF9777005B0BDE8F08316A000F0CC
:1017C00013F9F7E71DA000F00FF9F4E741542B439C
:1017D000495053454E443D256868752C2568750071
:1017E0007C0200200D0A496E74656C6C6953772089
:1017F0002D2045535038323636B7A2CBCDCAFDBE68
:10180000DDC3A6A1A3C7EBBCECB2E9B5F7CAD4D03F
:10181000C5CFA2A1A30D0A000D0A496E74656C6CB8
:10182000695377202D20B7A2CBCDD6B8B6A8CAFD74
:10183000BEDDB3C9B9A6A1A30D0A00000D0A496E09
:1018400074656C6C695377202D20455350383236BF
:1018500036BEDCBEF8B7A2CBCDCAFDBEDDA1A3C7A4
:10186000EBBCECB2E9B5F7CAD4D0C5CFA2A1A30DA9
:101870000A00000010B507A000F062FC642000F030
:10188000CDFE07A000F05CFCBDE81040642000F035
:10189000C5BE000041542B4349504D55583D3000C2
:1018A00041542B4349504D4F44453D310000000009
:1018B00010B5642000F0B2FE1AA004F045FEFFF758
:1018C00041FEFFF7CFFEFFF705FFFFF7F3FE1A49D2
:1018D000A1F11000FFF742FE44F62064D0B117A03A
:1018E00004F032FEFFF7C6FF1349183901F12C004E
:1018F00000F058F930B115A004F026FEBDE8104004
:10190000FFF766BD17A004F01FFE204600F086FE1C
:10191000032010BD1AA004F017FE204600F07EFE42
:10192000022010BD4E6574776F726B20496E69742A
:1019300069616C697A650000A802002057692D462C
:101940006920436F6E6E6563746564005443502074
:1019500053657276657220436F6E6E65637465645D
:10196000000000004661696C20746F20436F6E6E4A
:1019700065637420746F2053657276657200000091
:101980004661696C20746F20436F6E6E65637420CE
:10199000746F2057692D46690000000010B505A03E
:1019A00000F022F80A4800F01FF8BDE8104009A036
:1019B00000F01AB80D0A3D3D3D3D3D3D3D3D0D0A4F
:1019C000476F742066726F6D204553503A0D0A00C0
:1019D000080300200D0A3D3D3D3D3D456E643D3D03
:1019E0003D3D0D0A0000000010B504462046FEF7FC
:1019F00042FC214682B2BDE810404FF47A730148A0
:101A000002F0B4BC840800202DE9FF47434E444F48
:101A1000B1884A1C92B2B28078544FF48069002495
:101A20004A4500D1B480F188002946D001253E28DE
:101A300000D17570717811B14B2800D1B570374A5B
:101A40007189DFF8E0809389002958D10A2804D0F1
:101A50002B282ED03A2832D051E0314932A000F064
:101A600075F882462E4932A000F070F80146BAF1AE
:101A7000000F0AD007EB0A0010F8020C3038C0B291
:101A8000052802D208EB8000847051B107EB0A00F0
:101A900010F8020C3038C0B2052802D208EB8000E2
:101AA0008570B48004B04946BDE8F0471C48FEF795
:101AB000D7BB3581B088401EB081BDE8FF87308933
:101AC000E8B10094019402940394B088F918C21A02
:101AD000521C6846FEF7ABFB104B104A0C3317A1A3
:101AE0006846FEF7F1FB34817581B48049460C48A5
:101AF000FEF7B6FB3178B08928F82100DDE7002930
:101B0000DBD0002BD9D05B1E98B2B0810028D4D195
:101B10007481307808EB8000C570CEE77C0200202D
:101B200008030020080700202C434C4F5345440075
:101B30002C434F4E4E454354000000002B49504467
:101B40002C256868752C2568753A00002DE9F04150
:101B500005460E462846FEF78EFB84B23046FEF759
:101B60008AFB80B20022011B491C17E000230020E1
:101B70000AE000EB020C2F5C16F80CC0674501D19F
:101B80005B1C9BB2401C80B2A042F2D3A34203D1A3
:101B9000521C90B2BDE8F081521C92B29142E5DC39
:101BA0000020F7E730B595B004460D46502101A856
:101BB000FEF756FB2B46224610A101A803F0C2FCFB
:101BC00001A800F0BDFA41F2883000F0A5FAFFF755
:101BD000E5FE114911A0FFF7B9FF50B10E4911A060
:101BE000FFF7B4FF28B110A0FFF7FEFE012015B0EB
:101BF00030BD17A0FFF7F8FE0020F8E741542B4353
:101C0000495053544152543D22544350222C2225D2
:101C100073222C257300000008030020434F4E4E12
:101C2000454354004F4B00000D0A496E74656C6CBF
:101C3000695377202D20C1ACBDD3D6B8B6A8B7FE66
:101C4000CEF1C6F7B3C9B9A6A1A30D0A00000000E2
:101C50000D0A496E74656C6C695377202D20CEDEB9
:101C6000B7A8C1ACBDD3D6B8B6A8B7FECEF1C6F7FB
:101C7000A1A3C7EBBCECB2E9B5F7CAD4D0C5CFA2DB
:101C8000A1A30D0A0000000010B588B00446202171
:101C90006846FEF7E5FA22460EA1684603F052FCBC
:101CA000684600F04DFA4FF47A7000F035FAFFF70D
:101CB00075FE0D490DA0FFF749FF28B10CA0FFF7F5
:101CC00093FE012008B010BD13A0FFF78DFE002089
:101CD000F8E7000041542B434950534552564552B2
:101CE0003D312C2573000000080300204F4B0000FD
:101CF0000D0A496E74656C6C695377202D20BFAA5C
:101D0000C6F4D6B8B6A8B7FECEF1C6F7B3C9B9A621
:101D1000A1A30D0A000000000D0A496E74656C6CE9
:101D2000695377202D20CEDEB7A8BFAAC6F4D6B857
:101D3000B6A8B7FECEF1C6F7A1A3C7EBBCECB2E9DB
:101D4000B5F7CAD4D0C5CFA2A1A30D0A00000000E8
:101D5000F0B5BBB006460C46C82109A8FEF780FACC
:101D6000202101A8FEF77CFA2246174909A803F0B2
:101D7000E9FB164D2868FEF77EFA044609A8FEF72F
:101D80007AFA2718124C2068FEF775FA384482B2A6
:101D900010A101A803F0D6FB144801693046FFF7F3
:101DA000A9FC01A93046FFF7A5FC30462968FFF7DA
:101DB000A1FC09A93046FFF79DFC30462168FFF7DA
:101DC00099FC3BB0F0BD0000F0680008E80200207C
:101DD000EC020020436F6E74656E742D4C656E6767
:101DE00074683A202568750D0A0D0A007C020020EF
:101DF00070B505460C462046FEF73DFAC0B2217884
:101E00002F2901D101280AD0214611A0FFF79EFEFB
:101E100060B121462846BDE8704000F025B80F4863
:101E200001682846BDE8704000F0FAB821460CA0D1
:101E3000FFF78CFE28B121462846BDE8704000F02F
:101E4000B3B821462846BDE87040FFF781BF0000C7
:101E50002F7570646174652F00000000F00200208F
:101E60002F766965772F00002DE9F041A2B0074673
:101E70008846002500244046FEF7FDF9C6B23DA085
:101E80000068219000209DF8841007E018F80020D9
:101E90008A4201D16D1CEDB2401CC0B2B042F5D3F4
:101EA000062D06D034A1384600F0BAF822B0BDE8BD
:101EB000F081802101A8FEF7D3F93246414601A8FE
:101EC000FEF7B5F921A901A8FEF7DCF98046002646
:101ED000324D45E021A90020FEF7D4F9804634B107
:101EE000012C12D0022C1FD0032C2CD036E0EE6136
:101EF0002E626E62AE624046FEF7BDF9024627488A
:101F000041461C30FEF793F928E0244814212C3078
:101F1000FEF7A6F94046FEF7AEF902461F484146D5
:101F20002C30FEF784F919E01C4814214030FEF7EC
:101F300097F94046FEF79FF902461848414640305F
:101F4000FEF775F90AE06E61AE614046FEF793F95F
:101F50000246124841461430FEF769F9641CE4B2A7
:101F6000B8F1000FB6D100F0E9FA0DA1384600F043
:101F700057F89BE72F0000006661696C6564207468
:101F80006F2075706C6F61642E636865636B207978
:101F90006F757220696E7075742E00007C020020CF
:101FA000737563636573730010B596B00446502172
:101FB00002A8FEF755F900F08FFA0E49097830397A
:101FC0004A290DD80B4902A8083901F12C02CDE9A4
:101FD000002101F11803243A07A103F0B3FA03E04A
:101FE00008A102A803F0AEFA02A9204600F018F8F2
:101FF00016B010BD9802002025732025732025738C
:1020000020257300496E76616C696420496E7661A3
:102010006C696420302E302E302E302030000000CD
:1020200030B589B005460C46202101A8FEF718F905
:102030002046FEF720F982B209A101A803F082FA36
:102040000D4801692846FFF755FB01A92846FFF70F
:1020500051FB21462846FFF74DFB09B030BD00007B
:10206000436F6E74656E742D4C656E6774683A20AC
:102070002568750D0A0D0A007C020020A0B014210D
:102080001E48FEF7EDF8DFF878900120A9F8060069
:102090000027A9F80470DFF86480002408EB8400AE
:1020A000C17831B3C770174917A0FFF74FFDC01CA7
:1020B00005B2144916A0FFF749FDC01E06B2002D57
:1020C00010DB002E0EDB80216846FEF7C9F80D48B4
:1020D000721B4119521C6846FEF7A9F86946204652
:1020E000FFF786FEA9F804704FF480610548FEF7FB
:1020F000B7F8641CE4B2052CD0D3CEE70807002063
:102100007C02002008030020474554202F000000D7
:10211000485454502F00000010B50446064A0021D0
:1021200091804FF480610548FEF79AF82046BDE89B
:10213000104000F073BA00007C0200200803002069
:1021400010B504462046FEF796F882B24CF25033A2
:102150002146054802F00AF96423BDE81040022236
:1021600002A1014802F002B9440800200D0A000053
:1021700010B504462046FEF77EF8214682B2BDE83F
:1021800010404CF25033014802F0F0B844080020EF
:102190000A4601464CF25033014802F0E7B800000D
:1021A0004408002010B5642000F038FA17A004F0AD
:1021B000CBF9FFF7C7F9FFF755FAFFF735FAFFF745
:1021C00069FAFFF777FA17A119A0FFF757F9002866
:1021D0001BD0012000F022FA18A004F0B5F901206C
:1021E00000F01CFA20A004F0AFF9012000F016FA6C
:1021F00025A0FFF749FD002807D024A004F0A4F98A
:10220000012000F00BFAFFF739FF10BD4E6574771F
:102210006F726B20436F6E66696775726174696F68
:102220006E00000031323334353637383900000063
:10223000696E74656C6C69737700000041502068AA
:1022400061732065737461626C69736865642E5094
:102250006C6561736520636F6E6E65637420746F67
:102260002041503A00000000535349443D696E74C8
:10227000656C6C6973772C5061737357443D3132D0
:10228000333435363738390038300000485454502C
:10229000205345525645522049532052554E4E49DF
:1022A0004E470000704700000022002905D0012998
:1022B0001AD002291BD04FF440720E490B6823F448
:1022C00040730B600B6813430B600A6822F0F8023E
:1022D0000A600A68022303EBC00002430A60086830
:1022E00040F48030086070474FF48072E5E74FF4A7
:1022F0000072E2E7103C02401348016889050FD5DF
:10230000016821F400710160016841F4006101601D
:10231000016821F400610160016841F4007101600D
:10232000016849050FD5016821F4806101600168E9
:1023300041F480510160016821F48051016001681D
:1023400041F4806101607047003C024008490A681E
:1023500022F440720A600A6842F004020A600A68C5
:102360004FF4803343EA002002430A6070470000C4
:10237000103C0240064A136823F44073136013684C
:102380001360136843F0010313600170704700008D
:10239000103C024010B509490C6824F440740C60EC
:1023A0000C6844F440740C600C6844F001040C6048
:1023B0000260BFF36F8F436010BD0000103C02400D
:1023C000074A136823F440731360136843F480735F
:1023D0001360136843F0010313600180704700002D
:1023E000103C0240074A136823F4407313601368DB
:1023F00043F400731360136843F00103136001603A
:1024000070470000103C02401C490868C2061C4886
:1024100005D5C26942F01002C26110220A600A6842
:10242000920605D5C26942F00802C26120220A6004
:102430000A68520605D5C26942F00402C261402210
:102440000A600A68120605D5C26942F00202C2613A
:1024500080220A600A68D20506D5C26942F00102EC
:10246000C2614FF480720A600A68920705D5C2699A
:1024700042F02002C2610220086070470C3C02401A
:10248000B409002070B5044611490020C86100F06D
:1024900061FA05460F4E09E0601C07D024B100F038
:1024A00059FA401BA04201D9032070BD3068C00317
:1024B000F2D43068C00701D001203060306810F4D9
:1024C000F97F03D0FFF7A0FF012070BD002070BD91
:1024D000B40900200C3C024070B5134C1021134885
:1024E000FDF7BEFE14211248FDF7BAFE1421114873
:1024F000FDF7B6FE104D00202860686010222146CE
:102500000A48FDF794FE0849142210310848FDF7E7
:102510008EFE0549142224310648FDF788FEA06B83
:102520002860E06B686070BD00000208980200201F
:10253000A8020020BC0200209002002070B586B0E6
:1025400000F016F9142101A8FDF78AFE0020019081
:102550000221059105210391012104910090694612
:1025600001A800F06DF800241C4E1D4D0023325DC3
:102570006119184600F0BEF8641CE4B2102CF5D3C3
:102580000024174D174E10350023325D611918468F
:1025900000F0B0F8641CE4B2142CF5D30024104D04
:1025A000114E24350023325D6119184600F0A2F85F
:1025B000641CE4B2142CF5D30024094D0B4E3835BD
:1025C0000023325D6119184600F094F8641CE4B2EF
:1025D000082CF5D300F084F806B070BD98020020F6
:1025E00000000208A8020020BC0200209002002087
:1025F0002038C0B2704790F83510022903D08021EE
:10260000416501207047052180F835100068016898
:1026100021F00101016000207047000070B5044600
:1026200000F098F90546601C02D004480078044484
:1026300000F090F9401BA042FAD370BDF4020020D4
:102640002DE9F04704460E46DFF88C8098F8180014
:1026500001280BD0012088F818004CF25039484668
:10266000FFF710FF0246100003D02FE00220BDE864
:10267000F0874FF0FF3030602068184F012801D0FC
:10268000A5681CE0207C6168FFF760FE4846FFF704
:10269000F9FE0246386820F00400386014E0217C1E
:1026A0002846FFF701FE4846FFF7ECFE0246386871
:1026B00020F0FA0038600AB1356005E06D1CD4E9FD
:1026C00002100844A842EAD8FFF716FE002088F856
:1026D00018001046CBE70000B4090020103C02406F
:1026E0000348016841F0004101600020704700008C
:1026F000103C02402DE9F0470646894614461D4627
:10270000194F387E012808D0012038764CF2503815
:102710004046FFF7B7FE18B114E00220BDE8F0878D
:102720009EB1012E16D0022E19D022462B464846C5
:10273000FFF730FE4046FFF7A5FE0C490A6822F07D
:1027400001020A6000213976E8E7E1B24846FFF766
:1027500011FEEFE7A1B24846FFF732FEEAE7214655
:102760004846FFF73FFEE5E7B4090020103C024071
:10277000002007490A68002A09DA054A054B0C3A85
:102780001360054B13600968002900DA01207047C7
:10279000103C024023016745AB89EFCD2DE9F84F8E
:1027A0000022DFF860A14FF003084FF00F090AF193
:1027B000040B012595400B682B40AB4272D14C684D
:1027C000012C05D0022C03D0112C01D0122C10D1D9
:1027D0008668540008FA04F7BE43CF68A740374321
:1027E00087604468AC430D79C5F3001595402543D7
:1027F0004560C468570008FA07F5AC438E68BE40D0
:102800002643C6604C68022C01D0122C12D1D40889
:1028100000EB840CDCF820605407E40E09FA04FE97
:1028200026EA0E06D1F810E00EFA04FE4EEA060E75
:10283000CCF820E00468AC430D7905F00305BD40F9
:10284000254305604C68E40056D52F4C256845F4B7
:1028500080452560246804F4804400942B4C22F0C9
:1028600003052544D5F808789407260F09FA06F4DD
:10287000A743274CA04201D1002415E0254CA042DB
:1028800001D1012410E0244CA04201D102240BE02C
:10289000224CA04201D1032406E0214CA04202D1E7
:1028A000042401E028E00724B4403C43C5F808486C
:1028B000DAF800409C434D68ED0300D51C43CAF88C
:1028C0000040DBF800409C434D68AD0300D51C433D
:1028D000CBF800400B4D08352C689C434E68F6023F
:1028E00000D51C432C60074D0C352C689C434E686A
:1028F000B60200D51C432C60521C102AFFF459AFBD
:10290000BDE8F88F003C01404438024000300140EF
:10291000000002400004024000080240000C024097
:10292000001002400069084201D0012070470020D9
:102930007047426931EA020201D08161704709049F
:1029400081617047002A01D081617047090481616B
:10295000704700000148806870470000F4020020C2
:10296000006C704770B50446002C04D094F83D000C
:10297000002510B106E0012070BD84F83C502046CF
:1029800000F0A6FA242084F83D002068016821F0B8
:10299000010101602068016841F400410160206884
:1029A000016821F40041016000F036FD4F4B616881
:1029B000994203D84E49884203D304E04D498842E6
:1029C00001D2012070BD4C49B0FBF1F1226856687C
:1029D00026F03F060E43566062689A4201D8491CB1
:1029E00007E04FF4967251434FF47A72B1FBF2F163
:1029F000491C2268166A26F03F063143116261685D
:102A0000994210D84900401EB0FBF1F2521CC2F3AB
:102A10000B02042A01D2042022E0B0FBF1F0401C9A
:102A2000C0F30B001CE0A268F2B301EBC10303EB9F
:102A30000116431EB3FBF6F35B1C43F480431B05F6
:102A400049D092B301EBC10202EB0111401EB0FB71
:102A5000F1F0401CC0F30B0040F4804040F4004013
:102A60002168CA694CF6FF739A431043C861D4E9E0
:102A7000071001432068026822F0C0021143016080
:102A8000D4E9030101432068826848F2FF339A4386
:102A900011438160D4E9051001432068C26822F027
:102AA000FF021143C16001E00EE016E020680168FA
:102AB00041F0010101602564202084F83D00256378
:102AC00084F83E50002070BD01EB4106431EB3FB6D
:102AD000F6F35B1CB3E70120C2E701EB4101401EA6
:102AE000B0FBF1F0401CC0F30B00B7E7A08601007B
:102AF00080841E0000093D0040420F002DE9F84F80
:102B000004468A4617469946DDF82880FFF722FFDB
:102B1000054694F83D00202802D00220BDE8F88F39
:102B20001923012295492046009501F022FE08B1A3
:102B30000220F3E794F83C00012807D0012084F834
:102B40003C0020680168C90702D005E00220E5E7E3
:102B5000016841F0010101602068016821F4006111
:102B60000160222084F83D00102084F83E000026F9
:102B700026646762A4F82A90608D20858048E06210
:102B80002B4642465146204601F0EAFC08B101209E
:102B9000C4E7208D70B1012815D0022821D020680B
:102BA000016841F48061016020684169806900909A
:102BB000744FD8E02068416981690091016841F44F
:102BC00000710160F4E72068016821F48061016010
:102BD0002068416981690091016841F400710160D8
:102BE000E6E72068016821F48061016020680168DF
:102BF00041F4006101602068416980690090D7E775
:102C000003287DD801280BD002281FD0434600227C
:102C100039462046009501F0ACFDE8B301207DE780
:102C20002A464146204601F035FE08B1012075E7ED
:102C300020680069616A0870606A401C6062208DCB
:102C4000401E2085608D401E60858CE0434600223A
:102C500039462046009501F08CFD08B101205DE762
:102C60002068016841F40071016020680069616AB0
:102C70000870606A401C6062218D491E2185618D4B
:102C8000491E6185216809690170606A401C6062A3
:102C9000208D401E208500E003E0608D401E608591
:102CA00061E02068016821F48061016020680069AA
:102CB000616A0870606A401C6062208D401E208539
:102CC000608D401E608543460022394620460095AF
:102CD00001F04FFD08B1012020E72068016841F4B0
:102CE0000071016020680069616A0870606A401CB8
:102CF0006062218D491E2185618D491E618500E03C
:102D00000CE0216809690170606A401C6062208DD6
:102D1000401E2085608D401E608524E02A46414685
:102D2000204601F0B7FD08B10120F7E620680069F0
:102D3000616A0870606A401C6062218D491E2185AD
:102D4000618D491E618521684A69D24352070AD4C0
:102D500009690170606A401C6062208D401E2085F8
:102D6000608D401E6085208D00287FF449AF2020B3
:102D70003C346070A67026700020CFE60200100080
:102D80000000FFFF040001002DE9F84F04468A46C9
:102D900015469946DDF82880FFF7DCFD064694F8D5
:102DA0003D00202802D00220BDE8F88F192301221F
:102DB00045492046009601F0DCFC08B10220F3E70B
:102DC00094F83C00012807D0012084F83C002068DA
:102DD0000168C90702D005E00220E5E7016841F07B
:102DE000010101602068016821F400610160212077
:102DF00084F83D00102084F83E00002727646562B7
:102E0000A4F82A90608D20853048E062334642461F
:102E10005146204601F02EFC08B10120C4E720688D
:102E20004169806900903EE032464146204601F00B
:102E300067FD48B1206C042804D12068016841F482
:102E4000007101600120AFE7606A216800780861C5
:102E5000656A6D1C6562608D401E6085208D401E18
:102E600080B2208522685169C94349070BD450B10B
:102E700028781061606A401C6062608D401E608529
:102E8000208D401E208532464146204601F04AFCF6
:102E900048B1206C042804D12068016841F4007115
:102EA0000160012080E7208D0028BDD11F3454F837
:102EB0001F0C016841F4007101602020A077E777C2
:102EC0006777002070E70000020010000000FFFF9D
:102ED00010B586B00446142101A8FDF7C1F91349C5
:102EE0002068884220D11248016841F00201016047
:102EF000006800F002000090C020019012200290B3
:102F000001200390032004900420059001A90948A2
:102F1000FFF744FC06481030016841F400110160DD
:102F2000006800F40010009006B010BD005400408E
:102F3000303802400004024070B50446002C11D025
:102F400021684CF6CC400860216845F25550086075
:102F5000D4E9001048602168A0688860FFF7FAFC97
:102F6000054608E0012070BDFFF7F4FC401B302847
:102F700001D9032070BD2068C0680028F4D1216801
:102F80004AF6AA200860002070BD00684AF6AA210F
:102F900001600020704700000248816802781144F7
:102FA00081607047F402002010B50B48016841F4BD
:102FB00000710160016841F480610160016841F4C1
:102FC00080710160032000F08BF8012000F006F80A
:102FD00000F03EF8002010BD003C024010B588B063
:102FE00001460022192000F05BF8192000F04AF891
:102FF00000241348016841F001010160006800F0FD
:103000000100019002A903A800F0E2F900F014FA0F
:103010000C49B0FBF1F1491E0C480B4A026040F22A
:10302000E732C26041600461846000F02BFE10B1A1
:10303000012008B010BD054800F086FEF9E7000049
:103040004438024040420F00000001407409002053
:1030500082B00B48016841F480410160006800F4CF
:10306000804001900648001F016841F080510160D6
:10307000006800F080500190052002B000F030B8E8
:1030800044380240002809DB00F01F020121914072
:103090004009800000F1E020C0F8001170470000F6
:1030A000F0B40D460D4B1B68C3F30223C3F10704B4
:1030B000042C00D90424191D072901D2002300E0A3
:1030C000DB1E012606FA04F1491E294099409E4064
:1030D000761E16403143F0BC02F048BA0CED00E019
:1030E00000F00701054A10684FF6FF03184040EA58
:1030F0000120034908431060704700000CED00E018
:103100000000FA05BFF34F8F05480168054A01F436
:10311000E06111430160BFF34F8F00BFFDE7000086
:103120000CED00E00400FA052DE9F84304464FF0E9
:10313000010720684FF00006C10701D140072DD5D7
:10314000DFF82891C9F86860FFF704FC8046484D15
:1031500008E0FFF7FFFBA0EB0800022802D90320DC
:10316000BDE8F88328680001F3D46068217A800103
:1031700040EA01713E4884300160C9F86870FFF789
:10318000E9FB804607E0FFF7E5FBA0EB080002281B
:1031900001D90320E4E728680001F4D520788007EE
:1031A00053D533484030016841F0805101600068D8
:1031B00000F0805000902F4D286840F48070286007
:1031C000FFF7C8FB804607E0FFF7C4FBA0EB080051
:1031D000022801D90320C3E72868C005F4D5244D8F
:1031E0007035286800F44070F0B1A18901F4407195
:1031F000814219D0286820F440701F490F600E608A
:1032000028602868C0070FD0FFF7A4FB074641F2EB
:10321000883606E0FFF79EFBC01BB04201D90320B1
:103220009EE728688007F5D5E0681149C0F30122C0
:103230000831032A11D0086820F4F81008602868C3
:10324000A189C1F30B01084328602078000702D54B
:103250000A49207C0860002082E70A68084B22F4B3
:10326000F812184002430A60E9E7000000004742F4
:103270000038024000700040400E4742E0114742D3
:10328000FFFCFF0F2DE9F04704460D46002C13D03C
:10329000DFF82891D9F80000EFB200F00F00A84243
:1032A0000CD289F80070D9F8000000F00F00A84295
:1032B00004D00120BDE8F0870120FBE72068404EE4
:1032C000810712D5400703D5306840F4E0503060E4
:1032D0002078000703D5306840F4604030603068E3
:1032E000A16820F0F000084330602078C00731D09A
:1032F000334960680839012808D002280BD0032818
:1033000009D0096889070BD40120D3E7096889032C
:1033100006D40120CEE70968890101D40120C9E75C
:10332000316821F0030101433160FFF713FB804650
:1033300041F2883A07E0FFF70DFBA0EB080050458B
:1033400001D90320B6E73068616800F00C00B0EBEB
:10335000810FF0D1D9F8000000F00F00A84209D980
:1033600089F80070D9F8000000F00F00A84201D0E1
:1033700001209FE72078400705D53068E16820F4F8
:10338000E050084330602078000706D53068216996
:1033900020F4604040EAC100306000F05DF8316820
:1033A000084AC1F30311515CC84007490860074847
:1033B0000068FFF713FE00207CE70000003C02409D
:1033C000083802402C68000800030020F8020020A2
:1033D0000F2202600B4A136803F003034360136873
:1033E00003F0F0038360136803F4E053C3601268D2
:1033F00002F46042D20802610348006800F00F0046
:103400000860704708380240003C024001480068EC
:10341000704700000003002000B5FFF7F7FF0449E4
:103420000968044AC1F38221515CC84000BD000014
:10343000083802403C68000800B5FFF7E7FF044980
:103440000968044AC1F34231515CC84000BD000024
:10345000083802403C68000810B51748006810F0B2
:103460000C01164816D0164B042912D0082911D188
:10347000114C241F216801F03F02216849020AD53E
:103480002068C0F38810A0FB03010023FCF79EFE18
:1034900009E0184610BD21680023C1F38811A1FB83
:1034A0000001FCF793FE2168C1F30141491C49006A
:1034B000B0FBF1F010BD0000083802400024F40019
:1034C00040787D012DE9F84F0446002C12D0207879
:1034D000DFF8AC83EB4DC00757D0D8F80000C0F33D
:1034E000810001280ED0D8F80000C0F38100022826
:1034F00003D00EE00120BDE8F88FE148001F00680E
:10350000400206D5286880033FD5606870BB012063
:10351000F1E76068B0F5803F10D0B0F5A02F12D071
:10352000286820F480302860286820F480202860F3
:103530006068E0B1FFF70EFA064614E0286840F430
:1035400080302860F4E7286840F4802028602868EC
:1035500040F480302860EBE7FFF7FCF9801B64281B
:1035600001D90320C7E728688003F5D50DE0FFF7F0
:10357000F1F9064606E0FFF7EDF9801B642801D952
:103580000320B8E728688003F5D42078BE4F800771
:103590004FF0000949D5D8F8000010F00C0F0AD000
:1035A000D8F80000C0F38100022814D1B448001FED
:1035B000006840020FD42868800704D5E06801281D
:1035C00001D0012097E72868216920F0F80040EA3F
:1035D000C100286029E0E068B8B101203860FFF739
:1035E000B9F9064606E0FFF7B5F9801B022801D9B4
:1035F000032080E728688007F5D52868216920F036
:10360000F80040EAC10028600FE0C7F80090FFF71B
:10361000A1F9064606E0FFF79DF9801B022801D9B3
:10362000032068E728688007F5D42078000729D5AB
:10363000DFF84CA2954861690AF16C0A89B1012151
:103640000160FFF787F9064606E0FFF783F9801B64
:10365000022801D903204EE7DAF800008007F4D5EC
:1036600010E0C0F80090FFF775F9064606E0FFF796
:1036700071F9801B022801D903203CE7DAF8000029
:103680008007F4D42078400778D500267C4838306D
:103690000068C0000AD47A483830016841F080518F
:1036A0000160006800F0805000900126DFF8E0B172
:1036B000DBF80000C00515D4DBF8000040F4807092
:1036C000CBF80000FFF746F9824607E0FFF742F922
:1036D000A0EB0A00022801D903200CE7DBF8000068
:1036E000C005F3D5DFF898B1A0680BF1680B01288D
:1036F00013D0052818D0DBF8000020F00100CBF82B
:103700000000DBF8000020F00400CBF80000A06807
:1037100030B3FFF71FF982461DE0DBF8000040F0F0
:103720000100CBF80000F2E7DBF8000040F00400F5
:10373000CBF80000DBF8000040F00100CBF80000FF
:10374000E5E7FFF707F9A0EB0A0141F28830814273
:1037500001D90320CFE6DBF800008007F1D512E0A5
:10376000FFF7F8F882460AE0FFF7F4F8A0EB0A0149
:1037700041F28830814202D90320BCE60BE0DBF83D
:1037800000008007F0D4012E05D13D483830016893
:1037900021F080510160A069B8B3D8F80010C1F3DE
:1037A0008101022948D0022805D0C7F86090FFF7B0
:1037B000D1F804463CE0C7F86090FFF7CBF8064626
:1037C00006E0FFF7C7F8801B022801D9032092E624
:1037D00028688001F5D4D4E907010843616AA26A28
:1037E0004FF0FF33890103EB520241EA02410843E3
:1037F00094F82C1040EA01612148001F016001206B
:103800003866FFF7A7F8044607E037E0FFF7A2F8AD
:10381000001B022801D903206DE628688001F5D538
:103820002CE0FFF797F8001B022801D9032062E67D
:1038300028688001F5D421E001281DD0D8F80000C7
:10384000E26900F48001914214D1226A00F03F0144
:1038500091420FD147F6C071626A0140914209D18D
:10386000A26A00F44031914204D1E16A00F0706034
:10387000884203D001203EE601203CE600203AE6E3
:10388000083802400038024000004742800E47429C
:103890000070004010B50B46006841680D480140BB
:1038A000080CD870C1F304245C7001F03F049C70D4
:1038B000C1F342311970002A0AD101F0DCFAD87044
:1038C000587801F0D8FA5870987801F0D4FA9870C6
:1038D000002010BD3FFFFF0010B50B460168896A4C
:1038E000596001680969C1F30E01996000680168B7
:1038F0000E480140C1F305401870C1F306245C7006
:1039000001F07F049C7001F48001090CD970002A39
:103910000AD101F0B0FA1870587801F0ACFA58707A
:10392000987801F0A8FA9870002010BD7F7F7F0082
:1039300070B50446002C02D0607F10B106E0012073
:1039400070BD00202077204600F04EF802206077FE
:103950002168CA204862216853204862204601F04D
:103960009EFAFF25042620B1206845626677012073
:1039700070BD206881681B4A1140816020688168A1
:1039800062681143D4E904231A431143816021681A
:10399000E068086120680169228941EA0241016109
:1039A0002068C16821F08001C160206880688006BD
:1039B00008D4204600F00CF920B1206845626677F3
:1039C000012070BD2068016C21F480210164206811
:1039D000016CA2691143016420684562012060778F
:1039E000002070BDBFFF8FFF00680349884202D1ED
:1039F0000249012008607047002800403C0E474201
:103A00002DE9F04704460B46207F012807D04FF0F0
:103A1000010884F81C80022060771AB109E00220B6
:103A2000BDE8F0875878C10603D500F0EF000A30F2
:103A30005870F2B19878D97840EA014558781978E9
:103A4000000240EA413005432168CA2048622168EB
:103A500053204862204601F022FA0026FF274FF04B
:103A60000409B8B12068476284F81D9026770120C8
:103A7000D6E7D87801F008FA0204587801F004FA81
:103A800042EA0022987801F0FFF90243187842EAEE
:103A90004035D9E70F480540206845602068C16877
:103AA00021F08001C1602068806880060AD4204629
:103AB00000F08EF830B12068476284F81D902677B8
:103AC0000120ADE72068476284F81D80267700203A
:103AD000A6E700003FFFFF002DE9F04704460D4632
:103AE000207F01282DD04FF0010984F81C9002207E
:103AF000607700263AB320688068400600D4EE70F4
:103B0000A878297840EA01476878E978000240EA15
:103B1000014007432168CA20486221685320486257
:103B2000204601F0BCF94FF0FF084FF0040A00B343
:103B30002068C0F8248084F81DA026770120BDE805
:103B4000F0870220FBE720688068400600D4EE7012
:103B5000287801F099F90204687801F095F942EAB1
:103B60000022A87801F090F90243E87842EA004781
:103B7000D0E716480740206807602068816821F474
:103B800080218160D5E903100143206882681143D8
:103B900081602068C16821F08001C1602068806870
:103BA00080060BD4204600F013F838B12068C0F826
:103BB000248084F81DA026770120C0E72068C0F883
:103BC000248084F81D9026770020B8E77F7F7F004F
:103BD00070B505462868C16821F0A001C160FEF7F4
:103BE000B9FE04464FF47A7606E0FEF7B3FE001BFA
:103BF000B04201D9032070BD2868C0688006F4D5A2
:103C0000002070BD7047704770B590F83C20012AC5
:103C10002BD0012680F83C60022280F83D2002680B
:103C20005368956823F070040B6823435360104B6E
:103C300002689A420ED0B2F1804F0BD00D4B9A42DF
:103C400008D00D4B9A4205D00C4B9A4202D00C4B37
:103C50009A4204D125F080034968194391603C30B1
:103C6000467000210170002070BD022070BD000070
:103C7000000001400004004000080040000C00402B
:103C80000040014010B50446002C03D094F83D00DC
:103C900010B107E0012010BD002084F83C00204650
:103CA00000F00CF8022084F83D00211D206801F08E
:103CB000F3F9012084F83D00002010BD08B500682C
:103CC000154A1649904211D1086840F00200086078
:103CD000086800F002000090022201211D20FFF779
:103CE000DFF9BDE808401D20FFF7CCB90C4A90422F
:103CF00011D1086840F004000860086800F0040072
:103D00000090012211461E20FFF7CAF9BDE80840C5
:103D10001E20FFF7B7B908BD00040040403802403C
:103D200000080040022180F83D1001688A6802F016
:103D30000702062A03D00A6842F001020A60012144
:103D400080F83D10002070470168CA6842F0010207
:103D5000CA600068816801F00701062903D0016884
:103D600041F00101016000207047022180F83D1000
:103D700001680A6A41F211131A4207D10A6A9B10BC
:103D80001A4203D10A6822F001020A60012180F878
:103D90003D10002070470168CA6822F00102CA6025
:103DA0000068016A41F21112114207D1016A9210B2
:103DB000114203D1016821F0010101600020704728
:103DC00070B5044694F83C00012817D0012584F80A
:103DD0003C50022084F83D002068826822F077027F
:103DE00022F47F4282600868502831D00DDC202800
:103DF0004DD005DCB0B310284ED148E0022070BD94
:103E0000302844D0402847D137E060282BD0702894
:103E100006D0B0F5805F3FD0B0F5005F3CD10BE03D
:103E2000CB68D1E90121206801F082F9206881681E
:103E300041F0770181602FE0CB68D1E90121206852
:103E400001F076F92068816841F48041816023E0C7
:103E5000CA684968206801F07DF95021206801F0A6
:103E600071F919E013E0CA684968206801F083F924
:103E70006021206801F066F90EE0CA684968206890
:103E800001F068F94021206801F05CF904E0226843
:103E90000146104601F056F93C3465700020207050
:103EA00070BD704770B50446206801694FF0000589
:103EB000C943890716D4C168C943890712D4E91ECA
:103EC00001610120207720688069800703D02046A7
:103ED000FFF7E7FF05E0204600F09BF8204600F0E2
:103EE00099F8257720680169C943490718D4C16842
:103EF000C943490714D46FF00401016102202077FF
:103F00002068806910F4407F03D02046FFF7C9FF86
:103F100005E0204600F07DF8204600F07BF825778C
:103F200020680169C943090717D4C168C943090753
:103F300013D46FF008010161042020772068C06964
:103F4000800703D02046FFF7ACFF05E0204600F0D5
:103F500060F8204600F05EF8257720680169C943C3
:103F6000C90618D4C168C943C90614D46FF010013A
:103F70000161082020772068C06910F4407F03D0D9
:103F80002046FFF78EFF05E0204600F042F820466D
:103F900000F040F8257720680169C943C90708D1B6
:103FA000C168C943C90704D1891E0161204600F0D8
:103FB00033F820680169C943090609D4C168C943B7
:103FC000090605D46FF0800101612046FFF71AFE53
:103FD00020680169C943490609D4C168C943490633
:103FE00005D46FF040010161204600F027F82068F9
:103FF0000169C94389060BD4C168C943890607D43E
:104000006FF0200101612046BDE87040FFF7FBBD65
:1040100070BD70477047000000680649884201D1B2
:10402000FEF7BABF04490968884202D10248FFF787
:10403000B2BE704700000140C407002070477047BF
:1040400070B5044622681068D168526900F00F0309
:10405000002B08D1850606D58D0604D52046BDE87F
:10406000704001F0BDB8002B61D002F0010301F4F3
:1040700090751D435BD0C50705D0CD0503D5E56B15
:1040800045F00105E563450705D5D50703D0E56B88
:1040900045F00205E563850705D5D20703D0E26B3D
:1040A00042F00402E263020707D501F020021A433E
:1040B00003D0E26B42F00802E263E26B002A2BD0ED
:1040C000800604D5880602D5204601F089F82068CC
:1040D0004069C0F38010E16B01F00801014320D07A
:1040E000204601F062F820684169490615D541690A
:1040F00021F040014161606B58B116490165606B68
:10410000FEF779FA002807D0606B016DBDE87040BA
:1041100008472046FFF793FF70BD2046FFF78FFF4B
:1041200070BD2046FFF78BFF0020E06370BD0206E4
:1041300006D50A0604D52046BDE8704001F08EB9C8
:104140004006F3D54806F1D52046BDE8704001F0A1
:104150003AB800009B51000870B50446002C04D00A
:1041600094F83900002510B106E0012070BD84F8F4
:104170003850204600F022F8242084F839002068C6
:10418000C16821F40051C160204601F077F8206831
:10419000016921F4904101612068416921F02A01FF
:1041A00041612068C16841F40051C160E56320208D
:1041B00084F8390084F83A00002070BDF0B587B06B
:1041C0000446142102A8FCF74BF82B4F21682B4A18
:1041D00002230124032507262948B94224D127496F
:1041E00014310F6847F010070F60096801F01001E3
:1041F0000191116841F001011160116801F00101A4
:10420000019169020291039304940595069602A90F
:10421000FEF7C4FA002202212520FEF741FF2520E7
:10422000FEF730FF07B0F0BD164FB942FAD113497F
:1042300010310F6847F400370F60096801F400314E
:104240000191116841F001011160116801F0010153
:1042500001910C210291039304940595069602A9FD
:10426000FEF79CFA012202212620FEF719FF2620E4
:10427000FEF708FFD6E7000000100140303802408A
:10428000000002400044004090F83A30202B01D05A
:1042900002207047F9B1F2B190F83830012B1CD0F0
:1042A00081628285C2850021C163222280F83A2082
:1042B00080F838100168CA6842F48072CA600168E8
:1042C0004A6942F001024A610068C16841F0200178
:1042D000C160002070470120704702207047000035
:1042E00070B5204900680968884225D11E4B1846E0
:1042F00019780079012915D119461A4C4A78A03449
:10430000511CC9B2242805D0232806D02578242D95
:1043100006D007E05970A05404E00121997001E033
:104320005970A054FDF770FBBDE870400E490122A2
:10433000091D0C48FFF7A8BF0A49403109688842A7
:104340000FD1094964230122491D064800F00EF8E7
:104350000549BDE8704003480122491D4030FFF780
:1043600093BF70BD44080020D00200202DE9F8431F
:1043700004460D4690461E4694F83900202802D087
:104380000220BDE8F883D5B1B8F1000F17D094F83A
:104390003800012815D0012084F838004FF00009BA
:1043A000C4F83C90212084F83900FEF7D3FA074680
:1043B000A4F82480A4F8268084F838902DE0012009
:1043C000DFE70220DDE7E08C401EE084A068B0F566
:1043D000805F09D03B46002280212046009601F0F4
:1043E00070F8B0B10320CCE73B4600228021204684
:1043F000009601F066F808B10320C2E7288821681A
:10440000C0F308004860206908B16D1C05E0AD1CD0
:1044100003E0216815F8010B4860E08C0028D2D138
:104420003B46002240212046009601F04AF808B1A0
:104430000320A6E7202084F839000020A1E7704778
:1044400010B500F084FA1E480078012805D050B15C
:1044500002280ED0032812D016E00122002119A054
:1044600002F01CF910E00122002119A002F016F957
:104470000AE0012200211AA002F010F904E0012252
:1044800000211BA002F00AF9012211461CA002F033
:1044900005F9002202211EA002F000F900220321EA
:1044A0001DA002F0FBF8002204211DA002F0F6F886
:1044B0000022BDE8104005211BA002F0EFB800006B
:1044C000D0020020496E74656C6C6953770000005F
:1044D0004661696C20546F205472616E7300000055
:1044E0005245434F4E46204E4554574F524B0000C5
:1044F0004E6F4C696E6B546F536572766572000037
:1045000057656B2048483A6D6D3A737300000000A0
:1045100054454D503A000000514E483A000000000A
:10452000494C4C553A00000048554D493A000000AE
:10453000FEE701684A69D24352050FD46FF48062E6
:104540004A61002140F8301F2022427381730269C2
:1045500042F004020261017301207047002070479D
:104560002DE9F84F04468B4692461D46E06A2168C5
:104570000A6842F480620A60082808D0012806D040
:1045800010F5803F03D0206B112806D00AE0206888
:10459000016841F48071016004E02068016841F421
:1045A000807101604FF001185346002241462046B9
:1045B000009500F0DEF84FF4007738B1206800680D
:1045C000C00500D527640320BDE8F88F2069DFF817
:1045D000A090B0F5804F10D021680BF44076F02009
:1045E00040EAD61008612B46524609F106012046E2
:1045F00000F0FCF840B10120E6E721680BF0FF0075
:1046000040F00100086128E021680BF0FF0008611C
:104610002B4652464946204600F0E8F808B10120F2
:10462000D2E72068416981690091016841F4807195
:1046300001605346002241462046009500F099F85B
:1046400030B120680068C00500D527640320BBE7AF
:104650002168F12040EAD61008612B4652464946AF
:10466000204600F0C3F808B10120ADE70020ABE719
:1046700002000100F8B504460D4617461E46E06AE2
:10468000082808D0012806D010F5803F03D0206B01
:10469000122806D00AE02068016841F480710160A8
:1046A00004E02068016841F4807101603B4600220B
:1046B0004FF001112046009600F05BF840B12068F1
:1046C0000068C00502D54FF4007020640320F8BDD7
:1046D0002069B0F5804F0FD005F44070F02141EA19
:1046E000D0102168086133463A460D49204600F053
:1046F0007DF830B10120F8BD216805F0FE000861A9
:1047000002E02168E8B20861054933463A46891F4C
:10471000204600F06BF808B10120F8BD0020F8BD7C
:104720000800010070B504460D4616460DE020460F
:10473000FFF7FFFE08B1012070BD681C05D0FEF731
:1047400009F9801BA84207D835B120684069C043E9
:104750004007ECD4002070BD002044F8300F202129
:104760006173A073216941F0200121612073012050
:1047700070BD2DE9F0470446DDF820900E469046C6
:104780001D46C6F3074708E0681C06D0FEF7E2F8AE
:10479000A0EB0900A8420FD875B1012F19D02068ED
:1047A000806926EA00000004000C1DD0002040456E
:1047B000EAD00020BDE8F087002044F8300F202127
:1047C0006173A073216941F02001216120730120F0
:1047D000F0E72068406926EA00000004000C01D0E0
:1047E0000020E4E70120E2E70120E0E72DE9F047BF
:1047F00004460E46154698464FF000094FF0200A31
:10480000C6F3074725E020684069C043400517D438
:104810002068016841F40071016021686FF48060D4
:104820004861C4F8309084F83DA084F83E90206C34
:1048300040F00400206484F83C900120BDE8F0873B
:10484000681C06D0FEF786F8A0EB0800A8420BD83B
:1048500055B1012F16D02068806926EA00000004B7
:10486000000CD0D10020E9E7C4F8309084F83DA0D6
:1048700084F83E90206C40F02000206484F83C9046
:104880000120DBE72068406926EA00000004000CF4
:10489000E8D0B8E72DE9F04104460D46164600275A
:1048A0004FF0200819E04069C043C0060FD42168CA
:1048B0006FF010004861276384F83D8084F83E70F3
:1048C000206C206484F83C700120BDE8F081FEF784
:1048D00041F8801BA84207D835B120684169C94317
:1048E0004906E0D40020F0E744F8307F84F80D80DA
:1048F000A773206940F02000206127730120E4E7BE
:1049000070B504460D4616460DE02046FFF711FE31
:1049100008B1012070BD681C05D0FEF71BF8801B94
:10492000A84207D835B120684069C0430006ECD4DE
:10493000002070BD002044F8300F20216173A07367
:10494000216941F0200121612073012070BD70B503
:1049500000244FF4FB750021012000F055F8641C81
:10496000A4B2AC42F7D970BD10B51A4C0122114661
:104970002046FDF7E7FF002202212046FDF7E2FF77
:104980000A20FDF74BFE012202212046FDF7DAFF47
:104990002121002000F038F8C821002000F034F870
:1049A0000621002000F030F81321002000F02CF840
:1049B0002021002000F028F8FFF7C9FF0C2100207B
:1049C00000F022F820460022BDE810400121FDF74A
:1049D000B9BF00000004024010B50A4A50701170BF
:1049E000C0F15300C1F105018030C0B24031CCB2FA
:1049F0000146002000F008F82146BDE810400020E4
:104A000000F002B8000000202DE9F04104460D46F8
:104A1000234F012211463846FDF794FF0022012161
:104A20003846FDF78FFF2CB1012204213846FDF7EF
:104A300089FF04E0002204213846FDF783FF0024AB
:104A4000184E002220213046FDF77CFF280605D5B0
:104A5000012280213046FDF775FF04E0002280210D
:104A60003046FDF76FFF012220213046FDF76AFF37
:104A70006806050E641CE4B2082CE2D30022202153
:104A80003046FDF75FFF002280213046FDF75AFFD8
:104A90003846BDE8F04101221146FDF753BF000042
:104AA00000040240000002402DE9F04186B01421CC
:104AB00001A8FBF7D5FB00244148016841F004013F
:104AC0000160016801F004010091016841F080017A
:104AD0000160016801F080010091016841F001016D
:104AE0000160016801F001010091016841F00201DB
:104AF0000160006800F002000090324E4FF4005553
:104B0000002229463046FDF71DFF2F4F00224FF4AB
:104B1000CD513846FDF716FFDFF8B080002241F294
:104B200017014046FDF70EFF012242F220014046E8
:104B3000FDF708FF0195012502950394049401A94E
:104B40003046FDF72BFEA02001900295039403262A
:104B5000049601A93846FDF721FE07200190029531
:104B60000394049601A94046FDF718FE43F2200085
:104B7000019002950394049401A94046FDF70EFEAE
:104B80004FF4C850019002950394049401A938464B
:104B9000FDF704FE1020019002950394022004907A
:104BA00001A94046FDF7FAFD6802019002940394C2
:104BB00001A94046FDF7F2FD06B0BDE8F081000016
:104BC0003038024000080240000002400004024069
:104BD00010B50D480B49016042F21071416000218F
:104BE0008160C1604FF48042026141618161C161B5
:104BF0000162FDF7B7FE002803D0BDE81040FDF7C5
:104C000051BB10BD005400404407002010B50948B6
:104C100007490160032141604FF4FA618160FEF7AA
:104C20008BF9002803D0BDE81040FDF73BBB10BD59
:104C3000003000409807002010B586B0142101A86C
:104C4000FBF70EFB002400941D481C4901604460E2
:104C50007F218160FF21C160046144618461FEF7AE
:104C600067FE08B1FDF71EFB0D208DF804002F2014
:104C70008DF8050037208DF8060004940594002275
:104C800001A90F48FEF728FF08B1FDF70BFB032031
:104C90008DF8000001208DF8010014208DF802002D
:104CA00015208DF80300002269460548FEF7A8FE8E
:104CB000002801D0FDF7F6FA06B010BD002800402C
:104CC000A407002010B586B0002402940394049435
:104CD00005940094019415481349016046F271212E
:104CE0004160102181604CF24F31C16004618461E8
:104CF000FEF7C8FF08B1FDF7D5FA4FF480500290D7
:104D000002A90A48FFF75CF808B1FDF7CBFA009456
:104D1000019469460548FEF777FF002801D0FDF7AA
:104D2000C1FA06B010BD000000040040C407002016
:104D300010B586B000240294039404940594009462
:104D4000019414481249016053214160102181608F
:104D50000121C16004618461FEF794FF08B1FDF791
:104D6000A1FA4FF48050029002A90A48FFF728F8F0
:104D700008B1FDF797FA0094019469460548FEF7DB
:104D800043FF002801D0FDF78DFA06B010BD0000EA
:104D9000000800400408002010B50C480A490160D2
:104DA0004FF49641416000218160C16001610C2295
:104DB00042618161C161FFF7CFF9002803D0BDE8EE
:104DC0001040FDF76FBA10BD0010014044080020EC
:104DD00010B50C480A4901604FF4E13141600021EF
:104DE0008160C16001610C2242618161C161FFF794
:104DF000B3F9002803D0BDE81040FDF753BA10BD49
:104E0000004400408408002000B587B020210D48F0
:104E1000FBF726FA0C4810A190ED000B0B488DED26
:104E2000040B90ED000B0A488DED020B007800900A
:104E3000084890ED000B034853EC102B00F082FB68
:104E400007B000BDC40800207002002060020020EE
:104E5000780200205802002024252E32663A256868
:104E600068753A252E32663A252E316623000000F9
:104E7000FEE770477047010901EB8101490000F02E
:104E80000F000844C0B27047002102E0491C0A38F4
:104E9000C0B20A28FAD2090740EA1160704770B51B
:104EA00005462868C168490613D44FF0FF31C16038
:104EB000FDF750FD04464FF47A7606E0FDF74AFD13
:104EC000001BB04201D9032070BD2868C0684006AD
:104ED000F4D5002070BD000010B58AB00024039402
:104EE0000494059406941548FBF7C5F91349C21EAE
:104EF000C91C03A8FBF79BF907A808A9CDE9001076
:104F000009AB0F4A0FA103A8FBF7DEF912489DF881
:104F1000241001709DF8201041709DF81C108170C4
:104F2000C4600461014600228830FEF7D5FD0028E8
:104F300001D0FDF7B7F90AB010BD0000E408002069
:104F4000E4020020257320256868753A2568687595
:104F50003A256868750000001C07002030B5002263
:104F60000021074BC4095D5C04FB0522D2B2400658
:104F7000000E491CC9B20829F4D3104630BD000008
:104F8000030000207047000002490870014600201D
:104F9000FFF722BD000000207047000030B597B039
:104FA00030210BA8FBF75CF9142106A8FBF758F990
:104FB000142101A8FBF754F900252548016841F0A8
:104FC00080510160006800F0805000902148016825
:104FD00021F4404141F400410160006800F4404088
:104FE00000900D200B904FF480300C9001200D901C
:104FF00010900224119480051290192013904FF400
:10500000A870149004201590072016900BA8FEF7A6
:1050100059FA08B1FDF746F90F2006900794089554
:105020004FF4805009900A95022106A8FEF72AF94C
:1050300008B1FDF737F901944FF48070049001A88E
:10504000FEF772F8002801D0FDF72CF917B030BD3B
:1050500040380240007000400548016841F470018A
:10506000016003494FF0006080390860704700001C
:1050700088ED00E00148FEF715BF0000740900202C
:105080000148FEF70FBF0000C40700200148FEF7EB
:1050900009BF000004080020F0B502681D4C1E4D39
:1050A0001E4E1F4F4FF0804CA04207D0604505D0E8
:1050B000A84203D0B04201D0B84203D122F070031D
:1050C0004A681A43A04210D060450ED0A8420CD0C6
:1050D000B0420AD0B84208D0124B984205D0124BC9
:1050E000984202D0114B984203D122F44073CA680F
:1050F0001A434B6922F080021A4302608A68C26236
:105100000A688262A04201D10969016301214161FB
:10511000F0BD000000000140000400400008004015
:10512000000C0040004001400044014000480140A4
:1051300010B5846824F47F4442EA03220A432243E0
:10514000826010BD826822F070020A4342F00701BB
:105150008160704710B5036A046A24F00104046298
:10516000846924F0F00444EA021423F00A020A439A
:105170008461026210BD10B5036A23F0100303625C
:105180008469036A24F4704444EA023223F0A003E1
:1051900043EA01118261016210BD10B5806B0021EC
:1051A000C185C184FEF74BFF10BD0168CA6822F4B7
:1051B0009072CA6001684A6922F001024A612021A6
:1051C00080F83A10704710B50168CA6822F04002B2
:1051D000CA60202180F83910FFF731F9002010BD96
:1051E00010B590F83A10222901D0022010BD816834
:1051F000B1F5805F11D0016919B30168496801F008
:105200007F03816A4A1C82620B70C18D491E0904AA
:10521000090CC1851CD0002010BD816A02693AB119
:1052200002685268D2B20A80816A491C8162ECE746
:1052300002685268C2F308020A80816A891C81628E
:10524000E3E701684A68816A4B1C83620A70DCE705
:105250000168CA6822F02002CA600168CA6822F4A4
:105260008072CA6001684A6922F001024A61202105
:1052700080F83A10FFF734F8002010BD2DE9F04116
:10528000044620680169E26821F44051114301613C
:10529000A1682069E2690143606910430143206805
:1052A000C26849F20C639A430A43C26020684169AC
:1052B000A26921F4407111434161E0696549664A80
:1052C0001927642532264FF00008B0F5004F32D080
:1052D0002068904201D088427ED1FEF7ADF80146A9
:1052E0006068830F8200A1FB0701FAF76FFF014698
:1052F000B0FBF5F06FF01802504301EB800006EBB5
:105300000010B0FBF5F000F0F002B1FBF5F002EB9D
:105310000012B1FBF5F06FF01803584301EB800069
:1053200006EB0010B0FBF5F0216800F00F00104410
:105330008860BDE8F0812068904201D088422CD17D
:10534000FEF77AF8014660680218A1FB070148EBF6
:105350000803FAF73BFF0146B0FBF5F00201B1FB91
:10536000F5F06FF01803584301EB800006EBC00026
:10537000B0FBF5F000F0F80002EB4002B1FBF5F0F5
:10538000584301EB800006EBC000B0FBF5F021684C
:1053900000F0070010448860CBE7FEF73DF80146B7
:1053A00060680218A1FB070148EB0803FAF70EFF3B
:1053B0000146B0FBF5F00201B1FBF5F06FF0180308
:1053C000584301EB800006EBC000B0FBF5F000F0A5
:1053D000F80002EB400200E00EE0B1FBF5F05843AC
:1053E00001EB800006EBC000B0FBF5F0216800F097
:1053F0000700104488609CE7FEF70EF801466068DD
:10540000830F8200A1FB0701FAF7E0FE0146B0FB23
:10541000F5F06FF01802504301EB800006EB00102E
:10542000B0FBF5F000F0F002B1FBF5F002EB00127A
:10543000B1FBF5F06FF01803584301EB800006EB69
:105440000010B0FBF5F0216800F00F0010448860F8
:105450006FE70000001401400010014090F839107F
:10546000212901D0022070478168B1F5805F0CD0FE
:10547000016A4A1C0262026809785160C18C491EA7
:105480000904090CC18410D019E0016A0268098876
:10549000C1F308015160016919B1016A491C016237
:1054A000ECE7016A891C0162E8E70168CA6822F03A
:1054B0008002CA600068C16841F04001C1600020FC
:1054C00070472DE9F04104460E4617469846069D62
:1054D0001DE0681C1BD02DB1FDF73CFAA0EB0800C5
:1054E000A84214D92068C16821F4D071C160206835
:1054F000416921F001014161202084F8390084F8DC
:105500003A00002084F838000320BDE8F0812068CC
:10551000006836EA000004D00020B842D9D000204C
:10552000F3E70120F9E700000148FEF789BD00001C
:10553000440800200148FEF783BD000084080020D5
:10554000FEE700000FB4084B10B504A902AA0398A7
:1055500000F0DEF8044602A9002000F070FC2046AE
:1055600010BC5DF814FB00003F5E00080907090E3F
:10557000002804DB00F1E02080F80014704700F000
:105580000F0000F1E02080F8141D704702E008C809
:10559000121F08C1002AFAD170477047002001E0AD
:1055A00001C1121F002AFBD1704700002DE9FF5FE7
:1055B000DDE90220010DDDF838B0024318D044F6D1
:1055C0001050A1F2FF3141430D140F98012820D053
:1055D000A5EB0B00401C5FEA000A4FF00004474EA9
:1055E000DFF81C91A046504616D5CAF1000728E006
:1055F0000F98012443A2012808D0002100980F9B96
:10560000C0E90021C0E90243BDE8FF9F6FEA0B013A
:10561000F4E7CBF10000DEE7074612E0F80707D019
:105620002246334640464946FBF727F880468946DE
:105630002246334610461946FBF71FF804460E462D
:105640007F10002FEAD1DDE90201BAF1000F4246D6
:105650004B4602DAFBF711F801E0FBF780F804464D
:105660000E460022284BFBF71FFA03D84FF0FF30FD
:10567000014607E00022254B20463146FAF756FF47
:10568000FBF7F9F9102409E0002C0ADB0A220023B9
:10569000FAF79CFD019B30321A55641E50EA010254
:1056A000F2D1641C019AC4F1110314440F9A012A27
:1056B00003D0012208430DD10AE0084304D00020A2
:1056C0004FF0110B0F9080E7A3EB0B056D1E0DE063
:1056D0005B4504DD4FF0000205F1010504E003DA4B
:1056E0004FF00002A5F10105002AECD000980F99B7
:1056F000C0E90231C0E9004586E70000000024400F
:105700000000F03F300000000000F0430000E03FE8
:105710002DE9FF4F95B09B468946064600250FE2CE
:10572000252877D100242746F84A0121059400E076
:10573000044316F8013F203B01FA03F01042F7D171
:1057400030782A2811D06FF02F033078A0F1300282
:10575000092A16D8059A44F0020402EB820203EBF0
:1057600042021044761C0590EFE759F8042B05928D
:10577000002A03DA504244F40054059044F0020435
:10578000761C30782E2816D116F8010F44F0040448
:105790002A280DD06FF02F023078A0F13003092BAA
:1057A00009D807EB870302EB4303C718761CF3E71E
:1057B00059F8047B761C30786C280FD006DC4C2816
:1057C00017D068280DD06A2814D104E0742810D0AE
:1057D0007A280FD10DE044F400140AE044F4801458
:1057E00001E044F440147278824202D104F580143E
:1057F000761C761C307866280BD013DC582877D0BE
:1058000009DC002875D04528F6D04628F4D0472872
:105810001AD19DE118E0632835D0642879D0652835
:1058200012D195E1702873D008DC6728F1D069287F
:105830006FD06E280DD06F2806D1B5E073282CD01C
:10584000752875D0782874D05A46179990476D1CE2
:1058500075E1C4F30250022809D003280DD0D9F80D
:10586000001004280DD00D6009F1040967E1D9F892
:105870000010EA17C1E90052F6E7D9F800100D80D0
:10588000F2E70D70F0E719F8041B8DF80010002006
:105890008DF80100EA46012003E059F804AB4FF00F
:1058A000FF3061074FF0000102D40DE008F1010163
:1058B0008846B9420FDA8045F8DB1AF8081000294B
:1058C000F4D108E008F1010188468142FADB1AF8B8
:1058D00008100029F6D105985B46A0EB0807214681
:1058E0003846179A00F094FA284400EB080507E0C0
:1058F0004DE029E10DE01AF8010B5A46179990473F
:10590000B8F10108F7D25B4621463846179A13E1F1
:1059100042E00A220092C4F302524FF0000A022A27
:1059200008D059F804CB032A4FEAEC710AD00DE0F5
:1059300029E02AE009F1070121F00702F2E802C19B
:10594000914609E00FFA8CFC4FEAEC71042A03D16E
:105950004FFA8CFC4FEAEC71002907DA0A46002165
:10596000DCF1000C61EB02012D2202E0220504D5DE
:105970002B228DF80420012203E0E20701D020222F
:10598000F7E7904659E00A2102E010220DE01021CD
:105990004FF0000A00910BE010224FF0000A44F093
:1059A00004040827009203E008224FF0000A009246
:1059B000C4F30252022A05D059F804CB0021032A6D
:1059C00008D009E009F1070121F00702F2E802C15D
:1059D000914605E01FFA8CFC042A01D10CF0FF0C63
:1059E0004FF00008220728D5702806D0009B83F0CE
:1059F000100353EA0A0305D00EE040228DF804207C
:105A0000012208E05CEA010206D030228DF8042071
:105A10008DF8050002229046009B83F0080353EAAC
:105A20000A030AD15CEA010201D1620705D53022DE
:105A30008DF804204FF001087F1E582804D034A0B0
:105A400003900EA802900DE036A0F9E75346604699
:105A5000009AFAF7BBFB84460398825C0298401ECA
:105A6000029002705CEA0100F0D1029806A9081ABF
:105A700000F1200A600702D524F4803400E00127F9
:105A8000574502DDA7EB0A0000E0002000EB0A0109
:105A9000009005984144401A0590E00306D45B4607
:105AA0002146179A059800F0B3F90544002706E04F
:105AB00001A85A46C05D179990476D1C7F1C474549
:105AC000F6DBE0030CD55B462146179A059800F0FB
:105AD0009FF9054404E030205A46179990476D1C01
