:020000040800F2
:1000000080140020A90100084B3A000811300008B4
:10001000493A0008190E0008D94000080000000005
:100020000000000000000000000000003D3C00084F
:10003000A5100008000000004D3A00083F3C0008F1
:10004000C3010008C3010008C3010008C301000880
:10005000C3010008C3010008C3010008C301000870
:10006000C3010008C3010008C3010008C301000860
:10007000C3010008C3010008C3010008C301000850
:10008000C3010008C3010008C3010008000000000C
:10009000000000000000000000000000C301000894
:1000A000C3010008013D0008C3010008C3010008A6
:1000B000C3010008C30100080D3D0008C30100088A
:1000C000C3010008C3010008C3010008C301000800
:1000D000C3010008CD400008C30100080000000073
:1000E000C3010008C3010008C301000800000000AC
:1000F000000000000000000000000000C301000834
:1001000000000000C3010008C3010008C30100088B
:1001100000000000000000000000000000000000DF
:10012000C3010008C3010008C3010008C30100089F
:10013000C3010008000000000000000000000000F3
:10014000000000000000000000000000C3010008E3
:10015000C3010008C3010008C3010008C30100086F
:10016000C3010008C30100080000000000000000F7
:10017000000000000000000000000000000000007F
:1001800000000000C30100080000000000000000A3
:10019000C3010008DFF80CD000F07CFC00480047E9
:1001A000095200088014002006488047064800478E
:1001B000FEE7FEE7FEE7FEE7FEE7FEE7FEE7FEE717
:1001C000FEE7FEE7E53C0008950100082DE9F05F39
:1001D0000546002092469B468846064681464024B6
:1001E0001BE0284641464746224600F060FB534646
:1001F0005A46C01A914110D311461846224600F0C3
:1002000047FB2D1A67EB01084F46224601200021CB
:1002100000F03EFB17EB00094E41201EA4F1010443
:10022000DFDC484631462A464346BDE8F09F40EAB7
:1002300001039B0703D009E008C9121F08C0042A64
:10024000FAD203E011F8013B00F8013B521EF9D24B
:100250007047D2B201E000F8012B491EFBD2704773
:100260000022F6E710B513460A4604461946FFF782
:10027000F0FF204610BD421C10F8011B0029FBD1E5
:10028000801A70470FB400B58DB010A909900B907B
:1002900000914FF0FF300A9000200C900548069026
:1002A000054807906A4609A80F9900F037FB0DB082
:1002B0005DF814FB39090008570900082DE9FF5FB4
:1002C0001D464FF0FF3BD5E9014691465F464FF092
:1002D0000008A9697F1C01988847296A82468847D7
:1002E0000028F6D1BAF1FF3F0CD024F4C064002EF0
:1002F00019DD600614D5BAF12B0F09D0BAF12D0F14
:100300000ED103E0584604B0BDE8F09F44F4806489
:10031000A9697F1C01988847761E8246002E02DD5F
:10032000BAF1300F03D0B9F1000F26D032E0A9693D
:10033000761E44F400747F1C019888478246002E84
:1003400005DDBAF1780F06D0BAF1580F03D0B9F134
:10035000000F10D01EE0B9F1000F02D0B9F1100F5C
:1003600018D1A969761E24F400747F1C019888476F
:100370008246102002E0082000E00A20814609E0C1
:1003800008FB0908A969761E44F400747F1C0198D3
:1003900088478246002E05DD4946504600F0A9FAFE
:1003A0000028EDDAE96901988847A00502D46FF0CA
:1003B0000100A8E7E00725D1600613D5600502D546
:1003C000C8F1000000E0404629680A1D2A6009685B
:1003D000220501D5087015E0220701D5088011E03B
:1003E00008600FE02868011D29600068210502D51A
:1003F00080F8008006E0210702D5A0F8008001E027
:10040000C0F8008038467EE72DE9FF5FD2E901A7FA
:100410004FF00008916999461446DDF838B0464619
:1004200001988847054659EA0B0005D009E0A16903
:10043000761C019888470546216A28468847002887
:10044000F5D1681C03D05FEACA7005D015E04FF003
:10045000FF3004B0BDE8F09F2068011D2160D0F896
:1004600000800AE05FEACA7001D108F8015BA16967
:10047000761C7F1E019888470546002F1ADD681CF0
:1004800018D0B9F1000F0DD0E81705EBD06042117C
:1004900020F01F0059F822102A1A01209040014232
:1004A000E0D107E0BBF1000FDCD1216A2846884784
:1004B0000028D7D0E16901988847BBF1000F07D128
:1004C000002E05DD5FEACA7002D1002188F8001015
:1004D000A068B84203DDBBF1000F03D017B16FF085
:1004E0000100B6E73046B4E72DE9FE4F804681EAC9
:1004F0000300C00F0C46009021F0004123F000459E
:10050000B8EB0200A94105D24046214690461C4660
:100510000B46024623F00040104347D0270DC7F397
:100520000A00C3F30A510290401A019040286BDA86
:10053000C3F3130040F4801B0098924620B10023BF
:10054000D2EB030A63EB0B0B01985946C0F1400252
:10055000504600F09DF906460D4650465946019A10
:1005600000F0B5F910EB08006141002487EA115250
:1005700084EAE7731A4340D0009A62B3019A012AD1
:100580004FEA075215DC001B61EB02014FF00042FD
:1005900002EA0752CDE90042001C41F580113246C3
:1005A0002B4600F0F8F903B0BDE8F08F4046214635
:1005B000F9E7001B61EB0201001C41F580130018F4
:1005C0005B412018A2F5001747EB030140EAD57004
:1005D000B6196D4111E06D084FEA360645EAC0755F
:1005E0004FEA0752001B61EB0201001C41F580112C
:1005F00049084FEA30000019514132462B4603B0FA
:10060000BDE8F04F00F0B8B9009801224000002387
:10061000D0EB020263EBE073009821464FEAE074EE
:10062000B8EB000061EB0401E9E783F000435BE70E
:1006300081F0004158E72DE9FE4F81EA030404F000
:10064000004421F0004100944FF0000B23F00043E0
:1006500050EA01045ED052EA03045BD0C3F30A54AB
:10066000C1F30A552C44A4F2F3340194A0FB0254C4
:10067000C1F3130141F48011C3F3130343F4801356
:1006800001FB024400FB034E840A970A44EA8154AA
:1006900047EA8357A4FB076802958D0A05FB078587
:1006A0004FEA932C04FB0C542705029D4FEA065891
:1006B00047EA1637B5EB08056EEB070C870E920E6E
:1006C00047EA811742EA8312A7FB0201B6EB0B014E
:1006D00064EB00042B0D43EA0C335E1844EB1C5012
:1006E000DA465146E7FB0201C5F313044FEA0B3328
:1006F00043EA14534FEA0432019C43EA0603A4F18F
:100700000C040294009CCDE900B400F044F903B05D
:10071000BDE8F08F00200146F9E72DE9F04D81EAB0
:10072000030404F0004B21F0004514464FF0000A8A
:1007300023F0004150EA050220D054EA01021DD006
:10074000C5F30A570246C5F31303C1F31300C1F3FF
:100750000A5640F4801543F48013A7EB0608101BDB
:10076000D64608F2FD3873EB050002D308F1010804
:1007700001E092185B41B8F1000F03DA0020014656
:10078000BDE8F08D00204FF48011064684460EE04F
:10079000171B73EB050705D3121B63EB0503064319
:1007A0004CEA010C49084FEA300092185B4150EACC
:1007B0000107EDD152EA030012D082EA040083EA75
:1007C0000501084305D0101BAB4106D201220023CE
:1007D00006E000224FF0004302E06FF001025310E8
:1007E0001AEB06004CEB085110EB0A0041EB0B0131
:1007F000BDE8F04D00F0C0B80EB5C10F80EAE07062
:100800000844CA07002140F233438DE80E000A462F
:100810000B4600F0C0F803B000BD0EB540F2334106
:1008200002910021CDE900110A460B4600F0B3F811
:1008300003B000BD30B5041E71F1000404DB4FF0BD
:100840000044404264EB0101141E73F1000405DB17
:100850001C464FF00043524263EB04038B4208BF37
:10086000824230BD30B50B460146002020220124D3
:1008700009E021FA02F59D4205D303FA02F5491B6E
:1008800004FA02F52844151EA2F10102F1DC30BD84
:10089000202A04DB203A00FA02F100207047914040
:1008A000C2F1200320FA03F3194390407047202A35
:1008B00004DB203A21FA02F00021704721FA02F30A
:1008C000D040C2F120029140084319467047202AC7
:1008D00006DBCB17203A41FA02F043EAE07306E068
:1008E00041FA02F3D040C2F1200291400843194678
:1008F00070473A2800D2303820F02002412A01D334
:10090000A2F13700884201D34FF0FF30704700005A
:10091000026811441378016018467047D160044999
:1009200051610449116200211161114600F0CAB8F9
:1009300011090008B90A0008426842B1016811F8BB
:10094000013B23B1521EC0E9001218467047012135
:10095000C160881E704742685AB1C368016843B9D4
:1009600083688B4205D0491E521CC0E9001200204A
:1009700070474FF0FF30704710B5141E73F100043C
:1009800008DA401C41F1000192185B411A4301D181
:1009900020F0010010BD2DE9F04D92469B4611B1AB
:1009A000B1FA81F202E0B0FA80F220329046FFF70D
:1009B0006FFF04460F4640EA0A0041EA0B01534626
:1009C0005A46084313D0114653EA010019D0C8F122
:1009D00040025046FFF76BFF05460E46504659460B
:1009E0004246FFF755FF084305D0012004E02046AA
:1009F0003946BDE8F08D0020054346EAE0762C43F9
:100A000037430A986305E40AA0EB08000022FD0AB8
:100A100044EA47540A3002D500200146E9E70105BF
:100A200010196941DDE9084500196941BDE8F04D3B
:100A3000A2E7C1F30A52C1F3130140F2FF3341F4BC
:100A400080119A4202DA00200146704740F2334397
:100A50009A42A2F2334202DC5242FFF728BFFFF76C
:100A600017BF000030B5041E71F1000404DB4FF025
:100A70000044404264EB0101141E73F1000405DBE5
:100A80001C464FF00043524263EB0403994208BFF7
:100A9000904230BD064C074D06E0E06840F001038F
:100AA00094E8070098471034AC42F6D3FFF776FB82
:100AB000E4590008045A0008C0B24FF4F05100F0A5
:100AC00097B900002DE9F34F8BB04FF0000801F10A
:100AD0000C000C464FF0010B46460DF1080A019040
:100AE000626901210198904705002DD0252D2CD059
:100AF000216A8847C0B16269012101989047216A43
:100B000088470028F7D1411E62690198904700E0AC
:100B1000761CA1690B988847216A88470028F7D17D
:100B2000E1690B988847DBE7A1690B98884707467E
:100B3000A84201D1761CD3E7E1690B9888477F1C56
:100B400002D1B8F1000F6FD046E1002762693D463F
:100B50003946019890472A2804D1626901210198F9
:100B600090470125DFF8849262690121019890473E
:100B7000A0F130010A290AD24F45E5DC07EB8701D5
:100B800000EB4107303FDFD445F01005ECE7E90604
:100B900001D46FF000476C280AD04C2814D0682884
:100BA00015D06A280DD074281CD07A281AD01DE0E0
:100BB00062690121019890476C2802D045F0040534
:100BC00014E045F002050DE045F020050AE06269F9
:100BD000012101989047682802D045F0080505E0FA
:100BE00045F400656269012101989047C4E9015705
:100BF00065283DD019DC58287AD00CDC452837D040
:100C000004DC252826D0412831D131E046282FD0D8
:100C100047282CD12CE05B2877D0612828D0632886
:100C20007CD0642823D15AE0D0E06F2848D008DC7B
:100C300066281DD067281BD0692821D06E2816D1C0
:100C400027E0702845D0732868D0752847D07828C9
:100C50000DD14DE0A1690B988847054625283FF442
:100C600069AFE1690B9888476D1C3FF46AAFB3E048
:100C700023466A466FF001000B99AFF300809EE0B7
:100C800045F040006060A80723464FF0000236D4CC
:100C90003EE0E8077FF447AF2068011D216000684F
:100CA000290501D506701BE7290701D5068017E73E
:100CB000A90703D5F117C0E9006111E706600FE746
:100CC00045F040006060A80723464FF0080216D4A4
:100CD0001EE040F60E0125EA0100606016E045F0D6
:100CE00040006060A80723464FF00A0207D40FE0D7
:100CF00045F040006060A80708D5234610226FF039
:100D000001000B99AFF3008059E007E02346102261
:100D10006FF001000B99FFF7D1FA50E04FF0000996
:100D20004F464B46632802D05B2806D040E0E806D9
:100D300001D40120A06001273AE0626901210198F5
:100D400090475E2805D14FF0010962694946019834
:100D50009047216939B900210A46534643F82120BA
:100D6000491C0829FADBB0B3216969B9C11700EB46
:100D7000D16253110AEB830122F01F02821A012073
:100D80000B68904003430B60626901210198904712
:100D90005D28E8D1B9F1000F09D00020514651F883
:100DA0002020D24341F82020401C0828F7DB02AB6A
:100DB000224600976FF001000B99FFF725FB0028F2
:100DC0000CDA401C08D1BBF1000F05D04FF0FF300A
:100DD0000DB0BDE8F08FFFE74046F9E7E90701D124
:100DE00008F1010806444FF0000B79E6CCCCCC0C9E
:100DF0007F2801D9002208E0064A02EB5002C00712
:100E0000127800D1120902F00F0201209040084030
:100E100070470000A1590008FEE7000070B50024EB
:100E200000F028F8124D04E0641CE4B2012004F044
:100E300021F91021284600F0A7FB10B1642CF3D350
:100E40000FE0642C0DD2002404E0641CE4B2012005
:100E500004F010F91021284600F096FB18B1642C1C
:100E600004D3012070BD642CEFD3FAE7002070BDDD
:100E70000004024000B585B014216846FFF7F0F980
:100E80001020009000200190012002900220039089
:100E90006946024800F0AEFA05B000BD0004024009
:100EA00000B585B014216846FFF7DAF910200090EC
:100EB0000120019000200290022003906946024820
:100EC00000F098FA05B000BD0004024010B500F033
:100ED0008BF8BDE81040FFF7A1BF000000B585B05A
:100EE000FFF7F4FF0A4904A800F055F8002000902D
:100EF000019002900390064806A10278684603F02C
:100F0000EDF80721684604F059F905B000BD00006E
:100F10004800002048554D493A256868752070659D
:100F20007200000070B50024134D04E0641CE4B2AC
:100F3000012004F09FF81021284600F025FB08B19D
:100F4000642CF3D3002404E0641CE4B2012004F018
:100F500091F81021284600F017FB08B9642CF3D350
:100F6000282004F087F81021284600F00DFB002807
:100F700000D0012070BD00000004024070B50020C8
:100F800004464006050EFFF7CDFF641C2843E4B27B
:100F9000082CF6D370BD2DE9FC410D46064600F045
:100FA00023F8FFF73BFF10B10120BDE8FC810024CE
:100FB0006F46FFF7E3FF3855641CE4B2052CF8D305
:100FC0009DF800109DF801009DF803300A189DF867
:100FD000020003441A449DF804309A4201D129705A
:100FE00030700020E1E7000010B5FFF759FF094C11
:100FF00000221021204600F0CCFA142000F0E8F97D
:1010000001221021204600F0C4FABDE810401E2045
:1010100004F030B8000402401F4A10B51046517861
:101020008078632907D0442935D1542833D1BDE8CD
:10103000104002F03FBD68282DD1D078303810F034
:10104000FF011548427909D0144801290AD0022924
:1010500016D0032917D0042918D00BE01048303AD5
:10106000827007E04FF4805112E0002200E001227C
:1010700000F08FFABDE810400821074804F09EB840
:101080004FF4005104E04FF4804101E04FF400417F
:10109000302AECD1E9E710BD200200200004024014
:1010A0004A0000207047000010B58CB0142102A83F
:1010B000FFF7D6F80024224602A910480B9401F04D
:1010C0005DF900220BA90D4801F036F99DF80900E1
:1010D0009DF80A100A94CDE900019DF808300794A4
:1010E00008940994064A07A107A802F0F7FF032114
:1010F00007A804F063F80CB010BD0000C800002081
:10110000520000202573202530326868753A25305A
:10111000326868753A2530326868750010B523A0CA
:1011200003F0C2FF25A000F0BBF8052000F050F945
:1011300025A000F0B5F8052000F04AF925A000F040
:10114000AFF82BA003F0B0FF42F6E06000F040F9EA
:101150002BA000F0A5F8642000F03AF92BA000F0D5
:101160009FF82DA003F0A0FF642000F031F92EA01D
:1011700000F096F8642000F02BF92FA000F090F812
:1011800038A003F091FF41F2883000F021F93CA033
:1011900000F086F83DA003F087FF4FF47A7000F06E
:1011A00017F93E490020487010BD00004E455457C5
:1011B0004F524B20494E49540000000041542B43EC
:1011C000574D4F44453D310041542B534C454550FC
:1011D0003D32000041542B43574A41503D223830A4
:1011E00031222C2262616F3332383031220000000C
:1011F00057494649434F4E4E454354494E470000D8
:1012000041542B43494653520000000041542B43A4
:1012100049504D55583D300057494649434F4E4E71
:101220002D2D5B4F4B5D000041542B4349504D4FDA
:1012300044453D310000000041542B434950535474
:101240004152543D22544350222C223132392E3205
:1012500030342E3232342E3535222C31303031308C
:1012600000000000436F6E6E656374696E672074E2
:101270006F20446174612055706C6F616465720009
:1012800041542B43495053454E4400004D4F444573
:101290005345542D2D2D5B4F4B5D00004A0000201F
:1012A00010B50446FEF7E7FF82B2642321460548E5
:1012B00001F050FE6423BDE81040022202A1014863
:1012C00001F048BE800100200D0A000010B5044660
:1012D000FEF7D1FF214682B2BDE810404FF47A7389
:1012E000014801F037BE0000800100202DE9FF4FCA
:1012F00083B08A46DDF840B0044601903FE0802884
:101300003DD20D2804D0202808D9203880B206E02C
:101310000AF110001FFA80FA019C2EE00020DFF88D
:101320006C9000264FF0800800900098002506EB96
:10133000001700BF19F8071028FA05F0014206D07F
:101340000AEB060081B2601980B2059A09E0DDE976
:101350000501884207D00AEB060081B2601980B20D
:10136000069A00F015F86D1CEDB2082DE2D3761C3C
:10137000F6B2102ED9D30834A4B20BF1010B9BF8AE
:1013800000000028BBD107B0BDE8F08F98530008DB
:1013900010B514464A1C93B2421C92B202F0E4F912
:1013A0002046BDE8104002F077B890F835100229C9
:1013B00003D08021416501207047052180F8351058
:1013C0000068016821F00101016000207047000001
:1013D00070B5044600F0E2F80546601C02D00448EF
:1013E0000078044400F0DAF8401BA042FAD370BD44
:1013F000580000202DE9F84F00224FF00108032586
:101400004FF00F0E0B6808FA02F42340A34271D18B
:101410004E68012E05D0022E03D0112E01D0122EBF
:1014200015D18668570005FA07FC26EA0C06D1F8A4
:101430000CC00CFA07FC4CEA060CC0F808C0466861
:10144000A6430C79C4F30014944034434460C66846
:10145000570005FA07FC8C6826EA0C06BC403443AA
:10146000C4604C68022C01D0122C13D1D40800EBBC
:101470008404A346D4F8209054074FEAD46A0EFAA5
:101480000AF629EA06090E6906FA0AF646EA090684
:10149000CBF8206004680E7924EA0C0406F00306F9
:1014A000BE40264306604C68E40056D52E4C2668A4
:1014B00046F480462660246822F0030604F4804443
:1014C00000942A4C3444A446D4F808489607370FB1
:1014D0000EFA07F6B443264EB04201D1002615E0BD
:1014E000244EB04201D1012610E0234EB04202D179
:1014F00002260BE031E0214EB04201D1032605E087
:101500001F4EB04201D1042600E00726BE4026430C
:10151000CCF808681B4E34684F689C43FF0300D525
:101520001C433460174E361D34684F689C43BF031C
:1015300000D51C433460134E083634684F689C4312
:10154000FF0200D51C4334600E4E0C3634684F68E1
:101550009C43BF0200D51C433460521C102AFFF488
:1015600051AFBDE8F88F0000443802400030014020
:10157000000002400004024000080240000C02404B
:1015800000100240003C01400069084000D00120EA
:1015900070470AB1816170470904FBE70148806820
:1015A0007047000058000020006C704770B50400C0
:1015B00025D094F83D00002520B984F83C50204601
:1015C00000F03EFA242084F83D002068016821F0F4
:1015D000010101602068016841F400410160206858
:1015E000016821F40041016000F0A6FC4D4A6168E9
:1015F000914201D84C4900E04C49884201D2012077
:1016000070BD4B492368B0FBF1F15E6826F03F06E0
:101610000E435E606368934206D94FF49673594354
:101620004FF47A73B1FBF3F12368491C1E6A26F06C
:101630003F06314319626168914210D84900401E4B
:10164000B0FBF1F2521CC2F30B02042A01D20420B7
:1016500022E0B0FBF1F0401CC0F30B001CE0A268DC
:10166000F2B301EBC10303EB0116431EB3FBF6F328
:101670005B1C43F480431B0549D092B301EBC102CC
:1016800002EB0111401EB0FBF1F0401CC0F30B0057
:1016900040F4804040F400402168CA694CF6FF7372
:1016A0009A431043C861D4E90710014320680268D7
:1016B00022F0C00211430160D4E903010143206814
:1016C000826848F2FF339A4311438160D4E90501EF
:1016D00008432168CA6822F0FF021043C86001E095
:1016E0000EE016E02068016841F001010160256408
:1016F000202084F83D00256384F83E50002070BD12
:1017000001EB4106431EB3FBF6F35B1CB3E701207C
:10171000C2E701EB4101401EB0FBF1F0401CC0F3F9
:101720000B00B7E7A086010080841E0000093D0081
:1017300040420F002DE9F84F1F4690468A46044666
:10174000DDF82890FFF72AFF054694F83D00202891
:1017500075D1192301226C492046009501F0C4FD82
:101760000028F5D194F83C00012868D0012084F8C5
:101770003C0020680168C90703D1016841F00101FC
:1017800001602068016821F400610160222084F872
:101790003D00102084F83E0000262664C4F8248012
:1017A0006785608D20855948E0622B464A46514640
:1017B000204601F0AFFC002878D1208D544F68B14D
:1017C000012814D002282068016816D041F48061F5
:1017D0000160206841698069009087E02068416964
:1017E00081690091016841F4007101607EE0206828
:1017F000016821F480610160F0E721F480610160FB
:101800002068016841F40061E2E7032848D8012814
:101810000AD0022814D04B460022394620460095B3
:1018200001F062FDD8BB27E02A464946204601F078
:10183000DAFDA0BB20680069616A08704DE061E0D4
:101840004B46002239462046009501F04DFD30BB45
:101850002068016841F40071016020680069616AD4
:101860000870606A401C6062218D491E2185618D6F
:10187000491E618521682EE02068016821F480619D
:10188000016020680069616A0870606A401C6062DB
:10189000208D401E2085608D401E6085D0E705E0CC
:1018A0002A464946204601F09EFD10B10120BDE8C0
:1018B000F88F20680069616A0870606A401C606285
:1018C000218D491E2185618D491E618521684A69E6
:1018D000D24352070AD409690170606A401C6062F1
:1018E000208D401E2085608D401E6085208D002843
:1018F0008BD1202084F83D0084F83E6084F83C6061
:101900000020D4E70220D2E7020010000000FFFF11
:10191000040001002DE9F84F1F4690468A46044610
:10192000DDF82890FFF73AFE054694F83D002028A0
:101930007FD11923012240492046009501F0D4FCB3
:10194000002876D194F83C00012872D0012084F858
:101950003C0020680168C90703D1016841F001011A
:1019600001602068016821F400610160212084F891
:101970003D00102084F83E0000262664C4F8248030
:101980006785608D20852D48E0622B464A4651468A
:10199000204601F035FC90B92068416980690090CB
:1019A00036E02A464946204601F050FD50B1206CF1
:1019B000042804D12068016841F40071016001200D
:1019C000BDE8F88F606A216800780861606A401C91
:1019D0006062618D491E6185218D491E89B2218514
:1019E00022685369DB435B070BD451B10078106167
:1019F000606A401C6062608D401E6085208D401EC4
:101A000020852A464946204601F048FC0028CED1D0
:101A1000208D0028C5D154F83D0B016841F40071B8
:101A20000160202004F81E09E67766770020C7E7EA
:101A3000FFE70220C4E70000020010000000FFFFE3
:101A400010B586B0044614216846FEF709FC134918
:101A50002068884220D11248016841F002010160EB
:101A60000068694600F002000590C0200090122036
:101A70000190012002900320039004200490094863
:101A8000FFF7B8FC06481030016841F4001101600E
:101A9000006800F40010059006B010BD005400402E
:101AA000303802400004024070B5040011D02168B3
:101AB0004CF6CC400860216845F255500860D4E9E6
:101AC000000141602168A0688860FFF767FD054656
:101AD00009E0012070BD00BFFFF760FD401B30280A
:101AE00001D9032070BD2068C0680028F4D12168A6
:101AF0004AF6AA200860002070BD00684AF6AA21B4
:101B0000016000207047000002488168027811449B
:101B100081607047580000200B4810B5016841F4FF
:101B200000710160016841F480610160016841F465
:101B300080710160032000F08BF8012000F006F8AE
:101B400000F03EF8002010BD003C024010B50146F8
:101B500088B00022192000F05BF8192000F04AF844
:101B600013480024016841F001010160006805A9E3
:101B700000F001000690684600F0BEF900F0ECF9B4
:101B80000C490D4AB0FBF1F10C48491E026040F2CD
:101B9000E732C0E90324C0E9011400F0D5FE10B11A
:101BA000012008B010BD054800F01AFFF9E7000059
:101BB0004438024040420F00000001404002002033
:101BC0000B4882B0016841F480410160006800F474
:101BD000804000900648001F016841F0805101607C
:101BE000006800F080500090052002B000F030B88E
:101BF00044380240002809DB00F01F020121914017
:101C00004009800000F1E020C0F80011704700009A
:101C1000F0B40E4B1B680C46C3F30223C3F1070557
:101C2000042D00D90425191D072901D2002300E045
:101C3000DB1E012606FA05F1491E214099409E400F
:101C4000761E16403143F0BC02F05CBA0CED00E0A9
:101C5000064900F0070208684FF6FF03184040EA03
:101C60000220034A10430860704700000CED00E0BA
:101C70000000FA052DE9F843044600684FF0010919
:101C8000C1074FF0000601D1400727D5DFF81C81BE
:101C9000C8F86860FFF782FC0746454D05E000BFC5
:101CA000FFF77CFCC01B022857D828680001F7D436
:101CB00060688101207A41EA00703D498431086002
:101CC000C8F86890FFF76AFC074604E0FFF766FC77
:101CD000C01B022841D828680001F7D5207880076A
:101CE00052D533484030016841F0805101600068AE
:101CF000304D00F080500090286840F480702860DB
:101D0000FFF74CFC074604E0FFF748FCC01B022825
:101D100023D82868C005F7D5254D7035286810F4FC
:101D2000407020D0A18901F4407181421BD0286805
:101D300020F440712048C0F80090066029602868AF
:101D4000C00710D0FFF72AFC064641F2883707E0AB
:101D5000FFF724FC801BB84202D90320BDE8F883BA
:101D600028688007F4D5E1681148C1F301220830E2
:101D7000032A12D0016821F4F81101602868A189B2
:101D8000C1F30B01084328602078000703D50B49F5
:101D9000207CC1F8E0010020E0E70268084B22F453
:101DA000F81219400A430260E8E7000000004742C9
:101DB0000038024000700040400E47420010474289
:101DC000FFFCFF0F2DE9F0470E46050065D0DFF858
:101DD0001481D8F80000F7B200F00F00B04207D22B
:101DE00088F80070D8F8000000F00F00B04254D11D
:101DF00028683D4C810712D5400703D5206840F480
:101E0000E05020602878000703D5206840F4604047
:101E100020602068A96820F0F0000843206028783E
:101E2000C0072DD0304968680839012812D002282F
:101E300013D0032811D00968890700292DDA2168F9
:101E400021F0030101432160FFF7A8FB814641F225
:101E5000883A0EE009688903EFE709688901ECE731
:101E6000FFF79CFBA0EB0901514502D90320BDE817
:101E7000F0872068696800F00C00B0EB810FEFD1AB
:101E8000D8F80010404601F00F01B14207D90770A1
:101E9000006800F00F00B04201D00120E7E7287889
:101EA000400705D52068E96820F4E0500843206029
:101EB0002878000706D52068296920F4604040EAA8
:101EC000C100206000F058F82168084AC1F30311EE
:101ED000515CC8400649086006480068FFF736FEB6
:101EE0000020C4E7003C024008380240895900083D
:101EF000640000205C0000200F2202600C4A13687E
:101F000003F003034360136803F0F0038360136876
:101F100003F4E053C36012684FF4E05303EAD202C3
:101F200002610448006800F00F000860704700007C
:101F300008380240003C024004480549006809682E
:101F4000044AC1F38221515CC840704764000020FC
:101F50000838024099590008044805490068096892
:101F6000044AC1F34231515CC8407047640000200C
:101F70000838024099590008154810B5006810F05B
:101F80000C02144813D01449042A0FD0082A0ED189
:101F90000F4C241F2268236802F03F025B0207D522
:101FA0002068C0F38810A0FB010106E0084610BDC0
:101FB0002168C1F38811A1FB00010023FEF706F997
:101FC0002168C1F30141491C4900B0FBF1F010BD8B
:101FD000083802400024F40040787D012DE9F84FD4
:101FE000040076D02078DFF838A3CE4DC00749D062
:101FF000DAF800105046C1F38101012908D00068C9
:10200000C0F3810002280AD1281D0068400206D5CD
:102010002868800336D560680028E2D032E0606826
:10202000B0F5803F10D0B0F5A02F286810D020F474
:1020300080302860286820F4802028606068A0B183
:10204000FFF7ACFA06460CE0286840F48030F4E76D
:1020500040F480202860F7E7FFF7A0FA801B64288F
:1020600073D828688003F7D50CE0FFF797FA064687
:1020700005E000BFFFF792FA801B6428F0D82868BB
:102080008003F7D42078DFF8A08280074FF00009A2
:102090003ED5DAF80010504611F00C0F09D0006858
:1020A000C0F3810002280BD19D48001F0068400248
:1020B00006D42868800715D5E068012809D111E009
:1020C000E068B8B10120C8F80000FFF767FA0646DB
:1020D00005E020E1FFF762FA801B0228C0D82868DB
:1020E0008007F7D52868216920F0F80040EAC10090
:1020F00028600DE0C8F80090FFF750FA064604E0AB
:10210000FFF74CFA801B02281FD828688007F7D4F5
:102110002078000722D5824E844861696C3671B1FF
:1021200001210160FFF73AFA074604E0FFF736FAAB
:10213000C01B022809D830688007F7D50EE0C0F828
:102140000090FFF72BFA074605E082E0FFF726FA3A
:10215000C01B02287DD830688007F7D4207840075C
:1021600068D5DFF8BCB100270BF1380BDBF80000B5
:10217000C0000BD4DBF8001041F08051CBF8001008
:10218000DBF80000012700F080500090684E3068B6
:10219000C00510D4306840F480703060FFF7FEF95D
:1021A000009005E0FFF7FAF90099401A022850D88C
:1021B0003068C005F6D55A4EA068683601280FD0A1
:1021C0000528306810D020F001003060306820F021
:1021D00004003060A068B8B1FFF7E0F900900FE0AC
:1021E000306840F00100F4E740F004003060F7E7A9
:1021F000FFF7D4F90099411A41F28830814266D83C
:1022000030688007F4D50EE0FFF7C8F9009007E0CA
:10221000FFF7C4F90099411A41F28830814256D83B
:1022200030688007F4D42FB1DBF8001021F0805122
:10223000CBF80010A069D0B3DAF800205146C2F301
:102240008102022A4AD00228484607D0C8F8600016
:1022500000E03CE0FFF7A2F904463BE04746C8F83F
:102260006000FFF79BF9064605E000BFFFF796F90F
:10227000801B02282BD828688001F7D4D4E90701F5
:102280000843A16A2B4A490802EB0141626A41EA0C
:102290008211084394F82C1040EA01612048001F85
:1022A000016001203866FFF779F9044605E034E063
:1022B000FFF774F9001B022809D828688001F7D5B8
:1022C0002BE000BFFFF76AF9001B022802D90320A8
:1022D000BDE8F88F28688001F4D41EE00128F7D00B
:1022E0000868E26900F48001914214D1226A00F08A
:1022F0003F0191420FD147F6C071626A014091429D
:1023000009D1A26A00F44031914204D1E16A00F09F
:102310007060884201D00120DAE70020D8E7000091
:10232000083802400038024000004742800E474211
:10233000007000400000FFFF10B500680B464168C8
:102340000D480140080CD870C1F304245C7001F002
:102350003F049C70C1F34231197052B901F077FB10
:10236000D870587801F073FB5870987801F06FFBC3
:102370009870002010BD00003FFFFF0010B50B4615
:102380000168896A596001680969C1F30E019960A1
:10239000006801680E480140C1F305401870C1F3A0
:1023A00006245C7001F07F049C70402404EA114113
:1023B000D97052B901F04BFB1870587801F047FB07
:1023C0005870987801F043FB9870002010BD000011
:1023D0007F7F7F0070B5040002D0607F10B106E0FF
:1023E000012070BD00202077204600F049F802202F
:1023F00060772168CA2048622168532048622046DD
:1024000001F03AFBFF25042618BB206881681B4AAF
:10241000114081602168886862681043D4E9042310
:102420001A43104388602168E068086120680169E8
:10243000228941EA024101612068C16821F08001DE
:10244000C16020688068800607D4204600F0FEF84E
:1024500018B1206845626677C2E72068016C21F4F4
:10246000802101642068016CA26911430164206825
:10247000456201206077002070BD0000BFFF8FFF24
:1024800000680349884202D1024901200860704770
:10249000002800403C0E47422DE9F0470446007FEB
:1024A0000B4601281FD04FF0010984F81C90022030
:1024B0006077DAB19878D97840EA01455878197888
:1024C000000240EA413005432168CA204862216881
:1024D00053204862204601F0CFFA0026FF274FF034
:1024E000040860BB1AE00220BDE8F0875878C106F6
:1024F00003D500F0EF000A305870D87801F0B0FA38
:102500000204587801F0ACFA42EA0022987801F00F
:10251000A7FA0243187842EA4035D5E70F4805404C
:10252000206845602068C16821F08001C160206892
:10253000806880060AD4204600F088F830B1206810
:10254000476284F81D8026770120CDE72068476226
:1025500084F81D9026770020C6E700003FFFFF00AB
:102560002DE9F0470446007F0D46012827D04FF0A3
:10257000010A84F81CA00220607720680026806889
:102580004FEA4060F2B1002800DBEE70A8782978AD
:1025900040EA01476878E978000240EA01400743D1
:1025A0002168CA204862216853204862204601F011
:1025B00063FA4FF0FF084FF00409A0BB16E00220B9
:1025C000BDE8F087002800DBEE70287801F048FABB
:1025D0000204687801F044FA42EA0022A87801F087
:1025E0003FFA0243E87842EA0047D9E71648074035
:1025F000206807602068816821F480218160D5E926
:102600000301084321688A68104388602068C16814
:1026100021F08001C1602068806880060BD42046CC
:1026200000F014F838B12168C1F8248084F81D90B6
:1026300026770120C4E72168C1F8248084F81DA012
:1026400026770020BCE700007F7F7F0070B504463E
:102650000068C16821F0A001C160FEF79FFF054638
:102660004FF47A7607E000BFFEF798FF401BB042B8
:1026700001D9032070BD2068C0688006F4D5002011
:1026800070BD70B5040005D00025A56294F8510016
:1026900010B106E0012070BD84F85050204600F0D3
:1026A00031F8022084F851002068016821F04001CF
:1026B0000160D4E901010843D4E90312114308433E
:1026C00061690843218B01F400710843E169084303
:1026D000216A0843A16A084321680860A0690421AF
:1026E00001EA1040616A0843216848602068C169B6
:1026F00021F40061C1616565012084F8510000206A
:1027000070BD000010B586B0044614216846FDF780
:10271000A7FD13492068884220D112480021026891
:1027200042F480520260006800F4805005900D4829
:102730001438026842F001020260006800F00100F3
:102740000590E02000900220CDE9010103200390D4
:102750000520049069460448FEF74CFE06B010BD03
:102760000030014044380240000002402DE9F84F9B
:10277000044690F8500000271D4616468946012859
:102780000DD04FF0010B84F850B0FEF707FF8046E4
:1027900094F85100BA46012804D002278EE00220A6
:1027A000BDE8F88FB9F1000F7DD0002E7BD003205B
:1027B00084F85100C4F854A0C4F83090A686E68688
:1027C000C4F838A0A4F83CA0A4F83EA0C4F844A0E3
:1027D000C4F840A0A068B0F5004F04D1206801689B
:1027E00041F48041016020680168490603D4016812
:1027F00041F040010160E068B0F5006F606803D00F
:1028000030B3012E24D040E008B1012E1CD1206B42
:1028100021680088C86006E020688168890709D5BA
:10282000216B0988C160206B801C2063E08E401EF4
:10283000E08609E0FEF7B2FEA0EB0800A84202D352
:10284000681C01D031E07DB3E08E0028E4D11FE0A8
:10285000206B21680078087306E02068816889078A
:1028600009D5216B09780173206B401C2063E08E31
:10287000401EE08609E0FEF791FEA0EB0800A842AA
:1028800002D3681C01D010E075B1E08E0028E4D1BD
:1028900042462946204601F051F908B120206065E2
:1028A000A06820B107E008E0FFE7032706E0206802
:1028B000C16880680090606D00B1012784F851B054
:1028C00084F850A038466BE77047704770B590F8B1
:1028D0003C20012A2CD0012480F83C40022280F8C0
:1028E0003D2003685A689D6822F070060A683243EA
:1028F0005A60104B02689A420ED0B2F1804F0BD052
:102900000D4B9A4208D00D4B9A4205D00C4B9A427F
:1029100002D00C4B9A4204D1496825F08003194338
:10292000916080F83D40002180F83C10084670BD61
:10293000022070BD0000014000040040000800407B
:10294000000C00400040014010B5040003D094F892
:102950003D0010B107E0012010BD002084F83C00CC
:10296000204600F00DF8022084F83D00211D20686B
:1029700001F0D2F9012084F83D00002010BD0000D4
:1029800008B500680B49884212D10B48016841F034
:10299000040101600068012200F00400009011466B
:1029A0001E20FFF735F9BDE808401E20FFF722B9C9
:1029B00008BD00000008004040380240022180F8B5
:1029C0003D1001688A6802F00702062A03D00A68EF
:1029D00042F001020A60012180F83D10002070479A
:1029E0000168CA6842F00102CA600068816801F0AB
:1029F0000701062903D0016841F0010101600020B0
:102A00007047022180F83D1001680A6A41F21113F3
:102A10001A4207D10A6A9B101A4203D10A6822F0AF
:102A200001020A60012180F83D100020704770B556
:102A3000044690F83C00012817D0012584F83C504A
:102A4000022084F83D002068826822F0770222F498
:102A50007F4282600868502830D00DDC20284DD09D
:102A600005DC98B310283BD148E0022070BD302827
:102A700044D0402834D139E0602828D0702806D0CE
:102A8000B0F5805F2CD0B0F5005F29D10AE0CB68AB
:102A9000D1E90121206801F08BF92068816841F0BB
:102AA000770109E0CB68D1E90121206801F080F9C4
:102AB0002068816841F48041816011E0CA684968FA
:102AC000206801F087F95021206807E016E0CA6805
:102AD0004968206801F08FF96021206801F072F9DF
:102AE00084F83D50002084F83C0070BDCA684968F5
:102AF000206801F06FF940212068EFE72268014665
:102B00001046EBE7704770B50446006801694FF066
:102B10000005C943890715D4C168C943890711D481
:102B2000E91E016101202077206880698007204626
:102B300002D0FFF7E7FF04E000F098F8204600F02D
:102B400096F8257720680169C943490717D4C168F9
:102B5000C943490713D46FF00401016102202077B3
:102B60002068806910F4407F204602D0FFF7CAFF3A
:102B700004E000F07BF8204600F079F82577206823
:102B80000169C943090716D4C168C943090712D4AA
:102B90006FF008010161042020772068C069800778
:102BA000204602D0FFF7AEFF04E000F05FF82046B9
:102BB00000F05DF8257720680169C943C90617D47C
:102BC000C168C943C90613D46FF010010161082020
:102BD00020772068C06910F4407F204602D0FFF7BC
:102BE00091FF04E000F042F8204600F040F825771D
:102BF00020680169C943C90708D1C168C943C90729
:102C000004D1891E0161204600F032F82068016974
:102C1000C943090609D4C168C943090605D46FF040
:102C2000800101612046FFF74FFE20680169C9431A
:102C3000490609D4C168C943490605D46FF040016B
:102C40000161204600F01EF820680169C943890629
:102C50000BD4C168C943890607D46FF02001016114
:102C60002046BDE87040FFF730BE70BD704770472A
:102C700000680349884201D1FEF746BF7047000053
:102C8000000001407047704770B502680446106844
:102C9000D168536910F00F0F53D003F0010501F410
:102CA00090762E435FD0C20705D0CA0503D5E26BEC
:102CB00042F00102E263420705D5DA0703D0E26B76
:102CC00042F00202E263820705D5DA0703D0E26B25
:102CD00042F00402E263020707D501F020022A4312
:102CE00003D0E26B42F00802E263E26B002A34D0C8
:102CF000800604D5880602D5204601F0A4F8206895
:102D00004069E16BC0F3801001F0080101432046E7
:102D100024D001F08AF82068416949061AD5416932
:102D200021F040014161606BA0B11B490165606BFE
:102D3000FEF73BFB002810D0606B016DBDE87040D2
:102D4000084783060FD58B060DD52046BDE8704099
:102D500001F079B82046FFF796FF70BDFFF793FFAB
:102D60000020E06370BD030606D50B0604D520469F
:102D7000BDE8704001F046B94006F3D54806F1D5EC
:102D8000D168204621F04001D160202184F839101B
:102D900000F03DF970BD00001B3E000870B5040056
:102DA00004D094F83900002510B106E0012070BD70
:102DB00084F83850204600F023F8242084F83900A5
:102DC0002068C16821F40051C160204601F086F8F6
:102DD0002068016921F4904101612068416921F076
:102DE0002A0141612068C16841F40051C160E56376
:102DF000202084F8390084F83A00002070BD0000DB
:102E0000F0B587B0044614216846FDF729FA244F2F
:102E10002268244902230124032507262248BA42B6
:102E200021D1204A1432176847F010071760126842
:102E300002F0100205920A6842F001020A60096875
:102E400001F00101059169028DE87A006946FEF7FB
:102E5000D1FA002202212520FEF7DAFE2520FEF716
:102E6000C9FE07B0F0BD114FBA42FAD10D4A103277
:102E7000176847F400371760126802F400320592B1
:102E80000A6842F001020A60096801F00101059137
:102E90000C218DE87A006946FEF7ACFAE1E7000004
:102EA0000010014030380240000002400044004061
:102EB00090F83A30202B22D1F9B1F2B190F83830A5
:102EC000012B1CD081628285C2850021C163222230
:102ED00080F83A2080F838100168CA6842F480729D
:102EE000CA6001684A6942F001024A610068C1682B
:102EF00041F02001C160002070470120704702208E
:102F00007047000030B411490068096888421BD13D
:102F10000F480E4C0246C1781278A034531CDBB225
:102F2000242908D0232903D02578242D03D004E0B8
:102F30000121417001E0A15403700549012230BC18
:102F4000C91C0248FFF7B4BF30BC704780010020A5
:102F50004A0000202DE9F843044690F839001F4646
:102F600016460D46202850D1B5B1AEB194F83800C0
:102F700001284AD0012084F838004FF00008C4F836
:102F80003C80212084F83900FEF708FBA6848146A6
:102F9000E68484F8388026E00120BDE8F883E08CE0
:102FA000401EE084A0684B46B0F5805F4FF0000201
:102FB0004FF080012046009703D001F054F8E8B9A3
:102FC0000DE001F050F8C8B928882168C0F3080066
:102FD0004860206908B16D1C05E0AD1C03E0216864
:102FE00015F8010B4860E08C0028D8D14B46002230
:102FF00040212046009701F036F808B10320CCE7C5
:10300000202084F839000020C7E70220C5E7704778
:10301000FEE7000010B5002000F05AFA1349002026
:10302000087013A002F040F8154C4FF6FF70208096
:1030300014A002F039F817A002F036F819A002F037
:1030400033F801F087FF1BA002F02EF81BA002F05E
:103050002BF81CA002F028F81CA002F025F81DA0F7
:1030600002F022F844F29550208010BD00000020AC
:103070002020496E74656C6C692D53772020000008
:103080000200002020494F542D5820536572766568
:10309000722000005077642062792041524D204315
:1030A0004D34000032302031333A35343A33362053
:1030B0005765000054454D503A000000514E483AC3
:1030C00000000000494C4C553A00000048554D495D
:1030D0003A0000004E6F20446174612052656376AF
:1030E0002E00000001684A69D24352050FD46FF4E4
:1030F00080624A61002140F8301F202242738173B0
:10310000026942F00402026101730120704700204D
:10311000704700002DE9F84F0446C06A1E469346EA
:103120000D4621680A6842F480620A60082807D0C8
:10313000012805D010F5803F02D0206B112804D162
:103140002068016841F4807101604FF001195B460D
:10315000002249462046009600F0C6F84FF4007859
:1031600040B120680068C00501D5C4F84080032044
:10317000BDE8F88F2069DFF884A0B0F5804F0FD04C
:103180000620216800EAD51747F0F00008613346B1
:103190005A460AF10601204600F0DAF858BB03E06F
:1031A000E8B240F001001CE02168E8B20861334653
:1031B0005A465146204600F0CBF8E0B920684169F4
:1031C00081690091016841F4807101605B460022D1
:1031D00049462046009600F087F80028C1D147F004
:1031E000F1002168086133465A465146204600F0F6
:1031F000AFF80028BCD00120BAE7000002000100AF
:10320000F8B50446C06A1E460D461746082807D082
:10321000012805D010F5803F02D0206B122804D180
:103220002068016841F480710160134600224FF06C
:1032300001112046009600F057F840B12068006860
:10324000C00502D54FF4007020640320F8BD20694A
:10325000B0F5804F0ED00620216800EAD51040F06E
:10326000F000086133463A460B49204600F070F8FA
:1032700078B902E005F0FE0000E0E8B221680861DC
:10328000054933463A46891F204600F061F8002878
:10329000DCD00120F8BD00000800010070B5164622
:1032A0000D4604460DE02046FFF71CFF08B1012043
:1032B00070BD681C05D0FEF771F9801BA84207D8C5
:1032C00035B120684069C0434007ECD4002070BD90
:1032D000002044F8300F20216173A073216941F070
:1032E000200121612073E2E72DE9F0471E46904658
:1032F0000D460446C1F30747DDF8209008E0701C36
:1033000006D0FEF74BF9A0EB0900B0420FD876B11A
:103310002068012F18D0806925EA00000004000C05
:1033200014D000214145EAD00020BDE8F0870020FC
:1033300044F8300F20216173A073216941F020010E
:10334000216120730120F0E74069E5E70121E9E709
:103350002DE9F0479A4691460E46044600254FF067
:103360002008C1F3074725E020684069C0434005B5
:1033700014D42068016841F40071016021686FF481
:1033800080604861256384F83D8084F83E50206C5D
:1033900040F00400206484F83C501FE0B9F1FF3F86
:1033A00008D0FEF7FBF8A0EB0A0149450CD8B9F1AB
:1033B000000F09D02068012F13D0806926EA000091
:1033C0000004000C0BD0CFE744F8305F84F80D8088
:1033D000A573206940F02000206125730120BDE81D
:1033E000F0874069EAE72DE9F041002590460E4656
:1033F0000446202717E04069C043C0060CD454F8A7
:10340000301B6FF01000486144F810596777A577BA
:10341000206A2062257717E0FEF7C0F8A0EB0800CD
:10342000B04208D83EB120684169C9434906E2D498
:103430000020BDE8F08144F8305F6773A573206910
:1034400040F02000206125730120F2E770B5164698
:103450000D4604460DE02046FFF744FE08B101206A
:1034600070BD681C05D0FEF799F8801BA84207D8EC
:1034700035B120684069C0430006ECD4002070BD1F
:10348000002044F8300F20216173A073216941F0BE
:10349000200121612073E2E770B50C4D0446002243
:1034A00001212846FEF775F8012204212846FEF77F
:1034B00070F8200A00F0B8FBE0B200F0B5FB284637
:1034C000BDE8704001221146FEF763B800040240D7
:1034D00070B5064600219F237F22084600F044F97C
:1034E0002C2000F087F9002400253046FFF7D4FF98
:1034F0006D1CA02DF9D3641C802CF5D370BD000089
:1035000010B500F01BF9112000F074F97820FDF7D8
:103510005FFFB12000F06EF9012000F051F92C207E
:1035200000F04EF92D2000F04BF9B22000F062F9C6
:10353000012000F045F92C2000F042F92D2000F088
:103540003FF9B32000F056F9012000F039F92C20A2
:1035500000F036F92D2000F033F9012000F030F9A9
:103560002C2000F02DF92D2000F02AF9B42000F0D5
:1035700041F9072000F024F9C02000F03BF9A22017
:1035800000F01EF9022000F01BF9842000F018F969
:10359000C12000F02FF9C52000F012F9C22000F080
:1035A00029F90A2000F00CF9002000F009F9C320E5
:1035B00000F020F98A2000F003F92A2000F000F939
:1035C000C42000F017F98A2000F0FAF8EE2000F08D
:1035D000F7F8C52000F00EF90E2000F0F1F83620C3
:1035E00000F008F9C02000F0EBF8E02000F002F94C
:1035F0000F2000F0E5F81A2000F0E2F80F2000F0AC
:10360000DFF8182000F0DCF82F2000F0D9F828208F
:1036100000F0D6F8202000F0D3F8222000F0D0F8F7
:103620001F2000F0CDF81B2000F0CAF8232000F086
:10363000C7F8372000F0C4F8002000F0C1F80720D8
:1036400000F0BEF8022000F0BBF8102000F0B8F83F
:10365000E12000F0CFF80F2000F0B2F81B2000F0BE
:10366000AFF80F2000F0ACF8172000F0A9F83320D5
:1036700000F0A6F82C2000F0A3F8292000F0A0F814
:103680002E2000F09DF8302000F09AF8302000F055
:1036900097F8392000F094F83F2000F091F80020CE
:1036A00000F08EF8072000F08BF8032000F088F877
:1036B000102000F085F82A2000F09CF8002000F08F
:1036C0007FF8002000F07CF8002000F079F87F20DF
:1036D00000F076F82B2000F08DF8002000F070F854
:1036E000002000F06DF8002000F06AF89F2000F044
:1036F00067F8F02000F07EF8012000F061F8F62075
:1037000000F078F8002000F05BF83A2000F072F842
:10371000052000F055F8292000F06CF80020FFF794
:10372000D7FE04494FF4FC6008800349002008805C
:1037300010BD0000020000200400002010B5094C5C
:10374000002202212046FDF724FF6420FDF740FE01
:10375000012202212046FDF71CFFBDE81040322067
:10376000FDF736BE000402402DE9F04107461C4635
:1037700015460E462A2000F03DF8002000F020F803
:10378000F8B200F01DF8002000F01AF8AD1CE8B205
:1037900000F016F82B2000F02DF8002000F010F8B3
:1037A000F0B200F00DF8002000F00AF8641CE0B25E
:1037B00000F006F8BDE8F0412C2000F01BB8000036
:1037C00070B50B4C0546002201212046FDF7E1FEB5
:1037D000012204212046FDF7DCFE284600F024FAF1
:1037E0002046BDE8704001221146FDF7D2BE000020
:1037F0000004024070B50B4C054600220121204612
:10380000FDF7C7FE002204212046FDF7C2FE284630
:1038100000F00AFA2046BDE8704001221146FDF78B
:10382000B8BE000000040240F0B587B0142168461D
:10383000FCF716FD27480024016841F004010160EF
:10384000016801F004010591016841F08001016007
:10385000016801F080010591016841F001010160FA
:10386000016801F001010591016841F00201016068
:103870000068194E00F002004FF400550590002238
:1038800029463046FDF785FE144F00224FF21701FE
:103890003846FDF77EFE00950125CDE901546946C5
:1038A00030460394FDF7A6FD4FF207000090CDE9E6
:1038B0000154694638460394FDF79CFD1020CDE97C
:1038C00000050220CDE9024069463846FDF792FD29
:1038D00007B0F0BD3038024000080240000402404A
:1038E00010B586B014216846FCF7BAFC19480024CC
:1038F00017490594C0E900147F218160FF21C0E9C8
:10390000031444618461FEF765FD0D208DF800000D
:103910002F208DF8010037208DF80200039400223B
:1039200069460C480494FEF71BFE03208DF8140032
:1039300001208DF8150014208DF8160015208DF843
:103940001700002205A90348FEF7A6FD06B010BD2A
:1039500000280040C80000200B480A494FF40072BC
:1039600001604FF48271416000218160C16001619A
:10397000C0E90512C1610162416281620A21C1622E
:10398000FEF77FBE00300140E800002010B586B091
:1039900000241248009401940294039404940E4964
:1039A0000594016053214160102181600121C0E92B
:1039B00003148461FEF7C8FF4FF4805000906946FD
:1039C0000648FFF734F8049404A904480594FEF768
:1039D0007DFF06B010BD000000080040400100203F
:1039E00000B587B020210D48FCF73AFC0C4810A127
:1039F00090ED000B0B488DED040B90ED000B0A4889
:103A00008DED020B00780090084890ED000B034804
:103A100053EC102B00F062FB07B000BD0002002049
:103A20004000002030000020480000202800002036
:103A300024252E32663A256868753A252E32663A74
:103A4000252E316623000000FEE77047704701090C
:103A500001EB810100F00F0000EB4100C0B27047A4
:103A6000002102E00A38C0B2491C0A28FAD209072C
:103A700040EA11607047000070B504460068C168F4
:103A8000490614D44FF0FF31C160FDF787FD0546AC
:103A90004FF47A7607E000BFFDF780FD401BB0428F
:103AA00001D9032070BD2068C0684006F4D500200D
:103AB00070BD000010B58EB00024079408940994DE
:103AC00016480A94FCF7D7FB1449C21EC91C07A864
:103AD000FCF7ADFB0CA90BA8CDE900010DAB104A1A
:103AE00010A107A8FCF7CEFB142102A8FCF7B8FB35
:103AF0009DF834008DF808009DF82C008DF8090021
:103B00009DF830008DF80A000594002202A90A48A9
:103B10000694FEF725FD0EB010BD00002002002027
:103B200052000020257320256868753A256868755D
:103B30003A25686875000000C800002038B50446C2
:103B40001248134B0068B0FBF3F04FF47A735843FC
:103B500000906068B0F5827F0DD10B460092002284
:103B60008021204600F016F870B1606D40F0200012
:103B70006065032038BD009830B1401E0090206879
:103B80008068C0430006F6D5002038BD64000020E0
:103B900000366E012DE9F0411D4617460E460446DB
:103BA000DDF8188008E0681C06D0FDF7F7FCA0EBF4
:103BB0000800A8420BD255B12068806836EA0000A0
:103BC00030D00020B842EED10020BDE8F08120685E
:103BD000416821F0E00141606068B0F5827F0BD15F
:103BE000A068B0F5004F02D0B0F5806F04D1206816
:103BF000016821F040010160A06AB0F5005F09D1C1
:103C00002068016821F4005101602068016841F4D6
:103C100000510160012084F85100002084F8500018
:103C20000320D2E70120CDE701B50A23012269462E
:103C30000148FEF79BFD08BDE80000207047704773
:103C400030B597B030216846FCF70AFB14210CA868
:103C5000FCF706FB142111A8FCF702FB1F48002506
:103C6000016841F080510160006800F080501690BA
:103C70001B48016821F4404141F4004101600068A3
:103C8000022400F4404016900D2000904FF4803044
:103C9000019001200290CDE90504800507901920CC
:103CA00008904FF4A870099004200A9007200B9008
:103CB0006846FEF793F90CA90F2081E83100E00275
:103CC000CDE90F0502210CA8FEF77CF8E001149065
:103CD000119411A8FDF7CEFF17B030BD4038024057
:103CE000007000400548016841F47001016003491B
:103CF0004FF00060803908607047000088ED00E0F8
:103D00000148FEF700BF0000400200200148FEF716
:103D1000FABE000040010020F0B502681D4B1E4CA9
:103D20009F031E4D1E4E984207D0B84205D0A042B8
:103D300003D0A84201D0B04204D122F0700C4A68EE
:103D400042EA0C02984210D0B8420ED0A0420CD0E9
:103D5000A8420AD0B04208D0124CA04205D0124C62
:103D6000A04202D0114CA04203D122F44074CA6890
:103D700022434C6922F08002224302608A68C262B8
:103D80000A688262984201D1096901630121416197
:103D9000F0BD0000000001400004004000080040A9
:103DA000000C004000400140004401400048014038
:103DB00010B5846842EA032224F47F440A43224374
:103DC000826010BD826822F070020A4342F007014F
:103DD0008160704710B5036A046A24F0010404622C
:103DE000846924F0F00444EA021423F00A020A432E
:103DF0008461026210BD10B5036A23F010030362F0
:103E00008369046A23F4704343EA023224F0A00376
:103E100043EA01118261016210BD10B5806B00217F
:103E2000C185C184FEF72FFF10BD0168CA6822F466
:103E30009072CA6001684A6922F001024A61202139
:103E400080F83A10704710B590F83A10222901D046
:103E5000022010BD8168B1F5805F11D00169002991
:103E600001681FD0496801F07F03816A4A1C8262A1
:103E70000B70C18D491E0904090CC18518D02BE0B7
:103E80000269816A002A0268526805D0D2B20A80AB
:103E9000816A491C8162ECE7C2F308020A80816AE8
:103EA000891CF7E74A68816A4B1C83620A70E0E765
:103EB0000168CA6822F02002CA600168CA6822F458
:103EC0008072CA6001684A6922F001024A612021B9
:103ED00080F83A10FFF716F8002010BD2DE9F041E8
:103EE000044600680169E26821F440511143016110
:103EF0002169A068E26908436169114308432168A8
:103F0000CA6849F20C639A430243CA602068416957
:103F1000A26921F4407111434161E06919276425C8
:103F20003226B0F5004F354A354920684FF0000879
:103F300006D0884201D0904236D1FEF70DF835E028
:103F4000884201D0904202D1FEF706F801E0FDF769
:103F5000F3FF61684A18A0FB070148EB0803FCF770
:103F600035F90146B0FBF5F00201B1FBF5F06FF059
:103F70001803584301EB800006EBC000B0FBF5F0DE
:103F800000F0F80002EB4002B1FBF5F0584301EB02
:103F9000800006EBC000B0FBF5F000F007002168E0
:103FA00010448860BDE8F081FDF7C6FF61688B0FA3
:103FB0008A00A0FB0701FCF709F90146B0FBF5F008
:103FC0006FF01802504301EB800006EB0010B0FBCD
:103FD000F5F000F0F002B1FBF5F002EB0012B1FBDE
:103FE000F5F06FF01803584301EB800006EB00106A
:103FF000B0FBF5F000F00F00D1E700000014014025
:104000000010014090F83910212901D0022070479A
:104010008168B1F5805F016A0BD04A1C02620268B8
:1040200009785160C18C491E0904090CC1840ED065
:1040300017E009880268C1F308015160016900298D
:10404000016A02D0491C0162ECE7891CFBE70168A8
:10405000CA6822F08002CA600068C16841F040016D
:10406000C160002070472DE9F041984617460E4682
:104070000446069D1DE0681C1BD02DB1FDF78EFA8D
:10408000A0EB0800A84214D92068C16821F4D071BF
:10409000C1602068416921F001014161202084F85C
:1040A000390084F83A00002084F838000320BDE885
:1040B000F0812068006836EA000004D00020B84291
:1040C000D9D00020F3E70120F9E700000148FEF70E
:1040D000DBBD000080010020FEE700000FB4084BAC
:1040E00010B504A902AA039800F0DEF8044602A95C
:1040F000002000F070FC204610BC5DF814FB0000AE
:10410000D74900080907090E002804DB00F1E02068
:1041100080F80014704700F00F0000F1E02080F8F4
:10412000141D704702E008C8121F08C1002AFAD106
:1041300070477047002001E001C1121F002AFBD127
:10414000704700002DE9FF5FDDE90220010DDDF879
:1041500038B0024318D044F61050A1F2FF31414369
:104160000D140F98012820D0A5EB0B00401C5FEA2E
:10417000000A4FF00004474EDFF81C91A04650465D
:1041800016D5CAF1000728E00F98012443A20128A0
:1041900008D0002100980F9BC0E90021C0E902432C
:1041A000BDE8FF9F6FEA0B01F4E7CBF10000DEE70B
:1041B000074612E0F80707D02246334640464946F4
:1041C000FCF739FA8046894622463346104619469E
:1041D000FCF731FA04460E467F10002FEAD1DDE9E4
:1041E0000201BAF1000F42464B4602DAFCF723FA0D
:1041F00001E0FCF792FA04460E460022284BFCF739
:1042000031FC03D84FF0FF30014607E00022254B78
:1042100020463146FCF768F9FCF70BFC102409E056
:10422000002C0ADB0A220023FBF7D0FF019B30326F
:104230001A55641E50EA0102F2D1641C019AC4F1BD
:10424000110314440F9A012A03D0012208430DD10F
:104250000AE0084304D000204FF0110B0F9080E7D4
:10426000A3EB0B056D1E0DE05B4504DD4FF0000276
:1042700005F1010504E003DA4FF00002A5F10105A4
:10428000002AECD000980F99C0E90231C0E900453E
:1042900086E70000000024400000F03F30000000EE
:1042A0000000F0430000E03F2DE9FF4F95B09B4632
:1042B0008946064600250FE2252877D100242746A7
:1042C000F84A0121059400E0044316F8013F203B21
:1042D00001FA03F01042F7D130782A2811D06FF09C
:1042E0002F033078A0F13002092A16D8059A44F03D
:1042F000020402EB820203EB42021044761C05909A
:10430000EFE759F8042B0592002A03DA504244F4EF
:104310000054059044F00204761C30782E2816D103
:1043200016F8010F44F004042A280DD06FF02F0274
:104330003078A0F13003092B09D807EB870302EB93
:104340004303C718761CF3E759F8047B761C3078D2
:104350006C280FD006DC4C2817D068280DD06A28AE
:1043600014D104E0742810D07A280FD10DE044F461
:1043700000140AE044F4801401E044F4401472781C
:10438000824202D104F58014761C761C30786628AF
:104390000BD013DC582877D009DC002875D04528CD
:1043A000F6D04628F4D047281AD19DE118E06328BA
:1043B00035D0642879D0652812D195E1702873D062
:1043C00008DC6728F1D069286FD06E280DD06F28DF
:1043D00006D1B5E073282CD0752875D0782874D014
:1043E0005A46179990476D1C75E1C4F30250022894
:1043F00009D003280DD0D9F8001004280DD00D6085
:1044000009F1040967E1D9F80010EA17C1E900527F
:10441000F6E7D9F800100D80F2E70D70F0E719F813
:10442000041B8DF8001000208DF80100EA460120E1
:1044300003E059F804AB4FF0FF3061074FF0000183
:1044400002D40DE008F101018846B9420FDA804537
:10445000F8DB1AF808100029F4D108E008F101018E
:1044600088468142FADB1AF808100029F6D105982F
:104470005B46A0EB080721463846179A00F094FAED
:10448000284400EB080507E04DE029E10DE01AF8AB
:10449000010B5A4617999047B8F10108F7D25B46CD
:1044A00021463846179A13E142E00A220092C4F3EB
:1044B00002524FF0000A022A08D059F804CB032A0E
:1044C0004FEAEC710AD00DE029E02AE009F107017A
:1044D00021F00702F2E802C1914609E00FFA8CFCD4
:1044E0004FEAEC71042A03D14FFA8CFC4FEAEC71CD
:1044F000002907DA0A460021DCF1000C61EB020119
:104500002D2202E0220504D52B228DF80420012261
:1045100003E0E20701D02022F7E7904659E00A21A4
:1045200002E010220DE010214FF0000A00910BE094
:1045300010224FF0000A44F004040827009203E020
:1045400008224FF0000A0092C4F30252022A05D05A
:1045500059F804CB0021032A08D009E009F107012A
:1045600021F00702F2E802C1914605E01FFA8CFC37
:10457000042A01D10CF0FF0C4FF00008220728D5C7
:10458000702806D0009B83F0100353EA0A0305D07D
:104590000EE040228DF80420012208E05CEA0102CE
:1045A00006D030228DF804208DF8050002229046B6
:1045B000009B83F0080353EA0A030AD15CEA010274
:1045C00001D1620705D530228DF804204FF0010893
:1045D0007F1E582804D034A003900EA802900DE04E
:1045E00036A0F9E753466046009AFBF7EFFD844694
:1045F0000398825C0298401E029002705CEA0100FF
:10460000F0D1029806A9081A00F1200A600702D525
:1046100024F4803400E00127574502DDA7EB0A00AF
:1046200000E0002000EB0A01009005984144401A88
:104630000590E00306D45B462146179A059800F0E2
:10464000B3F90544002706E001A85A46C05D179952
:1046500090476D1C7F1C4745F6DBE0030CD55B469D
:104660002146179A059800F09FF9054404E0302090
:104670005A46179990476D1C0099481E00900029D2
:10468000F5DC08E0029802995A460078491C02912C
:10469000179990476D1CBAF10001AAF1010AF1DCEB
:1046A00065E10000092801003031323334353637F6
:1046B000383961626364656600000000303132336E
:1046C000343536373839414243444546000000000E
:1046D00000F058F90544761C307800287FF4ECADE2
:1046E00019B02846BDE8F08F620700D4062709F10B
:1046F000070222F0070CFCE80223E14603F0004821
:104700005FEA080C02D00FF2702C0DE05FEA045C47
:1047100002D50FF2682C07E05FEAC47C02D00FF2EA
:10472000602C01E0AFF2700C4FF0FF3823F0004333
:10473000CDF850C065280CD006DC452809D04628A5
:104740001DD047283DD13DE0662818D067287ED18E
:1047500038E00021112F01DB112000E0781CCDE9A9
:10476000000106A90EA8FFF7EDFCDDE90F010E9A86
:1047700003910021009207F1010A04914DE04FF0EE
:1047800000400097CDE9011006A90EA8FFF7DAFC5A
:10479000DDE90F0203920E9B11990022DDF80CA0B7
:1047A0000093049211B9791C00EB010AB7EB0A00DF
:1047B00004D4C0F1FF3007F1010A0490AAEB07000E
:1047C000019044E0012F00DA01270021112F01DDC3
:1047D000112000E03846CDE9000106A90EA8FFF738
:1047E000B1FCDDE90F010E9A0391002104910092C2
:1047F000BA4621070CD40399514500DA8A46BAF12A
:10480000010F05DD009AAAF10101515C302908D0A1
:10481000B84202DA10F1040F06DA0121CDE90110E5
:1048200015E0AAF10101E9E7002805DC049901443B
:104830000491AAEB000102E0411C514500DD8A46CB
:104840000499401A401C01904FF00040029020074C
:1048500004D40198504501DBCDF8048000208DF888
:104860004F0002980DF14F07B0F1004F25D02B20DB
:104870000E9002984FF0020800280CDA4042029095
:104880002D200E9007E00A210298FBF7EBFF303154
:10489000029007F8011DB8F10001A8F10108F2DC4F
:1048A00002980028EFD1791E0E980870307800F039
:1048B000200040F0450007F8020D12A8C01B00F1CF
:1048C00007081498007800B1012000EB0A01019854
:1048D00001EBE07105984144401A401E0590E00349
:1048E00006D45B462146179A059800F05DF805440A
:1048F0001498007818B15A46179990476D1CE00338
:1049000024D55B462146179A059800F04DF80544DA
:104910001CE00498002807DBDDE90301884203DD81
:104920000098405C179901E0179930205A4690474B
:10493000049805F10105401C04900198401E019067
:1049400004D12E205A46179990476D1CBAF10001E8
:10495000AAF1010ADDDC05E017F8010B5A461799A8
:1049600090476D1CB8F10001A8F10108F4DC5B462A
:104970002146179A0598ABE62D0000002B00000099
:10498000200000002DE9F041044600251E46174690
:10499000880404D405E039462020B0476D1C641E0D
:1049A000F9D52846BDE8F0812DE9F04104460025FF
:1049B0001E469046C80301D5302700E02027880412
:1049C00004D505E041463846B0476D1C641EF9D554
:1049D0002846BDE8F0810A68531C0B6010707047D0
:1049E00030B587B023200A258DF8180000240095E3
:1049F000012306AAB82115480594FCF78BFF022372
:104A000005AAB82111480095FCF794FEBDF81400E2
:104A100040BAFBF702FF9FED0E1B53EC112BFBF787
:104A20007CFE41EC100B0C4853EC102B0BA180EDDD
:104A3000000B01940294039401A80494FFF74EFB29
:104A4000062101A800F0BAFB07B030BD68000020C5
:104A5000333333333333F33F40000020494C4C555C
:104A60003A252E3166206C780000000011B583B025
:104A7000FF208DF804000A24012303AAEC210A4830
:104A80000094FCF747FF012301AAEC21064800949B
:104A9000FCF750FE28B10448FCF786FDC0B204B014
:104AA00010BD9DF80400FAE7680000201CB5022341
:104AB0008DF804000A208DF80510009001AAEC2161
:104AC0000148FCF727FF1CBD6800002070B52DEDE4
:104AD0000A8B84B0974C9FED989B9FED99CBF72064
:104AE000FFF7C4FF0546F820FFF7C0FF0646F92090
:104AF000FFF7BCFF290341EA061141EA10159FEDBB
:104B0000920B53EC102B94ED0C0B51EC100BFBF7AC
:104B100092FD9FED8F1B53EC112BFBF786FD41ECB3
:104B2000180BB4F91200FBF767FE41EC1A0B53ECBB
:104B3000182B51EC180BFBF77EFD53EC1A2BFBF7EF
:104B40007AFD53EC192BFBF776FD41EC1A0BB4F907
:104B50001000FBF751FE53EC182BFBF76CFD9FED9B
:104B60007E1B53EC112BFBF766FD53EC1A2BFBF766
:104B7000BBFC41EC1A0BB4F90E00FBF73DFE9FEDB8
:104B8000781B53EC112BFBF756FD41EC1B0B9FEDF3
:104B9000760B51EC1A0B53EC102BFBF74CFD53EC3E
:104BA0001B2BFBF7A1FC41EC1A0BB4F90A00FBF735
:104BB00023FE53EC182BFBF73EFD41EC1B0BB4F925
:104BC0000C00FBF719FE53EC182BFBF734FD53ECEC
:104BD000182BFBF730FD9FED668B53EC182BFBF782
:104BE0002AFD53EC1B2BFBF77FFC53EC182BFBF738
:104BF00022FD41EC180B2089FBF70FFE41EC1B0B4B
:104C000053EC192B51EC180BFBF715FD9FED5A1BBC
:104C100053EC112BFBF768FC53EC1B2BFBF70BFD44
:104C200041EC180B53EC1C2BFBF704FE05D184ED73
:104C30000ACB04B0BDEC0A8B70BD2846FBF7DCFD47
:104C40009FED4F1B53EC112BFBF7F2FC41EC1B0BC0
:104C50009FED4D0B51EC1A0B53EC102BFBF7EBFCBB
:104C600053EC1B2BFBF7E4FC9FED491B53EC112B82
:104C7000FBF7E1FC53EC182BFBF74FFD41EC180B55
:104C8000B4F91800FBF7B8FD53EC182BFBF7D3FC75
:104C900053EC182BFBF7CFFC9FED3F1B53EC112B74
:104CA000FBF7C9FC41EC1A0BB4F91600FBF7A4FDA5
:104CB00053EC182BFBF7BFFC53EC192BFBF7BBFC99
:104CC00041EC190BB4F91400FBF796FD41EC1B0BFA
:104CD00053EC192B51EC1A0BFBF706FC53EC1B2B76
:104CE000FBF702FC9FED2E1B53EC112BFBF7A3FCF3
:104CF00053EC182BFBF7F8FB41EC100B002084ED74
:104D00000A0B9FED291B009001900290039053EC39
:104D1000112B51EC100BFBF700FD41EC100B24A103
:104D200053EC102B6846FFF7D9F90521684600F0CF
:104D300045FA7EE708000020000000000000003F68
:104D40000000000000000000000000000000E03F44
:104D5000000000000040EF400000000000000040A4
:104D6000000000000000F040000000000000D03F04
:104D7000000000000000C03E000000000000F03F06
:104D80000000000000003041000000000000303F43
:104D900000000000006AB840000000000000003E73
:104DA000000000000000B03F00000000000059407B
:104DB000514E483A252E3266685061002DE9F04187
:104DC0002DED0A8B84B0FA20FFF750FE0446FB203D
:104DD000FFF74CFE0546FC20FFF748FE21034E4F2F
:104DE00041EA051141EA1014B7F90400FBF704FD8C
:104DF00041EC180B7888FBF710FD884648EC100B47
:104E000005469FED461B51EC100B53EC112BFBF7A5
:104E100012FC41EC190B2046FBF7EEFC0E4646EC6B
:104E2000100B04469FED3F1B51EC100B53EC112B64
:104E3000FBF701FC53EC192BFBF7F7FB53EC182B9A
:104E4000FBF7F9FB41EC190BB7F90600FBF7D4FCB3
:104E500048EC105B9FED35AB41EC180B53EC1A2B73
:104E600051EC100BFBF7E7FB46EC104B9FED31CB01
:104E700041EC1B0B53EC1C2B51EC100BFBF7DBFB39
:104E800053EC1B2BFBF7D1FB48EC105B41EC1B0BED
:104E900053EC1A2B51EC100BFBF7CDFB46EC104BEF
:104EA00041EC1A0B53EC1C2B51EC100BFBF7C3FB22
:104EB00053EC1A2BFBF7B9FB53EC1B2BFBF7BBFB9B
:104EC00053EC182BFBF7B7FB41EC100B51EC190B13
:104ED00053EC102BFBF708FB9FED181BC7E90C01E7
:104EE00053EC112BFBF719FC41EC100B002087ED64
:104EF000080B009001900290039053EC102B11A12D
:104F00006846FFF7EBF80421684600F057F904B053
:104F1000BDEC0A8BBDE8F081080000200000000015
:104F20000000503F000000000000103F00000000A3
:104F30000000203F000000000000E03E00000000F4
:104F40000000B44054454D503A252E326620274388
:104F50002000000070B5B621E020FFF7A7FD01207A
:104F6000FCF736FAD020FFF781FD414CFF2120707D
:104F7000F420FFF79BFD2021F520FFF797FD882007
:104F8000FFF774FD05468920FFF770FD45EA002014
:104F900060808A20FFF76AFD05468B20FFF766FDDB
:104FA00045EA0020A0808C20FFF760FD05468D209B
:104FB000FFF75CFD45EA0020E0808E20FFF756FDFC
:104FC00005468F20FFF752FD45EA00202081902002
:104FD000FFF74CFD05469120FFF748FD45EA00200C
:104FE00060819220FFF742FD05469320FFF73EFDCA
:104FF00045EA0020A0819420FFF738FD0546952062
:10500000FFF734FD45EA0020E0819620FFF72EFDF2
:1050100005469720FFF72AFD45EA002020829820C8
:10502000FFF724FD05469920FFF720FD45EA002003
:1050300060829A20FFF71AFD05469B20FFF716FDB8
:1050400045EA0020A0829C20FFF710FD05469D2028
:10505000FFF70CFD45EA0020E0829E20FFF706FDE9
:1050600005469F20FFF702FD45EA0020208370BD22
:105070000800002010B5094980B2094CC88088801A
:10508000401C20600748FDF799FC20680028FCD1EF
:10509000BDE810400348FDF7B4BC00004A00002002
:1050A00024080040400100202DE9F04389B0074664
:1050B0000024FBF7E0F8A046C6B23B4DCDF80480D3
:1050C000CDF80880CDF80C800DF10409CDF81080E2
:1050D0000E2E41D820220E214846FBF7BAF848464A
:1050E00003E0395D0155641CE4B2B442F9D3CDF854
:1050F00000904CE085F8008009B0BDE8F083401CCA
:105100002870F9E739190E2201A8FBF790F827A0BB
:1051100000902878AB88C0EB00116A880520491DF3
:10512000FCF7E4F8CDF800902878AB88C0EB0011CC
:105130006A880520491DFCF7D9F8287809281CD071
:10514000401C28700E34CDF80480CDF80880CDF8CE
:105150000C80E4B2CDF81080301B0E28D2DC321B5C
:10516000391901A8FBF763F820220E2105A8FBF7E7
:1051700070F8002005A94A4606E085F80080E1E7BE
:10518000135C0B54401CC0B2B042F9D30091287894
:10519000AB88C0EB00116A880520491DFCF7A6F812
:1051A00028780928ABD1A5E7000000202020202086
:1051B000202020202020202020200000F0B585B0D5
:1051C0000E4607460024FBF756F8C5B220220E21F2
:1051D00001A8FBF73EF80E2D11D801A803E0395DB8
:1051E0000155641CE4B2AC42F9D300900548C6EB0B
:1051F0000611491D838842880520FCF777F805B021
:10520000F0BD00000000002003263C25FCF784FCD4
:10521000FEF716FDFEF708FBFEF79EFB52485149CC
:105220004FF0000A4FF4E1380160C0E9018A0C2711
:10523000C0F80CA0C0E904A7C0F818A05446C0F8F4
:105240001CA0FDF7ABFD4848484940300160C0E96B
:105250000184C460C0E904478461C461FDF79EFD18
:1052600044484349016042F21071C0E901144FF40F
:105270008041C0E9034144618461C4610462FCF778
:1052800095F9FEF72DFBFEF781FB01223A493648DE
:10529000FDF70EFE4FF4C870FCF79AF8FEF730F9F0
:1052A000FBF73CFFFDF7B6FEC820FCF791F831484C
:1052B000324954300160032141604FF4FA6181604A
:1052C000FCF7F2FB2C4C4FF40058DFF8B4902D4F54
:1052D000B4F10304FFF772FDFFF7F8FBFFF780FB63
:1052E000012241464846FCF754F9397826A0FFF7D9
:1052F00065FF9620FCF76CF8A07820B100224146AB
:105300004846FCF746F9397821A0FFF757FF962069
:10531000FCF75EF8761C6D1CF6B2EDB2032E02D3DC
:10532000FBF7DCFD00263C2D06D3FEF759FB0E48AB
:105330008030FBF7CBFF0025607801280AD1FBF70E
:105340006BFE094884F801A084F800A02021A03059
:10535000FAF786FFFBF7A8FE06485430FCF7CDFBB2
:10536000B8E7000000100140800100200044004028
:1053700000540040680000204D0000200030004034
:10538000000802400000002024696F743A200000E9
:1053900024696F743A5F0000000000000000000004
:1053A000000000000000000000101010101010108D
:1053B000101000001010000000006C6C242400008D
:1053C00000000100000000000024242424FE4848BE
:1053D0004848FC909090900000103C5492905038B7
:1053E00014121292547810000000225C94A8481005
:1053F00010242A5254880000000030484850206E83
:1054000054948C888A740000000030301010000022
:105410000000000000000000000408101020202000
:1054200020202010100804000080402020101010C0
:105430001010102020408000000000001054381090
:10544000385410000000000000000010101010FE82
:10545000101010100000000000000000000000000C
:10546000000000001010200000000000000000FEFE
:10547000000000000000000000000000000000002C
:1054800000000000101000000000040408081010C4
:1054900020204040808000000000384482828282C8
:1054A00082828282443800000000107010101010B8
:1054B00010101010107C0000000038448282040894
:1054C0001020408284FC000000003844820204382E
:1054D00004020282443800000000040C1414242446
:1054E0004444FE04040E00000000FC808080B8C428
:1054F000820202828478000000003C428280B8C4AC
:10550000828282824438000000007E4282040408C5
:10551000080810101010000000003844828244383F
:1055200044828282443800000000384482828282B1
:10553000463A0282443800000000000010100000CB
:10554000000010100000000000000000101000001B
:10555000000000101020000000000000061860800D
:105560006018060000000000000000000000FE00BF
:1055700000FE00000000000000000000C0300C022F
:105580000C30C00000000000003844828202040891
:10559000101010001010000000003844829AAAAACF
:1055A000AAAAAA9680423C000000101010282828C1
:1055B00044447C4444EE00000000FC424242427CF1
:1055C0004242424242FC000000003C448280808013
:1055D00080808282443800000000F8444242424207
:1055E0004242424244F800000000FC444240447CF5
:1055F0004440404244FC00000000FC444240447CE3
:105600004440404040F000000000344C82808080E4
:105610008E8484844C3400000000EE444444447C76
:105620004444444444EE000000007C10101010106C
:1056300010101010107C000000003E080808080838
:1056400008080888887000000000EE444848506050
:105650005048484444EE00000000E04040404040D4
:105660004040404244FC00000000C6446C6C6C5456
:105670005454444444EE00000000CE446464645436
:10568000544C4C4C44E40000000038448282828236
:1056900082828282443800000000F8444242424440
:1056A0007840404040E0000000003844828282821E
:1056B000828282BA443C02000000F04844444448DC
:1056C0007048444444E6000000003C44828040307E
:1056D0000C0202824478000000007C5492101010EA
:1056E00010101010103800000000EE4444444444F0
:1056F00044444444443800000000EE4444444428F8
:1057000028282810101000000000EE44545454546F
:1057100054542828282800000000EE44442828106B
:105720001028284444EE00000000EE4444282828B5
:10573000101010101038000000007E44840808107B
:105740002020408284FC0000001C1010101010105B
:105750001010101010101C000000EE445454FE54A1
:105760005454282828280000007010101010101021
:10577000101010101010700000304884000000005D
:105780000000000000000000000000000000000019
:10579000000000000000FE000040200000000000AB
:1057A00000000000000000000000000000007884FD
:1057B000047C84848C7600000000C0404040586423
:1057C0004242424264580000000000000000384499
:1057D000808080804438000000000C040404344CB5
:1057E000848484844C36000000000000000078842B
:1057F00084FC808084780000000018242020F82099
:1058000020202020207000000000000000003A440A
:105810004478807C82827C000000C0404040586414
:105820004444444444EE00000000101000003010D6
:105830001010101010380000000010100000301080
:1058400010101010109060000000C04040405C48F4
:105850005060504844EE000000003010101010114D
:105860001010101010390000000000000000ACD231
:105870009292929292D6000000000000000058E43C
:105880004444444444EE000000000000000038445A
:105890008282828244380000000000000000D86448
:1058A000424242645840E000000000000000364CD4
:1058B0008484844C34040E000000000000006C302E
:1058C00020202020207000000000000000007888C8
:1058D0008460188444780000000000202020F82014
:1058E0002020202024180000000000000000C642F4
:1058F00042424242463A0000000000000000EE44EE
:105900004428282810100000000000000000EE4489
:105910004454542828280000000000000000EE44F1
:105920002810102844EE0000000000000000EE44A3
:105930004428281010A0C0000000000000007E4491
:105940008810204284FC0000000C10101010106021
:105950001010101010100C0000101010101010106B
:10596000101010101010100000C02020202020184F
:10597000202020202020C000000000000000007235
:105980008C0000000000000000000000000000008B
:1059900000010203040607080900000000010203D9
:1059A00004DDDDDDDDDCBBBBDDDDDDDDDDDDDDDD45
:1059B000DD98888888888888887777777777888857
:1059C0008885555556666666666666666666688844
:1059D0008883333332222222222222222222288842
:1059E0008D000000045A000800000020680000003C
:1059F000244100086C5A00086800002018140000B8
:105A0000344100080000FFFF0842000000000000D1
:105A10000000000000000000000000000000000086
:105A20000000000000000000000000000000000076
:105A30000000000000000000000000000000000066
:105A40000000000000000000000000000000000056
:105A50000100000000005765640000000100000024
:0C5A600010000000000000000024F40012
:040000050800019559
:00000001FF
